:020000040800F2
:10000000B011002005010008A10D0008E102000860
:100010009D0D000871010008A51A000800000000ED
:100020000000000000000000000000004112000875
:100030007501000800000000291100082D130008B8
:100040001F0100081F0100081F0100081F01000810
:100050001F0100081F0100081F0100081F01000800
:100060001F0100081F0100081F0100081F010008F0
:100070001F0100081F0100081F0100081F010008E0
:100080001F0100081F0100081F0100081F010008D0
:100090001F0100081F0100081F0100081F010008C0
:1000A0001F0100081F0100081F0100081F010008B0
:1000B00091130008291400081F0100081F010008FF
:1000C0001F0100081F0100081F0100081F01000890
:1000D0001F01000825160008891700081F010008E5
:1000E0001F0100081F0100081F010008DFF810D0E1
:1000F00000F02CF800480047191B0008AFF30080FF
:10010000B01100200648804706480047FEE7FEE79A
:10011000FEE7FEE7FEE7FEE7FEE7FEE7FEE7FEE7B7
:1001200031130008ED000008D2B201E000F8012B05
:10013000491EFBD270470022F6E710B513460A4667
:1001400004461946FFF7F0FF204610BD064C074D48
:1001500006E0E06840F0010394E807009847103497
:10016000AC42F6D3FFF7C6FF1C2200083C22000871
:1001700000BFFEE7704700B5034603E04FF47A7016
:1001800000F005F8181EA3F10103F7D100BD00EB44
:10019000C001C9004FF0E0225161002191610521A9
:1001A000116100BF4FF0E021096901F4803100299D
:1001B000F8D004214FF0E022116170472DE9F041A1
:1001C000024600250026002000230024002791F885
:1001D00003C00CF00F0591F803C00CF0100CBCF13B
:1001E000000F03D091F802C04CEA050591F800C059
:1001F000BCF1000F31D0146800202BE04FF0010C4F
:100200000CFA00F3B1F800C00CEA03069E4220D1BC
:1002100083004FF00F0C0CFA03F7BC4305FA03FC04
:100220004CEA040491F803C0BCF1280F06D14FF04A
:10023000010C0CFA00FCC2F814C00AE091F803C0EB
:10024000BCF1480F05D14FF0010C0CFA00FCC2F8CC
:1002500010C0401C0828D1D31460B1F800C0BCF114
:10026000FF0F34DD546800202EE000F1080C4FF041
:10027000010808FA0CF3B1F800C00CEA03069E422C
:1002800021D183004FF00F0C0CFA03F7BC4305FAA1
:1002900003FC4CEA040491F803C0BCF1280F05D11B
:1002A00000F1080C08FA0CF8C2F8148091F803C0A9
:1002B000BCF1480F07D100F1080C4FF0010808FA13
:1002C0000CF8C2F81080401C0828CED35460BDE85A
:1002D000F081016170470AB1016100E0416170473E
:1002E00000BFFEE710B54FF4A06000F093FD00F0F2
:1002F00059F800F025F84FF4964001F0E3F90D4964
:100300000860084600680C4991FBF0F00949086054
:10031000084600680949086001F096F801F0C8F83D
:1003200001F048F800F016FE4FF4964001F044FA50
:1003300010BD000038000020C0D401003C000020A7
:1003400008B501210C2000F001FF48208DF80300C2
:100350001D20ADF8000003208DF8020069460F480B
:10036000FFF72CFF48208DF80300E020ADF80000D7
:1003700003208DF8020069460848FFF71FFF482058
:100380008DF8030040F60340ADF8000003208DF81F
:10039000020069460248FFF711FF08BD000801404E
:1003A000000C014008B50121142000F0CFFE102000
:1003B0008DF803000320ADF800008DF802006946B7
:1003C0000C48FFF7FBFE03210A48FFF782FF1020CD
:1003D0008DF803004002ADF8000003208DF8020004
:1003E00069460548FFF7EAFE4FF400510248FFF75F
:1003F00070FF08BD0008014000100140C2680A40BB
:100400000AB9016100E04161704700002DE9F04147
:1004100005460E4617461C463A463146284600F029
:1004200001FC052004490870FFF7A5FE214603489A
:1004300000F0FEFABDE8F081140000200038014011
:1004400010B50446072C29D2DFE804F004280A106E
:10045000161C220013A20621012000F031FE1EE02E
:1004600013A20621012000F02BFE18E013A20621A2
:10047000012000F025FE12E013A20621012000F069
:100480001FFE0CE013A20621012000F019FE06E079
:1004900013A20621012000F013FE00E000BF00BF00
:1004A00010BD00004F4B20202020202020202000C5
:1004B00053594E435F455252202020005049445F1B
:1004C0004552522020202000434845434B5F45526F
:1004D000522020004E4F5F524553504F4E4553001F
:1004E000464F524D41545F455252200030B50346AD
:1004F0000C4600213C2B02D07D2B00D01946002059
:1005000009E0255C0D44A9B2FF2902DDA1F1FF0538
:10051000A9B2451CE8B29042F3DBC843C0B230BD7B
:1005200030B5014600200022002381EA610484EAFC
:10053000A10484EA2114E407620E4C1084EAE10469
:1005400084EA211484EA61150124AC43E30141EA01
:10055000020444EA030030BD0120054981F83C0053
:10056000022081F83D000120487002208870704709
:10057000DC03002010B504466078022803D1010393
:100580000148FFF73BFF10BD0010014070B5054664
:10059000314800F0EDF8044630480078052855D27F
:1005A000DFE800F00304091C2B0053E02570022053
:1005B0002A4908704EE005F03F006070A570607831
:1005C0002749085C022803D103202449087003E06E
:1005D00000202249087000BF00BF3BE0E178481CC2
:1005E000E070201D45542573E078082801DB0420C5
:1005F00000E00320194908702CE0257300211948F8
:1006000000F0BAF94FF0FF301749086060783D28D4
:1006100015D12079022802D020797F280FD1607966
:100620000121B1EB101F0AD1A179607900F00F0010
:1006300041EA0020062190FBF1F00C4908600648D1
:1006400000F0D1F800200549087003E000200349BC
:10065000087000BF00BF70BD1C0400201C000020FB
:10066000DC030020000400401800002020000020CF
:10067000F8B505460020009001266946284600F09E
:1006800080F801285BD000980078552801D0022618
:1006900055E000994878FFF743FF074600988078B7
:1006A000B84201D0032649E00098C078082801DD4F
:1006B000062643E00098C078002812DC00984078B5
:1006C0003D280CD11F480078002808DD64211E4811
:1006D00000F0AEF91B480078401E1A490870052644
:1006E0002CE00099CA788878091DFFF7FFFEC04307
:1006F000C4B20098007B2044C4B2FF2C01D0042671
:100700001BE00026009840783D2813D1009800F0A7
:10071000DBF90E49009808600D48006800280CDDE0
:100720006421094800F084F909480068401E08491E
:10073000086002E007490098086000BF00BF30462B
:10074000F8BD0000140000200038014034000020F3
:10075000200000203000002010B50446204600F0A4
:1007600007F80346002018709870D870187310BDF1
:1007700001464888C0EBC00201F1080000EB4200CE
:1007800070470246012080F3108800BF908800283F
:1007900007DC0020D08000BF80F3108800BF01205C
:1007A00070471088C0EBC00302F1080000EB430063
:1007B00008601388581CC31700EB93639B11A0EBD0
:1007C000831313809088401E9080002080F310884F
:1007D00000BF00BFE4E701468888002801DC002054
:1007E00070478888FCE74288511CCA1701EB926267
:1007F0009211A1EB821242808188402903DA81881C
:10080000491C818009E0C188491CC180C1884029F8
:1008100001D10021C180C1880180704710B5044614
:10082000204601F01BF910BD70B506460C46154672
:100830000BE014F8011B304601F015F900BF8021D0
:10084000304601F028F80028F9D0281EA5F1010152
:10085000CDB2EED100BF4021304601F01CF8002897
:10086000F9D070BD0948007820B909480088401CBB
:100870000749088006480088C82804DB002004498E
:100880000880012070470020FCE7000040000020A5
:10089000520000202DE9F05F06460F4690461C46A8
:1008A000082C00DD08243846FFF73AFE8146224630
:1008B00041464846FFF71AFE834604F1030A5046B4
:1008C00001F044F905465521297085F801900A98F0
:1008D00020B1012806D0022843D12AE03046FFF794
:1008E0009DFF3EE0002C23DDB0894FF6FB710840F0
:1008F000B081002005E018F80020811C6A54411CDA
:10090000C8B2A042F7DBA01C05F800B03046FFF7E4
:1009100085FFE01CC2B229463046FFF785FF00BFC5
:10092000124800680028FBDCB08940F00400B08168
:1009300017E03046FFF772FF022229463046FFF7E4
:1009400073FF3D2F0CD00A48006808490860012158
:10095000084800F011F800BF044800680028FBDCDC
:1009600000BF284601F0B0F8BDE8F09F1800002055
:10097000380000200004004070B504460D462946AA
:10098000204600F0D1FD70BD10B522480068002857
:100990003FDD20480068401E1E4908600846006888
:1009A000002836D11C48FFF7E3FE0446E078002813
:1009B00001DC002001E0E078401EE070E0780828CB
:1009C00018D160783D2815D12079022802D02079ED
:1009D0007F280FD160790121B1EB101F0AD1A179D5
:1009E000607900F00F0041EA0020062190FBF1F051
:1009F0000A4908600848FFF7F6FE00200849087019
:100A000000210848FFF7B8FF074800680749086059
:100A100000BF10BD180000201C0400202000002092
:100A20001C000020000400403C0000203800002092
:100A300038B505460C460F4890F83D0008230022C3
:100A40003D2100902846FFF725FF0B480460012157
:100A50000A48FFF791FF00BF0948FFF7BCFE0028D6
:100A600001DD012038BD074800680028F4DC0020C3
:100A7000F8E70000DC0300203800002000040040FC
:100A80001C040020180000202DE9F04106460C4609
:100A90001746A6F14000102802D022280ED100E00F
:100AA0000DE06078217840EA01254FF290108542F0
:100AB00003D1A11C034800F0DAFF00E000BF00BF33
:100AC000BDE8F081004400402DE9F84F05464FF0A5
:100AD000060A4FF0050B062000904E4C68783D2822
:100AE0007ED12879022802D028797F28F8D10026E3
:100AF0006F1D3046761C17F800804FEA1819B9F1BF
:100B0000000F06D0B9F1010F23D0B9F1020F7BD14C
:100B100041E008F00F0040490860084600680628D8
:100B200016DC08460068002812DD002004E031468B
:100B3000761C795C2154401C374909688842F6DBF1
:100B400035490988491E8AB22078611CFFF79CFF4D
:100B50005BE03046761C385C08F00F0140EA01206B
:100B60002D49086008460068B0F5805F12DA084633
:100B7000006805280EDD002004E03146761C795C13
:100B80002154401C0528F8DB012024490870052069
:100B90002349086039E008F00F002049097801F086
:100BA0000F0188422FD100200BE03146761C795C82
:100BB0001B4A1268A154401C19490968491C184A6B
:100BC0001160062805DA16490968134A126891422D
:100BD000EBDB12480078401C10490870104801E017
:100BE00015E011E000680C49096888420BDB0A48EF
:100BF0000068002807DD08490988491E8AB2207864
:100C0000611CFFF741FF00E000BF00BF00BFBDE86F
:100C1000F88F0000AC070020240000202C000020EA
:100C2000280000202DE9F04F85B007460E4690467B
:100C300006200490052003900620029040F6FF70E5
:100C4000804501DB40F6FE7808F101050024062D01
:100C50001ADC05F00F022046641C0DF80020204627
:100C6000641C0DF80070002006E016F8013B2146D8
:100C7000641C0DF80130401C691E8142F5DCA1B2F4
:100C8000684600F059F853E0C5F3032040F0100225
:100C90002046641C0DF80020EAB22046641C0DF8C2
:100CA00000202046641C0DF80070002006E016F8B5
:100CB000013B2146641C0DF80130401C0428F6DB82
:100CC000A1B2684600F038F84FF000094FF0010A71
:100CD0006D1F00BF29E009F10600A84201DC0620D3
:100CE00004E0062095FBF0F100FB11508346002440
:100CF0000AF00F0040F020022046641C0DF800208E
:100D0000002006E016F8013B2146641C0DF8013076
:100D1000401C5845F6DBA1B2684600F00DF8D944F6
:100D20000AF1010000F0FF0A00BFA945D3DB00BFB4
:100D300005B0BDE8F08F000030B585B004460D4623
:100D400008208DF80700FF22082102A8FFF7ECF920
:100D500002208DF80800002004E0235C411C02AA58
:100D60005354401CA842F8DB082202A93C20FFF79C
:100D7000BDFB8DF81000074890F83C0000909DF8EE
:100D80000700401CC3B202AA3C210348FFF782FDC2
:100D900005B030BDDC0300200038014000BFFEE795
:100DA0007047000070B5002100230F22C47804B3FF
:100DB000154C246804F4E064C4F5E064210AC1F130
:100DC0000403CA40447804FA03F1847814402143B0
:100DD00009010E4C0678A155047804F01F05012482
:100DE000AC4005786D11AD0005F1E025C5F8004176
:100DF00009E0047804F01F050124AC40044D067896
:100E0000761145F8264070BD0CED00E000E400E0EE
:100E100080E100E002490143024A1160704700008E
:100E20000000FA050CED00E070B500240EE0002192
:100E3000204600F0E6F8002504E0002000F064F908
:100E4000681CC5B2802DF8DB601CC4B2082CEEDB38
:100E500070BD000008B50121082000F077F91420CA
:100E60008DF8030003208DF802004FF48050ADF898
:100E7000000069460A48FFF7A1F94FF40050ADF8A9
:100E8000000069460648FFF799F90122110304485A
:100E9000FFF721FA012251030148FFF71CFA08BDB0
:100EA000000C014070B50546002415E0802020416B
:100EB00000EA05024FF400510E48FFF70CFA012238
:100EC00011030C48FFF707FA00224FF4805109483C
:100ED000FFF701FA601CC4B2082CE7DB0122110302
:100EE0000448FFF7F8F900224FF480510148FFF75A
:100EF000F2F970BD000C014010B5012251030A48FF
:100F0000FFF7E9F9012211030748FFF7E4F900228E
:100F10004FF400510448FFF7DEF900224FF48051EE
:100F20000148FFF7D8F910BD000C014010B50022B0
:100F30004FF400510648FFF7CEF90122110304488F
:100F4000FFF7C9F9012251030148FFF7C4F910BDA9
:100F5000000C014070B5002406E0002500E06D1C87
:100F6000B5F57A7FFBD3641CB4F57A7FF5D3FFF730
:100F700071FFAE2000F0B8F8D52000F0B5F8802061
:100F800000F0B2F8A82000F0AFF83F2000F0ACF875
:100F9000D32000F0A9F8002000F0A6F8402000F0CF
:100FA000A3F8A12000F0A0F8C82000F09DF8DA20F6
:100FB00000F09AF8122000F097F8812000F094F8E1
:100FC000CF2000F091F8D92000F08EF8F12000F049
:100FD0008BF8DB2000F088F8302000F085F8A420A2
:100FE00000F082F8A62000F07FF88D2000F07CF859
:100FF000142000F079F8AF2000F076F8FFF714FF26
:1010000070BD70B505460C4645F0B00000F06CF8B8
:10101000102141EA141000F067F804F00F0000F00E
:1010200063F870BD2DE9F04105460E461746721E65
:10103000D206110E6A1E5206100EFFF7E2FF0024C0
:1010400009E0A7F12001134A02EB0111085D00F04D
:101050005BF8601CC4B2082CF3DB721ED206110EC2
:101060006A1E012303EB4202D0B2FFF7CAFF00243D
:101070000BE0A7F12001074A02EB011204F108017D
:10108000505C00F041F8601CC4B2082CF1DBBDE8F4
:10109000F08100002C1C000810B505A201210846B3
:1010A00000F00EF804A20121022000F009F810BDA2
:1010B0004C4572723A000000554572723A000000C9
:1010C0002DE9F04107460E461546002407E02A5D4B
:1010D0003019C1B23846FFF7A5FF601CC4B2285DC5
:1010E0000028F4D1BDE8F08110B50446FFF704FFF5
:1010F0007820FFF7D7FE0020FFF7D4FE2046FFF749
:10110000D1FEFFF713FF10BD10B50446FFF7F4FE44
:101110007820FFF7C7FE4020FFF7C4FE2046FFF708
:10112000C1FEFFF703FF10BD7047000029B1064A5A
:10113000D2690243044BDA6104E0034AD269824374
:10114000014BDA61704700000010024029B1064AE5
:1011500092690243044B9A6104E0034A9269824314
:10116000014B9A61704700000010024030B5002129
:101170000022002400232D4D6D6805F00C0121B1E3
:10118000042905D0082923D105E0294D056022E076
:10119000274D05601FE0254D6D6805F47012234D45
:1011A0006D6805F48034022505EB92421CB9214D8F
:1011B000554305600BE01D4D6D6805F400351DB10C
:1011C0001C4D5543056002E0194D5543056002E092
:1011D000174D056000BF00BF144D6D6805F0F001AC
:1011E0000909154D6B5C0568DD4045600F4D6D6864
:1011F00005F4E061090A104D6B5C4568DD408560CF
:101200000A4D6D6805F46051C90A0B4D6B5C456869
:10121000DD40C560054D6D6805F44041890B074D03
:101220006B5CC568B5FBF3F5056130BD001002408D
:1012300000127A0000093D0000000020100000208C
:10124000704710B500F002F810BD00000CB500208A
:10125000019000903348006840F4803031490860C4
:1012600000BF3048006800F4003000900198401C36
:101270000190009818B90198B0F5A06FF1D12948F4
:10128000006800F4003010B10120009001E000205F
:1012900000900098012843D12348006840F01000D6
:1012A000214908600846006820F0070008600846E9
:1012B000006840F0020008601A4840681949486018
:1012C0000846406848600846406840F480604860CE
:1012D0000846406820F47C1048600846406840F4A6
:1012E000E81048600846006840F08070086000BF61
:1012F0000C48006800F000700028F9D009484068E8
:1013000020F00300074948600846406840F00200AA
:10131000486000BF0348406800F00C000828F9D17D
:101320000CBD000000100240002002407047000089
:1013300010B51348006840F00100114908600846E4
:101340004068104908400E494860084600680E4948
:1013500008400B4908600846006820F480200860B7
:101360000846406820F4FE0048604FF41F00886083
:10137000FFF767FF4FF000600449086010BD0000F0
:10138000001002400000FFF8FFFFF6FE08ED00E04D
:1013900010B50121880700F0D3F8012807D1FFF725
:1013A00061FA034908700121880700F0BAF810BDFE
:1013B000400000201FB501210846FFF7B7FE4FF09F
:1013C000804000F0D7F80020ADF80A00ADF8060024
:1013D0000920ADF8080041F61F40ADF804000020D8
:1013E0008DF80C0001A94FF0804000F0C9F80121F0
:1013F000880700F093F801221146900700F0B1F839
:101400001C208DF8000002208DF801008DF80200EC
:1014100001208DF803006846FFF7C4FC012188070E
:1014200000F082F81FBD000010B50121054800F052
:1014300087F8012805D1FFF7A7FA0121014800F03C
:1014400070F810BD000400401FB501210220FFF715
:101450006DFE164800F08EF80020ADF80A00ADF8D9
:1014600006000920ADF8080041F61F40ADF8040061
:1014700000208DF80C0001A90C4800F081F8012132
:101480000A4800F04BF801221146084800F069F8BC
:101490001D208DF8000001208DF801008DF802005C
:1014A0008DF803006846FFF77DFC1FBD0004004077
:1014B0001FB501210420FFF739FE174800F05AF844
:1014C0000020ADF80A00ADF806004CF24F30ADF840
:1014D000080041F61F40ADF8040000208DF80C0014
:1014E00001A90D4800F04CF801210B4800F016F856
:1014F00001221146084800F034F81E208DF8000043
:1015000003208DF801008DF8020001208DF8030002
:101510006846FFF747FC1FBD00080040CA4302822F
:101520007047CA430282704721B1028842F001022B
:10153000028004E002884FF6FE731A400280704772
:1015400030B50246002000230024158A05EA010375
:10155000958905EA010413B10CB1012000E00020D7
:1015600030BD1AB183890B43838102E083898B43A9
:101570008381704701894FF6F872114001817047ED
:10158000002202881D4B98420ED01D4B98420BD072
:10159000B0F1804F08D01B4B984205D01A4B9842AF
:1015A00002D01A4B984204D14FF68F731A404B88E1
:1015B0001A43174B984207D0164B984204D04FF667
:1015C000FF431A40CB881A4302808B8883850B889F
:1015D00003850A4B98420BD0094B984208D00E4B1A
:1015E000984205D00D4B984202D00D4B984201D144
:1015F0000B7A03860123838270470000002C014090
:10160000003401400004004000080040000C00408D
:101610000010004000140040004001400044014020
:101620000048014010B5002440F64601204800F073
:101630003FF9012813D11F4800681F4908601F485F
:10164000FFF78AF81A4800881948001D0088012011
:101650001B49087040F64601154800F001F940F2B8
:101660002551134800F024F901281FD1104800F03B
:10167000F0F9C4B202210E4800F00DF988B9552CDA
:101680000CD10F48007848B90A4800680A49086038
:101690000A48FFF761F80120094908702046FEF763
:1016A00075FF40F22551024800F0DAF810BD000045
:1016B0000038014038000020180000201C040020E1
:1016C0001C00002010B586B00446012144F204003D
:1016D000FFF73CFD4FF40070ADF8140018208DF8B2
:1016E000170003208DF8160005A92548FEF766FDB2
:1016F00048208DF817004FF48060ADF814000320E7
:101700008DF8160005A91E48FEF758FD01940C201F
:10171000ADF80E000020ADF80C00ADF80A00ADF8F1
:101720000800ADF8100001A9164800F011F92021B9
:10173000144800F079F90121124800F0A0F80121C5
:10174000104800F07AF925208DF8000001208DF86E
:10175000030000208DF801008DF802006846FFF7B5
:1017600021FB012240F22551064800F0CBF801226E
:1017700040F64601034800F0C5F8204606B010BD0B
:10178000000801400038014010B540F225510848DA
:1017900000F08EF8012809D1054800F05AF90549F2
:1017A000087040F22551024800F05AF810BD0000C0
:1017B000004400404100002010B586B004460121DD
:1017C0004804FFF7B3FC01210420FFF7BFFC04200D
:1017D000ADF8140018208DF8170003208DF81600BE
:1017E00005A91D48FEF7EAFC48208DF817000820DF
:1017F000ADF8140003208DF8160005A91648FEF771
:10180000DDFC01940C20ADF80E000020ADF80C00BA
:10181000ADF80A00ADF80800ADF8100001A90F48B6
:1018200000F096F801210D4800F029F826208DF8E7
:10183000000001208DF803008DF8010000208DF8D4
:1018400002006846FFF7AEFA012240F22551034834
:1018500000F058F806B010BD0008014000440040F8
:1018600010B50022002340F66A14A14200D100BF47
:101870000A1201249440A3B2DC43048010BD21B1BC
:10188000828942F40052828104E082894DF6FF731E
:101890001A408281704702460020B1F5007F00D1D6
:1018A00000BF13880B400BB1012000E000207047FF
:1018B00070B50246002400230025002040F66A1679
:1018C000B14200D100BFC1F3421501F01F03012650
:1018D00006FA03F3012D02D19689334006E0022D6A
:1018E00002D1168A334001E0968A33400C12012659
:1018F00006FA04F41688344013B10CB1012000E05C
:10190000002070BDF0B5034600240026002500200D
:1019100040F66A17B94200D100BF1846C1F342141D
:1019200001F01F06012707FA06F5012C01D10C3042
:1019300004E0022C01D1103000E014301AB1076825
:101940002F43076002E00768AF430760F0BD000067
:101950002DE9F04786B005460E460024A24600BF9A
:10196000A1460027B08900B100BF2F462C8A4CF653
:10197000FF700440F08804432C82AC894EF6F310CB
:101980000440B08831890843718908430443AC811D
:10199000AC8A4FF6FF400440B0890443AC8201A8F2
:1019A000FFF7E4FB1F48874202D1DDF810A001E0F9
:1019B000DDF80CA0A88900F4004040B10AEBCA0091
:1019C00000EB0A1031684900B0FBF1F807E00AEBC0
:1019D000CA0000EB0A1031688900B0FBF1F86420FE
:1019E000B8FBF0F004012009642101FB1089A889EB
:1019F00000F4004040B1322000EBC900B0FBF1F030
:101A000000F00700044308E0322000EB09106421D5
:101A1000B0FBF1F000F00F0004432C8106B0BDE8EC
:101A2000F087000000380140028A4FF6DF731A4049
:101A30000282028A0A430282704721B1028A42F47A
:101A40008042028204E0028A4BF6FF731A4002824F
:101A5000704701468888C0F308007047818941F0CB
:101A6000010181817047C1F308028280704770B51F
:101A700005460C460BE014F8011B2846FFF7F3FF60
:101A800000BF40212846FFF706FF0028F9D0207844
:101A90000028F0D100BF40212846FFF7FCFE0028B7
:101AA000F9D070BD00BFFEE702E008C8121F08C1F0
:101AB000002AFAD170477047002001E001C1121FCF
:101AC000002AFBD17047000010B5002821D0114B2F
:101AD0000022001F196803E0814203D80A464968C2
:101AE0000029F9D152B11368841A9C4204D10068CC
:101AF00018441060104602E0506000E0186039B1F0
:101B000002680B1A934203D10B681A4402604968B9
:101B1000416010BD54000020FEF7E4FBFFF7BCFA63
:101B2000FEF71AFD0DE000F047F80648FEF7A0FDAD
:101B300004462046FEF784FC1CB903480068FEF703
:101B400019FDF0E71C04002030000020F0B50B3038
:101B5000154D20F007010024144A0FE003688B4262
:101B60000BD38B4205D95E1A43184768C3E9006757
:101B700000E04368136002C004E0021D1068002802
:101B8000ECD12046002802D1286808B10020F0BD21
:101B9000064A07481060074A121A22F00702C0E9F5
:101BA000002401202860D7E75800002054000020BE
:101BB000B40B0020B00D002010B5154800780128A6
:101BC00006D002280BD0032810D004281BD114E023
:101BD000642301220F491020FEF718FC13E0642350
:101BE00002220D492220FEF711FC0CE0642304229E
:101BF0000A492F20FEF70AFC05E009A20621012070
:101C0000FFF75EFA00BF00BF00200149087010BD59
:101C1000410000204A0000204B0000204D00002021
:101C20002020202020202020202020000000000054
:101C3000000000000000000000000000000000F8AC
:101C400000000000000000333000000000100C060F
:101C5000100C0600000000000000000040C07840AA
:101C6000C0784000043F04043F040400007088FC76
:101C700008300000001820FF211E0000F008F000CE
:101C8000E018000000211C031E211E0000F008883F
:101C9000700000001E2123241927211010160E00A9
:101CA000000000000000000000000000000000E054
:101CB0001804020000000007182040000002041869
:101CC000E00000000040201807000000404080F0C5
:101CD000804040000202010F01020200000000F0FB
:101CE000000000000101011F0101010000000000CF
:101CF0000000000080B07000000000000000000044
:101D000000000000000101010101010100000000CC
:101D10000000000000303000000000000000000063
:101D200080601804006018060100000000E0100840
:101D30000810E000000F102020100F00001010F815
:101D4000000000000020203F202000000070080854
:101D500008887000003028242221300000300888D4
:101D6000884830000018202020110E000000C020FC
:101D700010F8000000070424243F240000F808881D
:101D8000880808000019212020110E0000E01088AA
:101D900088180000000F112020110E0000380808DC
:101DA000C83808000000003F0000000000708808EC
:101DB00008887000001C222121221C0000E010086D
:101DC0000810E0000000312222110F00000000C0C6
:101DD000C000000000000030300000000000008063
:101DE0000000000000008060000000000000804053
:101DF000201008000001020408102000404040406C
:101E000040404000040404040404040000081020BE
:101E10004080000000201008040201000070480803
:101E20000808F0000000003036010000C030C8286B
:101E3000E810E0000718272423140B000000C03826
:101E4000E0000000203C23020227382008F88888A0
:101E500088700000203F202020110E00C0300808AC
:101E600008083800071820202010080008F8080883
:101E70000810E000203F202020100F0008F888887C
:101E8000E8081000203F20202320180008F8888848
:101E9000E8081000203F200003000000C0300808C0
:101EA0000838000007182020221E020008F8080049
:101EB0000008F808203F210101213F20000808F810
:101EC000080800000020203F202000000000080833
:101ED000F8080800C08080807F00000008F888C0F3
:101EE00028180800203F20012638200008F80800A4
:101EF00000000000203F20202020300008F8F800DB
:101F0000F8F80800203F003F003F200008F830C0EC
:101F10000008F808203F200007183F00E0100808DC
:101F20000810E0000F10202020100F0008F808080B
:101F30000808F000203F210101010000E01008081E
:101F40000810E0000F18242438504F0008F8888843
:101F500088887000203F2000030C30200070880823
:101F6000080838000038202121221C00180808F831
:101F7000080818000000203F2000000008F80800B2
:101F80000008F808001F202020201F000878880083
:101F900000C83808000007380E010000F80800F8F3
:101FA0000008F800033C0700073C0300081868809D
:101FB0008068180820302C03032C30200838C80013
:101FC000C83808000000203F200000001008080862
:101FD000C83808002038262120201800000000FE04
:101FE000020202000000007F40404000000C30C0B0
:101FF00000000000000000010638C00000020202DC
:10200000FE000000004040407F000000000004028D
:1020100002020400000000000000000000000000B8
:1020200000000000808080808080808000020204A8
:1020300000000000000000000000000000008080A0
:10204000808000000019242222223F2008F800800E
:1020500080000000003F112020110E0000000080D1
:1020600080800000000E1120202011000000008060
:102070008088F800000E112020103F200000808092
:1020800080800000001F222222221300008080F0A6
:10209000888888180020203F2020000000008080D1
:1020A00080808000006B94949493600008F8008016
:1020B00080800000203F210000203F200080989871
:1020C000000000000020203F2020000000000080D1
:1020D0009898000000C08080807F000008F8000011
:1020E00080808000203F24022D302000000808F866
:1020F000000000000020203F202000008080808021
:1021000080808000203F20003F20003F80800080B2
:1021100080800000203F210000203F2000008080C0
:1021200080800000001F202020201F008080008071
:102130008000000080FFA12020110E000000008020
:1021400080808000000E112020A0FF808080800011
:102150008080800020203F2120000100000080803E
:10216000808080000033242424241900008080E033
:10217000808000000000001F202000008080000000
:1021800000808000001F202020103F2080808000E1
:102190000080808000010E300806010080800080F1
:1021A000008080800F300C030C300F000080800016
:1021B000808080000020312E0E3120008080800041
:1021C0000080808080818E701806010000808080F1
:1021D000808080000021302C22213000000000008F
:1021E000807C020200000000003F40400000000030
:1021F000FF00000000000000FF0000000002027C61
:10220000800000000040403F000000000006010187
:102210000202040400000000000000003C2200084C
:10222000000000205C000000A81A000898220008A6
:102230005C00002054110000B81A000800000000E3
:102240000102030401020304060708090204060848
:10225000000000000000000000000000000000007E
:10226000000000000000000000000000000000006E
:10227000000000000000000000000000000001025B
:1022800003040506070803F190F100010A000000AD
:08229000000000000000000046
:04000005080000ED02
:00000001FF
