Component: ARM Compiler 5.06 update 7 (build 960) Tool: armlink [4d3601]

==============================================================================

Section Cross References

    stm32f10x_adc.o(i.ADC_DeInit) refers to stm32f10x_rcc.o(i.RCC_APB2PeriphResetCmd) for RCC_APB2PeriphResetCmd
    stm32f10x_bkp.o(i.BKP_DeInit) refers to stm32f10x_rcc.o(i.RCC_BackupResetCmd) for RCC_BackupResetCmd
    stm32f10x_can.o(i.CAN_DeInit) refers to stm32f10x_rcc.o(i.RCC_APB1PeriphResetCmd) for RCC_APB1PeriphResetCmd
    stm32f10x_can.o(i.CAN_GetITStatus) refers to stm32f10x_can.o(i.CheckITStatus) for CheckITStatus
    stm32f10x_cec.o(i.CEC_DeInit) refers to stm32f10x_rcc.o(i.RCC_APB1PeriphResetCmd) for RCC_APB1PeriphResetCmd
    stm32f10x_dac.o(i.DAC_DeInit) refers to stm32f10x_rcc.o(i.RCC_APB1PeriphResetCmd) for RCC_APB1PeriphResetCmd
    stm32f10x_flash.o(i.FLASH_EnableWriteProtection) refers to stm32f10x_flash.o(i.FLASH_WaitForLastOperation) for FLASH_WaitForLastOperation
    stm32f10x_flash.o(i.FLASH_EraseAllBank1Pages) refers to stm32f10x_flash.o(i.FLASH_WaitForLastBank1Operation) for FLASH_WaitForLastBank1Operation
    stm32f10x_flash.o(i.FLASH_EraseAllPages) refers to stm32f10x_flash.o(i.FLASH_WaitForLastOperation) for FLASH_WaitForLastOperation
    stm32f10x_flash.o(i.FLASH_EraseOptionBytes) refers to stm32f10x_flash.o(i.FLASH_GetReadOutProtectionStatus) for FLASH_GetReadOutProtectionStatus
    stm32f10x_flash.o(i.FLASH_EraseOptionBytes) refers to stm32f10x_flash.o(i.FLASH_WaitForLastOperation) for FLASH_WaitForLastOperation
    stm32f10x_flash.o(i.FLASH_ErasePage) refers to stm32f10x_flash.o(i.FLASH_WaitForLastOperation) for FLASH_WaitForLastOperation
    stm32f10x_flash.o(i.FLASH_ProgramHalfWord) refers to stm32f10x_flash.o(i.FLASH_WaitForLastOperation) for FLASH_WaitForLastOperation
    stm32f10x_flash.o(i.FLASH_ProgramOptionByteData) refers to stm32f10x_flash.o(i.FLASH_WaitForLastOperation) for FLASH_WaitForLastOperation
    stm32f10x_flash.o(i.FLASH_ProgramWord) refers to stm32f10x_flash.o(i.FLASH_WaitForLastOperation) for FLASH_WaitForLastOperation
    stm32f10x_flash.o(i.FLASH_ReadOutProtection) refers to stm32f10x_flash.o(i.FLASH_WaitForLastOperation) for FLASH_WaitForLastOperation
    stm32f10x_flash.o(i.FLASH_UserOptionByteConfig) refers to stm32f10x_flash.o(i.FLASH_WaitForLastOperation) for FLASH_WaitForLastOperation
    stm32f10x_flash.o(i.FLASH_WaitForLastBank1Operation) refers to stm32f10x_flash.o(i.FLASH_GetBank1Status) for FLASH_GetBank1Status
==============================================================================

Removing Unused input sections from the image.

    Removing misc.o(i.NVIC_SetVectorTable), (20 bytes).
    Removing misc.o(i.NVIC_SystemLPConfig), (32 bytes).
    Removing misc.o(i.SysTick_CLKSourceConfig), (40 bytes).
    Removing stm32f10x_adc.o(i.ADC_AnalogWatchdogCmd), (20 bytes).
    Removing stm32f10x_adc.o(i.ADC_AnalogWatchdogSingleChannelConfig), (16 bytes).
    Removing stm32f10x_adc.o(i.ADC_AnalogWatchdogThresholdsConfig), (6 bytes).
    Removing stm32f10x_adc.o(i.ADC_AutoInjectedConvCmd), (22 bytes).
    Removing stm32f10x_adc.o(i.ADC_ClearFlag), (6 bytes).
    Removing stm32f10x_adc.o(i.ADC_ClearITPendingBit), (10 bytes).
    Removing stm32f10x_adc.o(i.ADC_Cmd), (22 bytes).
    Removing stm32f10x_adc.o(i.ADC_DMACmd), (22 bytes).
    Removing stm32f10x_adc.o(i.ADC_DeInit), (92 bytes).
    Removing stm32f10x_adc.o(i.ADC_DiscModeChannelCountConfig), (24 bytes).
    Removing stm32f10x_adc.o(i.ADC_DiscModeCmd), (22 bytes).
    Removing stm32f10x_adc.o(i.ADC_ExternalTrigConvCmd), (22 bytes).
    Removing stm32f10x_adc.o(i.ADC_ExternalTrigInjectedConvCmd), (22 bytes).
    Removing stm32f10x_adc.o(i.ADC_ExternalTrigInjectedConvConfig), (16 bytes).
    Removing stm32f10x_adc.o(i.ADC_GetCalibrationStatus), (20 bytes).
==============================================================================

Image Symbol Table

    Local Symbols

    Symbol Name                              Value     Ov Type        Size  Object(Section)

    ../clib/microlib/init/entry.s            0x00000000   Number         0  entry12a.o ABSOLUTE
    ../clib/microlib/init/entry.s            0x00000000   Number         0  entry12b.o ABSOLUTE
    ../clib/microlib/init/entry.s            0x00000000   Number         0  entry10b.o ABSOLUTE
    ../clib/microlib/init/entry.s            0x00000000   Number         0  entry10a.o ABSOLUTE
    ../clib/microlib/init/entry.s            0x00000000   Number         0  entry9a.o ABSOLUTE
    ../clib/microlib/init/entry.s            0x00000000   Number         0  entry11b.o ABSOLUTE
    ../clib/microlib/init/entry.s            0x00000000   Number         0  entry8b.o ABSOLUTE
    ../clib/microlib/init/entry.s            0x00000000   Number         0  entry9b.o ABSOLUTE
    ../clib/microlib/init/entry.s            0x00000000   Number         0  entry2.o ABSOLUTE
    ../clib/microlib/init/entry.s            0x00000000   Number         0  entry5.o ABSOLUTE
    ../clib/microlib/init/entry.s            0x00000000   Number         0  entry7a.o ABSOLUTE
    ../clib/microlib/init/entry.s            0x00000000   Number         0  entry7b.o ABSOLUTE
    ../clib/microlib/init/entry.s            0x00000000   Number         0  entry8a.o ABSOLUTE
    ../clib/microlib/init/entry.s            0x00000000   Number         0  entry.o ABSOLUTE
    ../clib/microlib/init/entry.s            0x00000000   Number         0  entry11a.o ABSOLUTE
    ../clib/microlib/malloc/malloc.c         0x00000000   Number         0  mallocra.o ABSOLUTE
    ../clib/microlib/malloc/malloc.c         0x00000000   Number         0  malloca.o ABSOLUTE
    ../clib/microlib/malloc/malloc.c         0x00000000   Number         0  mallocr.o ABSOLUTE
    ../clib/microlib/malloc/malloc.c         0x00000000   Number         0  malloc.o ABSOLUTE
    ../clib/microlib/malloc/mvars.c          0x00000000   Number         0  mvars.o ABSOLUTE
    ../clib/microlib/string/memcpy.c         0x00000000   Number         0  memcpyb.o ABSOLUTE
    ../clib/microlib/string/memcpy.c         0x00000000   Number         0  memcpya.o ABSOLUTE
    ..\Hardware\Key.c                        0x00000000   Number         0  key.o ABSOLUTE
    ..\Hardware\LED.c                        0x00000000   Number         0  led.o ABSOLUTE
    ..\Hardware\OLED.c                       0x00000000   Number         0  oled.o ABSOLUTE
    ..\Hardware\lin_buffer.c                 0x00000000   Number         0  lin_buffer.o ABSOLUTE
    ..\Hardware\lin_driver.c                 0x00000000   Number         0  lin_driver.o ABSOLUTE
    ..\Hardware\usart.c                      0x00000000   Number         0  usart.o ABSOLUTE
    ..\Library\misc.c                        0x00000000   Number         0  misc.o ABSOLUTE
    ..\Library\stm32f10x_adc.c               0x00000000   Number         0  stm32f10x_adc.o ABSOLUTE
    ..\Library\stm32f10x_bkp.c               0x00000000   Number         0  stm32f10x_bkp.o ABSOLUTE
    ..\Library\stm32f10x_can.c               0x00000000   Number         0  stm32f10x_can.o ABSOLUTE
    ..\Library\stm32f10x_cec.c               0x00000000   Number         0  stm32f10x_cec.o ABSOLUTE
    ..\Library\stm32f10x_crc.c               0x00000000   Number         0  stm32f10x_crc.o ABSOLUTE
    ..\Library\stm32f10x_dac.c               0x00000000   Number         0  stm32f10x_dac.o ABSOLUTE
    ..\Library\stm32f10x_dbgmcu.c            0x00000000   Number         0  stm32f10x_dbgmcu.o ABSOLUTE
    ..\Library\stm32f10x_dma.c               0x00000000   Number         0  stm32f10x_dma.o ABSOLUTE
    ..\Library\stm32f10x_exti.c              0x00000000   Number         0  stm32f10x_exti.o ABSOLUTE
    ..\Library\stm32f10x_flash.c             0x00000000   Number         0  stm32f10x_flash.o ABSOLUTE
    ..\Library\stm32f10x_fsmc.c              0x00000000   Number         0  stm32f10x_fsmc.o ABSOLUTE
    ..\Library\stm32f10x_gpio.c              0x00000000   Number         0  stm32f10x_gpio.o ABSOLUTE
    ..\Library\stm32f10x_i2c.c               0x00000000   Number         0  stm32f10x_i2c.o ABSOLUTE
    ..\Library\stm32f10x_iwdg.c              0x00000000   Number         0  stm32f10x_iwdg.o ABSOLUTE
    ..\Library\stm32f10x_pwr.c               0x00000000   Number         0  stm32f10x_pwr.o ABSOLUTE
    ..\Library\stm32f10x_rcc.c               0x00000000   Number         0  stm32f10x_rcc.o ABSOLUTE
    ..\Library\stm32f10x_rtc.c               0x00000000   Number         0  stm32f10x_rtc.o ABSOLUTE
    ..\Library\stm32f10x_sdio.c              0x00000000   Number         0  stm32f10x_sdio.o ABSOLUTE
    ..\Library\stm32f10x_spi.c               0x00000000   Number         0  stm32f10x_spi.o ABSOLUTE
    ..\Library\stm32f10x_tim.c               0x00000000   Number         0  stm32f10x_tim.o ABSOLUTE
    ..\Library\stm32f10x_usart.c             0x00000000   Number         0  stm32f10x_usart.o ABSOLUTE
    ..\Library\stm32f10x_wwdg.c              0x00000000   Number         0  stm32f10x_wwdg.o ABSOLUTE
    ..\Start\core_cm3.c                      0x00000000   Number         0  core_cm3.o ABSOLUTE
    ..\Start\startup_stm32f10x_md.s          0x00000000   Number         0  startup_stm32f10x_md.o ABSOLUTE
    ..\Start\system_stm32f10x.c              0x00000000   Number         0  system_stm32f10x.o ABSOLUTE
    ..\System\Delay.c                        0x00000000   Number         0  delay.o ABSOLUTE
    ..\System\TIM.c                          0x00000000   Number         0  tim.o ABSOLUTE
    ..\User\main.c                           0x00000000   Number         0  main.o ABSOLUTE
    ..\User\stm32f10x_it.c                   0x00000000   Number         0  stm32f10x_it.o ABSOLUTE
    ..\\Start\\core_cm3.c                    0x00000000   Number         0  core_cm3.o ABSOLUTE
    dc.s                                     0x00000000   Number         0  dc.o ABSOLUTE
    handlers.s                               0x00000000   Number         0  handlers.o ABSOLUTE
    init.s                                   0x00000000   Number         0  init.o ABSOLUTE
    RESET                                    0x08000000   Section      236  startup_stm32f10x_md.o(RESET)
    .ARM.Collect$$$$00000000                 0x080000ec   Section        0  entry.o(.ARM.Collect$$$$00000000)
    .ARM.Collect$$$$00000001                 0x080000ec   Section        4  entry2.o(.ARM.Collect$$$$00000001)
    .ARM.Collect$$$$00000004                 0x080000f0   Section        4  entry5.o(.ARM.Collect$$$$00000004)
    .ARM.Collect$$$$00000008                 0x080000f4   Section        0  entry7b.o(.ARM.Collect$$$$00000008)
    .ARM.Collect$$$$0000000A                 0x080000f4   Section        0  entry8b.o(.ARM.Collect$$$$0000000A)
    .ARM.Collect$$$$0000000B                 0x080000f4   Section        8  entry9a.o(.ARM.Collect$$$$0000000B)
    .ARM.Collect$$$$0000000E                 0x080000fc   Section        4  entry12b.o(.ARM.Collect$$$$0000000E)
    .ARM.Collect$$$$0000000F                 0x08000100   Section        0  entry10a.o(.ARM.Collect$$$$0000000F)
    .ARM.Collect$$$$00000011                 0x08000100   Section        0  entry11a.o(.ARM.Collect$$$$00000011)
    .ARM.Collect$$$$00002712                 0x08000100   Section        4  entry2.o(.ARM.Collect$$$$00002712)
    __lit__00000000                          0x08000100   Data           4  entry2.o(.ARM.Collect$$$$00002712)
    .text                                    0x08000104   Section       36  startup_stm32f10x_md.o(.text)
    .text                                    0x08000128   Section       36  init.o(.text)
    i.BusFault_Handler                       0x0800014c   Section        0  stm32f10x_it.o(i.BusFault_Handler)
    i.DebugMon_Handler                       0x08000150   Section        0  stm32f10x_it.o(i.DebugMon_Handler)
    i.GPIO_Init                              0x08000152   Section        0  stm32f10x_gpio.o(i.GPIO_Init)
    i.GPIO_SetBits                           0x08000268   Section        0  stm32f10x_gpio.o(i.GPIO_SetBits)
    i.GPIO_WriteBit                          0x0800026c   Section        0  stm32f10x_gpio.o(i.GPIO_WriteBit)
    i.HardFault_Handler                      0x08000276   Section        0  stm32f10x_it.o(i.HardFault_Handler)
    i.HardWareInit                           0x0800027c   Section        0  main.o(i.HardWareInit)
    HardWareInit                             0x0800027d   Thumb Code    78  main.o(i.HardWareInit)
    i.Key_Init                               0x080002d8   Section        0  key.o(i.Key_Init)
    i.LED_Init                               0x0800033c   Section        0  led.o(i.LED_Init)
    i.LIN_ErrorCode                          0x08000394   Section        0  lin_driver.o(i.LIN_ErrorCode)
    i.LIN_GetChecksum                        0x08000440   Section        0  lin_driver.o(i.LIN_GetChecksum)
    i.LIN_GetPID                             0x08000474   Section        0  lin_driver.o(i.LIN_GetPID)
    i.LIN_GetSendFlg                         0x080004ac   Section        0  main.o(i.LIN_GetSendFlg)
    LIN_GetSendFlg                           0x080004ad   Thumb Code    38  main.o(i.LIN_GetSendFlg)
    i.LIN_IDTypeConfig                       0x080004dc   Section        0  main.o(i.LIN_IDTypeConfig)
    i.LIN_MasterRxMsg                        0x080004f0   Section        0  lin_driver.o(i.LIN_MasterRxMsg)
    i.LIN_Process                            0x080005a0   Section        0  lin_driver.o(i.LIN_Process)
    i.LIN_RingBUF_ClearRxMsg                 0x08000624   Section        0  lin_buffer.o(i.LIN_RingBUF_ClearRxMsg)
    i.LIN_RingBUF_GetMsg                     0x0800063c   Section        0  lin_buffer.o(i.LIN_RingBUF_GetMsg)
    i.LIN_RingBUF_Read                       0x0800064e   Section        0  lin_buffer.o(i.LIN_RingBUF_Read)
    i.LIN_RingBUF_Write                      0x080006a2   Section        0  lin_buffer.o(i.LIN_RingBUF_Write)
    i.LIN_SendBreak                          0x080006d8   Section        0  lin_driver.o(i.LIN_SendBreak)
    i.LIN_SendBytes                          0x080006e4   Section        0  lin_driver.o(i.LIN_SendBytes)
    i.LIN_SendMsg                            0x08000724   Section        0  lin_driver.o(i.LIN_SendMsg)
    i.LIN_TimOutCmd                          0x08000808   Section        0  lin_driver.o(i.LIN_TimOutCmd)
    i.LIN_TimeProcess                        0x08000818   Section        0  lin_driver.o(i.LIN_TimeProcess)
    i.MemManage_Handler                      0x08000884   Section        0  stm32f10x_it.o(i.MemManage_Handler)
    i.NMI_Handler                            0x08000888   Section        0  stm32f10x_it.o(i.NMI_Handler)
    i.NVIC_Init                              0x0800088c   Section        0  misc.o(i.NVIC_Init)
    i.NVIC_PriorityGroupConfig               0x080008fc   Section        0  misc.o(i.NVIC_PriorityGroupConfig)
    i.OLED_Clear                             0x08000910   Section        0  oled.o(i.OLED_Clear)
    i.OLED_I2C_Init                          0x0800093c   Section        0  oled.o(i.OLED_I2C_Init)
    i.OLED_I2C_SendByte                      0x0800098c   Section        0  oled.o(i.OLED_I2C_SendByte)
    i.OLED_I2C_Start                         0x080009e0   Section        0  oled.o(i.OLED_I2C_Start)
    i.OLED_I2C_Stop                          0x08000a14   Section        0  oled.o(i.OLED_I2C_Stop)
    i.OLED_Init                              0x08000a3c   Section        0  oled.o(i.OLED_Init)
    i.OLED_SetCursor                         0x08000aea   Section        0  oled.o(i.OLED_SetCursor)
    i.OLED_ShowChar                          0x08000b0c   Section        0  oled.o(i.OLED_ShowChar)
    i.OLED_ShowInit                          0x08000b80   Section        0  main.o(i.OLED_ShowInit)
    OLED_ShowInit                            0x08000b81   Thumb Code    14  main.o(i.OLED_ShowInit)
    i.OLED_ShowString                        0x08000b98   Section        0  oled.o(i.OLED_ShowString)
    i.OLED_WriteCommand                      0x08000bc0   Section        0  oled.o(i.OLED_WriteCommand)
    i.OLED_WriteData                         0x08000be0   Section        0  oled.o(i.OLED_WriteData)
    i.PendSV_Handler                         0x08000c00   Section        0  stm32f10x_it.o(i.PendSV_Handler)
    i.RCC_APB1PeriphClockCmd                 0x08000c04   Section        0  stm32f10x_rcc.o(i.RCC_APB1PeriphClockCmd)
    i.RCC_APB2PeriphClockCmd                 0x08000c24   Section        0  stm32f10x_rcc.o(i.RCC_APB2PeriphClockCmd)
    i.RCC_GetClocksFreq                      0x08000c44   Section        0  stm32f10x_rcc.o(i.RCC_GetClocksFreq)
    i.SVC_Handler                            0x08000d18   Section        0  stm32f10x_it.o(i.SVC_Handler)
    i.SetSysClock                            0x08000d1a   Section        0  system_stm32f10x.o(i.SetSysClock)
    SetSysClock                              0x08000d1b   Thumb Code     8  system_stm32f10x.o(i.SetSysClock)
    i.SetSysClockTo72                        0x08000d24   Section        0  system_stm32f10x.o(i.SetSysClockTo72)
    SetSysClockTo72                          0x08000d25   Thumb Code   214  system_stm32f10x.o(i.SetSysClockTo72)
    i.SysTick_Handler                        0x08000e04   Section        0  stm32f10x_it.o(i.SysTick_Handler)
    i.SystemInit                             0x08000e08   Section        0  system_stm32f10x.o(i.SystemInit)
    i.TIM2_IRQHandler                        0x08000e68   Section        0  main.o(i.TIM2_IRQHandler)
    i.TIM2_Init                              0x08000e8c   Section        0  tim.o(i.TIM2_Init)
    i.TIM3_IRQHandler                        0x08000f00   Section        0  lin_driver.o(i.TIM3_IRQHandler)
    i.TIM3_Init                              0x08000f20   Section        0  tim.o(i.TIM3_Init)
    i.TIM4_Init                              0x08000f88   Section        0  tim.o(i.TIM4_Init)
    i.TIM_ClearFlag                          0x08000ff4   Section        0  stm32f10x_tim.o(i.TIM_ClearFlag)
    i.TIM_ClearITPendingBit                  0x08000ffa   Section        0  stm32f10x_tim.o(i.TIM_ClearITPendingBit)
    i.TIM_Cmd                                0x08001000   Section        0  stm32f10x_tim.o(i.TIM_Cmd)
    i.TIM_GetITStatus                        0x08001018   Section        0  stm32f10x_tim.o(i.TIM_GetITStatus)
    i.TIM_ITConfig                           0x0800103a   Section        0  stm32f10x_tim.o(i.TIM_ITConfig)
    i.TIM_InternalClockConfig                0x0800104c   Section        0  stm32f10x_tim.o(i.TIM_InternalClockConfig)
    i.TIM_TimeBaseInit                       0x08001058   Section        0  stm32f10x_tim.o(i.TIM_TimeBaseInit)
    i.USART1_IRQHandler                      0x080010fc   Section        0  lin_driver.o(i.USART1_IRQHandler)
    i.USART1_Init                            0x080011a0   Section        0  usart.o(i.USART1_Init)
    i.USART2_IRQHandler                      0x08001264   Section        0  usart.o(i.USART2_IRQHandler)
    i.USART2_Init                            0x08001294   Section        0  usart.o(i.USART2_Init)
    i.USART_ClearITPendingBit                0x0800133c   Section        0  stm32f10x_usart.o(i.USART_ClearITPendingBit)
    i.USART_Cmd                              0x0800135a   Section        0  stm32f10x_usart.o(i.USART_Cmd)
    i.USART_GetFlagStatus                    0x08001372   Section        0  stm32f10x_usart.o(i.USART_GetFlagStatus)
    i.USART_GetITStatus                      0x0800138c   Section        0  stm32f10x_usart.o(i.USART_GetITStatus)
    i.USART_ITConfig                         0x080013e0   Section        0  stm32f10x_usart.o(i.USART_ITConfig)
    i.USART_Init                             0x0800142c   Section        0  stm32f10x_usart.o(i.USART_Init)
    i.USART_LINBreakDetectLengthConfig       0x08001504   Section        0  stm32f10x_usart.o(i.USART_LINBreakDetectLengthConfig)
    i.USART_LINCmd                           0x08001516   Section        0  stm32f10x_usart.o(i.USART_LINCmd)
    i.USART_ReceiveData                      0x0800152e   Section        0  stm32f10x_usart.o(i.USART_ReceiveData)
    i.USART_SendBreak                        0x08001538   Section        0  stm32f10x_usart.o(i.USART_SendBreak)
    i.USART_SendData                         0x08001542   Section        0  stm32f10x_usart.o(i.USART_SendData)
    i.UsageFault_Handler                     0x0800154a   Section        0  stm32f10x_it.o(i.UsageFault_Handler)
    i.Wiper_Drive                            0x08001550   Section        0  main.o(i.Wiper_Drive)
    i.__scatterload_copy                     0x08001760   Section       14  handlers.o(i.__scatterload_copy)
    i.__scatterload_null                     0x0800176e   Section        2  handlers.o(i.__scatterload_null)
    i.__scatterload_zeroinit                 0x08001770   Section       14  handlers.o(i.__scatterload_zeroinit)
    i.free                                   0x08001780   Section        0  malloc.o(i.free)
    i.main                                   0x080017d0   Section        0  main.o(i.main)
    i.malloc                                 0x0800184c   Section        0  malloc.o(i.malloc)
    .constdata                               0x080018b8   Section     1520  oled.o(.constdata)
    .data                                    0x20000000   Section       20  stm32f10x_rcc.o(.data)
    APBAHBPrescTable                         0x20000000   Data          16  stm32f10x_rcc.o(.data)
    ADCPrescTable                            0x20000010   Data           4  stm32f10x_rcc.o(.data)
    .data                                    0x20000014   Section        6  lin_driver.o(.data)
    bitCounter                               0x20000019   Data           1  lin_driver.o(.data)
    .data                                    0x2000001a   Section        1  usart.o(.data)
    .data                                    0x2000001c   Section       29  main.o(.data)
    LIN_SendFlg                              0x20000030   Data           1  main.o(.data)
    Num                                      0x20000032   Data           2  main.o(.data)
    Auto_Resetflg                            0x20000034   Data           1  main.o(.data)
    Auto_Resetflg2                           0x20000035   Data           1  main.o(.data)
    TimOut                                   0x20000036   Data           1  main.o(.data)
    temp                                     0x20000037   Data           1  main.o(.data)
    Turnflg                                  0x20000038   Data           1  main.o(.data)
    .data                                    0x2000003c   Section        4  mvars.o(.data)
    .data                                    0x20000040   Section        4  mvars.o(.data)
    .bss                                     0x20000044   Section     1864  lin_driver.o(.bss)
    HEAP                                     0x20000790   Section      512  startup_stm32f10x_md.o(HEAP)
    STACK                                    0x20000990   Section     1024  startup_stm32f10x_md.o(STACK)

    Global Symbols

    Symbol Name                              Value     Ov Type        Size  Object(Section)

    BuildAttributes$$THM_ISAv4$P$D$K$B$S$PE$A:L22UL41UL21$X:L11$S22US41US21$IEEE1$IW$USESV6$~STKCKD$USESV7$~SHL$OSPACE$EBA8$MICROLIB$REQ8$PRES8$EABIv2 0x00000000   Number         0  anon$$obj.o ABSOLUTE
    __ARM_use_no_argv                        0x00000000   Number         0  main.o ABSOLUTE
    __arm_fini_                               - Undefined Weak Reference
    __cpp_initialize__aeabi_                  - Undefined Weak Reference
    __cxa_finalize                            - Undefined Weak Reference
    __decompress                              - Undefined Weak Reference
    _clock_init                               - Undefined Weak Reference
    _microlib_exit                            - Undefined Weak Reference
    __Vectors_Size                           0x000000ec   Number         0  startup_stm32f10x_md.o ABSOLUTE
    __Vectors                                0x08000000   Data           4  startup_stm32f10x_md.o(RESET)
    __Vectors_End                            0x080000ec   Data           0  startup_stm32f10x_md.o(RESET)
    __main                                   0x080000ed   Thumb Code     0  entry.o(.ARM.Collect$$$$00000000)
    _main_stk                                0x080000ed   Thumb Code     0  entry2.o(.ARM.Collect$$$$00000001)
    _main_scatterload                        0x080000f1   Thumb Code     0  entry5.o(.ARM.Collect$$$$00000004)
    __main_after_scatterload                 0x080000f5   Thumb Code     0  entry5.o(.ARM.Collect$$$$00000004)
    _main_clock                              0x080000f5   Thumb Code     0  entry7b.o(.ARM.Collect$$$$00000008)
    _main_cpp_init                           0x080000f5   Thumb Code     0  entry8b.o(.ARM.Collect$$$$0000000A)
    _main_init                               0x080000f5   Thumb Code     0  entry9a.o(.ARM.Collect$$$$0000000B)
    __rt_lib_shutdown_fini                   0x080000fd   Thumb Code     0  entry12b.o(.ARM.Collect$$$$0000000E)
    __rt_final_cpp                           0x08000101   Thumb Code     0  entry10a.o(.ARM.Collect$$$$0000000F)
    __rt_final_exit                          0x08000101   Thumb Code     0  entry11a.o(.ARM.Collect$$$$00000011)
    Reset_Handler                            0x08000105   Thumb Code     8  startup_stm32f10x_md.o(.text)
    ADC1_2_IRQHandler                        0x0800011f   Thumb Code     0  startup_stm32f10x_md.o(.text)
    CAN1_RX1_IRQHandler                      0x0800011f   Thumb Code     0  startup_stm32f10x_md.o(.text)
    CAN1_SCE_IRQHandler                      0x0800011f   Thumb Code     0  startup_stm32f10x_md.o(.text)
    DMA1_Channel1_IRQHandler                 0x0800011f   Thumb Code     0  startup_stm32f10x_md.o(.text)
    DMA1_Channel2_IRQHandler                 0x0800011f   Thumb Code     0  startup_stm32f10x_md.o(.text)
    DMA1_Channel3_IRQHandler                 0x0800011f   Thumb Code     0  startup_stm32f10x_md.o(.text)
    DMA1_Channel4_IRQHandler                 0x0800011f   Thumb Code     0  startup_stm32f10x_md.o(.text)
    DMA1_Channel5_IRQHandler                 0x0800011f   Thumb Code     0  startup_stm32f10x_md.o(.text)
    DMA1_Channel6_IRQHandler                 0x0800011f   Thumb Code     0  startup_stm32f10x_md.o(.text)
    DMA1_Channel7_IRQHandler                 0x0800011f   Thumb Code     0  startup_stm32f10x_md.o(.text)
    EXTI0_IRQHandler                         0x0800011f   Thumb Code     0  startup_stm32f10x_md.o(.text)
    EXTI15_10_IRQHandler                     0x0800011f   Thumb Code     0  startup_stm32f10x_md.o(.text)
    EXTI1_IRQHandler                         0x0800011f   Thumb Code     0  startup_stm32f10x_md.o(.text)
    EXTI2_IRQHandler                         0x0800011f   Thumb Code     0  startup_stm32f10x_md.o(.text)
    EXTI3_IRQHandler                         0x0800011f   Thumb Code     0  startup_stm32f10x_md.o(.text)
    EXTI4_IRQHandler                         0x0800011f   Thumb Code     0  startup_stm32f10x_md.o(.text)
    EXTI9_5_IRQHandler                       0x0800011f   Thumb Code     0  startup_stm32f10x_md.o(.text)
    FLASH_IRQHandler                         0x0800011f   Thumb Code     0  startup_stm32f10x_md.o(.text)
    I2C1_ER_IRQHandler                       0x0800011f   Thumb Code     0  startup_stm32f10x_md.o(.text)
    I2C1_EV_IRQHandler                       0x0800011f   Thumb Code     0  startup_stm32f10x_md.o(.text)
    I2C2_ER_IRQHandler                       0x0800011f   Thumb Code     0  startup_stm32f10x_md.o(.text)
    I2C2_EV_IRQHandler                       0x0800011f   Thumb Code     0  startup_stm32f10x_md.o(.text)
    PVD_IRQHandler                           0x0800011f   Thumb Code     0  startup_stm32f10x_md.o(.text)
    RCC_IRQHandler                           0x0800011f   Thumb Code     0  startup_stm32f10x_md.o(.text)
    RTCAlarm_IRQHandler                      0x0800011f   Thumb Code     0  startup_stm32f10x_md.o(.text)
    RTC_IRQHandler                           0x0800011f   Thumb Code     0  startup_stm32f10x_md.o(.text)
    SPI1_IRQHandler                          0x0800011f   Thumb Code     0  startup_stm32f10x_md.o(.text)
    SPI2_IRQHandler                          0x0800011f   Thumb Code     0  startup_stm32f10x_md.o(.text)
    TAMPER_IRQHandler                        0x0800011f   Thumb Code     0  startup_stm32f10x_md.o(.text)
    TIM1_BRK_IRQHandler                      0x0800011f   Thumb Code     0  startup_stm32f10x_md.o(.text)
    TIM1_CC_IRQHandler                       0x0800011f   Thumb Code     0  startup_stm32f10x_md.o(.text)
    TIM1_TRG_COM_IRQHandler                  0x0800011f   Thumb Code     0  startup_stm32f10x_md.o(.text)
    TIM1_UP_IRQHandler                       0x0800011f   Thumb Code     0  startup_stm32f10x_md.o(.text)
    TIM4_IRQHandler                          0x0800011f   Thumb Code     0  startup_stm32f10x_md.o(.text)
    USART3_IRQHandler                        0x0800011f   Thumb Code     0  startup_stm32f10x_md.o(.text)
    USBWakeUp_IRQHandler                     0x0800011f   Thumb Code     0  startup_stm32f10x_md.o(.text)
    USB_HP_CAN1_TX_IRQHandler                0x0800011f   Thumb Code     0  startup_stm32f10x_md.o(.text)
    USB_LP_CAN1_RX0_IRQHandler               0x0800011f   Thumb Code     0  startup_stm32f10x_md.o(.text)
    WWDG_IRQHandler                          0x0800011f   Thumb Code     0  startup_stm32f10x_md.o(.text)
    __scatterload                            0x08000129   Thumb Code    28  init.o(.text)
    __scatterload_rt2                        0x08000129   Thumb Code     0  init.o(.text)
    BusFault_Handler                         0x0800014d   Thumb Code     4  stm32f10x_it.o(i.BusFault_Handler)
    DebugMon_Handler                         0x08000151   Thumb Code     2  stm32f10x_it.o(i.DebugMon_Handler)
    GPIO_Init                                0x08000153   Thumb Code   278  stm32f10x_gpio.o(i.GPIO_Init)
    GPIO_SetBits                             0x08000269   Thumb Code     4  stm32f10x_gpio.o(i.GPIO_SetBits)
    GPIO_WriteBit                            0x0800026d   Thumb Code    10  stm32f10x_gpio.o(i.GPIO_WriteBit)
    HardFault_Handler                        0x08000277   Thumb Code     4  stm32f10x_it.o(i.HardFault_Handler)
    Key_Init                                 0x080002d9   Thumb Code    92  key.o(i.Key_Init)
    LED_Init                                 0x0800033d   Thumb Code    80  led.o(i.LED_Init)
    LIN_ErrorCode                            0x08000395   Thumb Code    98  lin_driver.o(i.LIN_ErrorCode)
    LIN_GetChecksum                          0x08000441   Thumb Code    52  lin_driver.o(i.LIN_GetChecksum)
    LIN_GetPID                               0x08000475   Thumb Code    56  lin_driver.o(i.LIN_GetPID)
    LIN_IDTypeConfig                         0x080004dd   Thumb Code    16  main.o(i.LIN_IDTypeConfig)
    LIN_MasterRxMsg                          0x080004f1   Thumb Code   154  lin_driver.o(i.LIN_MasterRxMsg)
    LIN_Process                              0x080005a1   Thumb Code   128  lin_driver.o(i.LIN_Process)
    LIN_RingBUF_ClearRxMsg                   0x08000625   Thumb Code    24  lin_buffer.o(i.LIN_RingBUF_ClearRxMsg)
    LIN_RingBUF_GetMsg                       0x0800063d   Thumb Code    18  lin_buffer.o(i.LIN_RingBUF_GetMsg)
    LIN_RingBUF_Read                         0x0800064f   Thumb Code    84  lin_buffer.o(i.LIN_RingBUF_Read)
    LIN_RingBUF_Write                        0x080006a3   Thumb Code    54  lin_buffer.o(i.LIN_RingBUF_Write)
    LIN_SendBreak                            0x080006d9   Thumb Code    12  lin_driver.o(i.LIN_SendBreak)
    LIN_SendBytes                            0x080006e5   Thumb Code    64  lin_driver.o(i.LIN_SendBytes)
    LIN_SendMsg                              0x08000725   Thumb Code   216  lin_driver.o(i.LIN_SendMsg)
    LIN_TimOutCmd                            0x08000809   Thumb Code    16  lin_driver.o(i.LIN_TimOutCmd)
    LIN_TimeProcess                          0x08000819   Thumb Code    82  lin_driver.o(i.LIN_TimeProcess)
    MemManage_Handler                        0x08000885   Thumb Code     4  stm32f10x_it.o(i.MemManage_Handler)
    NMI_Handler                              0x08000889   Thumb Code     2  stm32f10x_it.o(i.NMI_Handler)
    NVIC_Init                                0x0800088d   Thumb Code   100  misc.o(i.NVIC_Init)
    NVIC_PriorityGroupConfig                 0x080008fd   Thumb Code    10  misc.o(i.NVIC_PriorityGroupConfig)
    OLED_Clear                               0x08000911   Thumb Code    42  oled.o(i.OLED_Clear)
    OLED_I2C_Init                            0x0800093d   Thumb Code    76  oled.o(i.OLED_I2C_Init)
    OLED_I2C_SendByte                        0x0800098d   Thumb Code    80  oled.o(i.OLED_I2C_SendByte)
    OLED_I2C_Start                           0x080009e1   Thumb Code    48  oled.o(i.OLED_I2C_Start)
    OLED_I2C_Stop                            0x08000a15   Thumb Code    36  oled.o(i.OLED_I2C_Stop)
    OLED_Init                                0x08000a3d   Thumb Code   174  oled.o(i.OLED_Init)
    OLED_SetCursor                           0x08000aeb   Thumb Code    34  oled.o(i.OLED_SetCursor)
    OLED_ShowChar                            0x08000b0d   Thumb Code   110  oled.o(i.OLED_ShowChar)
    OLED_ShowString                          0x08000b99   Thumb Code    40  oled.o(i.OLED_ShowString)
    OLED_WriteCommand                        0x08000bc1   Thumb Code    32  oled.o(i.OLED_WriteCommand)
    OLED_WriteData                           0x08000be1   Thumb Code    32  oled.o(i.OLED_WriteData)
    PendSV_Handler                           0x08000c01   Thumb Code     2  stm32f10x_it.o(i.PendSV_Handler)
    RCC_APB1PeriphClockCmd                   0x08000c05   Thumb Code    26  stm32f10x_rcc.o(i.RCC_APB1PeriphClockCmd)
    RCC_APB2PeriphClockCmd                   0x08000c25   Thumb Code    26  stm32f10x_rcc.o(i.RCC_APB2PeriphClockCmd)
    RCC_GetClocksFreq                        0x08000c45   Thumb Code   192  stm32f10x_rcc.o(i.RCC_GetClocksFreq)
    SVC_Handler                              0x08000d19   Thumb Code     2  stm32f10x_it.o(i.SVC_Handler)
    SysTick_Handler                          0x08000e05   Thumb Code     2  stm32f10x_it.o(i.SysTick_Handler)
    SystemInit                               0x08000e09   Thumb Code    78  system_stm32f10x.o(i.SystemInit)
    TIM2_IRQHandler                          0x08000e69   Thumb Code    32  main.o(i.TIM2_IRQHandler)
    TIM2_Init                                0x08000e8d   Thumb Code   114  tim.o(i.TIM2_Init)
    TIM3_IRQHandler                          0x08000f01   Thumb Code    28  lin_driver.o(i.TIM3_IRQHandler)
    TIM3_Init                                0x08000f21   Thumb Code   100  tim.o(i.TIM3_Init)
    TIM4_Init                                0x08000f89   Thumb Code   104  tim.o(i.TIM4_Init)
    TIM_ClearFlag                            0x08000ff5   Thumb Code     6  stm32f10x_tim.o(i.TIM_ClearFlag)
    TIM_ClearITPendingBit                    0x08000ffb   Thumb Code     6  stm32f10x_tim.o(i.TIM_ClearITPendingBit)
    TIM_Cmd                                  0x08001001   Thumb Code    24  stm32f10x_tim.o(i.TIM_Cmd)
    TIM_GetITStatus                          0x08001019   Thumb Code    34  stm32f10x_tim.o(i.TIM_GetITStatus)
    TIM_ITConfig                             0x0800103b   Thumb Code    18  stm32f10x_tim.o(i.TIM_ITConfig)
    TIM_InternalClockConfig                  0x0800104d   Thumb Code    12  stm32f10x_tim.o(i.TIM_InternalClockConfig)
    TIM_TimeBaseInit                         0x08001059   Thumb Code   122  stm32f10x_tim.o(i.TIM_TimeBaseInit)
    USART1_IRQHandler                        0x080010fd   Thumb Code   142  lin_driver.o(i.USART1_IRQHandler)
    USART1_Init                              0x080011a1   Thumb Code   188  usart.o(i.USART1_Init)
    USART2_IRQHandler                        0x08001265   Thumb Code    38  usart.o(i.USART2_IRQHandler)
    USART2_Init                              0x08001295   Thumb Code   160  usart.o(i.USART2_Init)
    USART_ClearITPendingBit                  0x0800133d   Thumb Code    30  stm32f10x_usart.o(i.USART_ClearITPendingBit)
    USART_Cmd                                0x0800135b   Thumb Code    24  stm32f10x_usart.o(i.USART_Cmd)
    USART_GetFlagStatus                      0x08001373   Thumb Code    26  stm32f10x_usart.o(i.USART_GetFlagStatus)
    USART_GetITStatus                        0x0800138d   Thumb Code    84  stm32f10x_usart.o(i.USART_GetITStatus)
    USART_ITConfig                           0x080013e1   Thumb Code    74  stm32f10x_usart.o(i.USART_ITConfig)
    USART_Init                               0x0800142d   Thumb Code   210  stm32f10x_usart.o(i.USART_Init)
    USART_LINBreakDetectLengthConfig         0x08001505   Thumb Code    18  stm32f10x_usart.o(i.USART_LINBreakDetectLengthConfig)
    USART_LINCmd                             0x08001517   Thumb Code    24  stm32f10x_usart.o(i.USART_LINCmd)
    USART_ReceiveData                        0x0800152f   Thumb Code    10  stm32f10x_usart.o(i.USART_ReceiveData)
    USART_SendBreak                          0x08001539   Thumb Code    10  stm32f10x_usart.o(i.USART_SendBreak)
    USART_SendData                           0x08001543   Thumb Code     8  stm32f10x_usart.o(i.USART_SendData)
    UsageFault_Handler                       0x0800154b   Thumb Code     4  stm32f10x_it.o(i.UsageFault_Handler)
    Wiper_Drive                              0x08001551   Thumb Code   502  main.o(i.Wiper_Drive)
    __scatterload_copy                       0x08001761   Thumb Code    14  handlers.o(i.__scatterload_copy)
    __scatterload_null                       0x0800176f   Thumb Code     2  handlers.o(i.__scatterload_null)
    __scatterload_zeroinit                   0x08001771   Thumb Code    14  handlers.o(i.__scatterload_zeroinit)
    free                                     0x08001781   Thumb Code    76  malloc.o(i.free)
    main                                     0x080017d1   Thumb Code   100  main.o(i.main)
    malloc                                   0x0800184d   Thumb Code    92  malloc.o(i.malloc)
    OLED_F8x16                               0x080018b8   Data        1520  oled.o(.constdata)
    Region$$Table$$Base                      0x08001ea8   Number         0  anon$$obj.o(Region$$Table)
    Region$$Table$$Limit                     0x08001ec8   Number         0  anon$$obj.o(Region$$Table)
    LIN_RX_TimOut                            0x20000014   Data           4  lin_driver.o(.data)
    LIN_RxStateGet                           0x20000018   Data           1  lin_driver.o(.data)
    WiperCondata                             0x2000001a   Data           1  usart.o(.data)
    pSignalMsg                               0x2000001c   Data           4  main.o(.data)
    pWiperMsg                                0x20000020   Data           4  main.o(.data)
    LIN_Err                                  0x20000024   Data           1  main.o(.data)
    Temp                                     0x20000028   Data           4  main.o(.data)
    Temp2                                    0x2000002c   Data           4  main.o(.data)
    __microlib_freelist                      0x2000003c   Data           4  mvars.o(.data)
    __microlib_freelist_initialised          0x20000040   Data           4  mvars.o(.data)
    LINRxDataBuf                             0x20000044   Data         896  lin_driver.o(.bss)
    FrameIDType                              0x200003c4   Data          64  lin_driver.o(.bss)
    LIN_RxDataBuff                           0x20000404   Data         904  lin_driver.o(.bss)
    __heap_base                              0x20000790   Data           0  startup_stm32f10x_md.o(HEAP)
    __heap_limit                             0x20000990   Data           0  startup_stm32f10x_md.o(HEAP)
    __initial_sp                             0x20000d90   Data           0  startup_stm32f10x_md.o(STACK)



==============================================================================

Memory Map of the image

  Image Entry point : 0x080000ed

  Load Region LR_IROM1 (Base: 0x08000000, Size: 0x00001f0c, Max: 0x00010000, ABSOLUTE)

    Execution Region ER_IROM1 (Exec base: 0x08000000, Load base: 0x08000000, Size: 0x00001ec8, Max: 0x00010000, ABSOLUTE)

    Exec Addr    Load Addr    Size         Type   Attr      Idx    E Section Name        Object

    0x08000000   0x08000000   0x000000ec   Data   RO         3069    RESET               startup_stm32f10x_md.o
    0x080000ec   0x080000ec   0x00000000   Code   RO         3737  * .ARM.Collect$$$$00000000  mc_w.l(entry.o)
    0x080000ec   0x080000ec   0x00000004   Code   RO         3768    .ARM.Collect$$$$00000001  mc_w.l(entry2.o)
    0x080000f0   0x080000f0   0x00000004   Code   RO         3771    .ARM.Collect$$$$00000004  mc_w.l(entry5.o)
    0x080000f4   0x080000f4   0x00000000   Code   RO         3773    .ARM.Collect$$$$00000008  mc_w.l(entry7b.o)
    0x080000f4   0x080000f4   0x00000000   Code   RO         3775    .ARM.Collect$$$$0000000A  mc_w.l(entry8b.o)
    0x080000f4   0x080000f4   0x00000008   Code   RO         3776    .ARM.Collect$$$$0000000B  mc_w.l(entry9a.o)
    0x080000fc   0x080000fc   0x00000004   Code   RO         3783    .ARM.Collect$$$$0000000E  mc_w.l(entry12b.o)
    0x08000100   0x08000100   0x00000000   Code   RO         3778    .ARM.Collect$$$$0000000F  mc_w.l(entry10a.o)
    0x08000100   0x08000100   0x00000000   Code   RO         3780    .ARM.Collect$$$$00000011  mc_w.l(entry11a.o)
    0x08000100   0x08000100   0x00000004   Code   RO         3769    .ARM.Collect$$$$00002712  mc_w.l(entry2.o)
    0x08000104   0x08000104   0x00000024   Code   RO         3070    .text               startup_stm32f10x_md.o
    0x08000128   0x08000128   0x00000024   Code   RO         3790    .text               mc_w.l(init.o)
    0x0800014c   0x0800014c   0x00000004   Code   RO         3613    i.BusFault_Handler  stm32f10x_it.o
    0x08000150   0x08000150   0x00000002   Code   RO         3614    i.DebugMon_Handler  stm32f10x_it.o
    0x08000152   0x08000152   0x00000116   Code   RO         1240    i.GPIO_Init         stm32f10x_gpio.o
    0x08000268   0x08000268   0x00000004   Code   RO         1248    i.GPIO_SetBits      stm32f10x_gpio.o
    0x0800026c   0x0800026c   0x0000000a   Code   RO         1251    i.GPIO_WriteBit     stm32f10x_gpio.o
    0x08000276   0x08000276   0x00000004   Code   RO         3615    i.HardFault_Handler  stm32f10x_it.o
    0x0800027a   0x0800027a   0x00000002   PAD
    0x0800027c   0x0800027c   0x0000005c   Code   RO         3676    i.HardWareInit      main.o
    0x080002d8   0x080002d8   0x00000064   Code   RO         3275    i.Key_Init          key.o
    0x0800033c   0x0800033c   0x00000058   Code   RO         3301    i.LED_Init          led.o
    0x08000394   0x08000394   0x000000ac   Code   RO         3486    i.LIN_ErrorCode     lin_driver.o
    0x08000440   0x08000440   0x00000034   Code   RO         3487    i.LIN_GetChecksum   lin_driver.o
    0x08000474   0x08000474   0x00000038   Code   RO         3488    i.LIN_GetPID        lin_driver.o
    0x080004ac   0x080004ac   0x00000030   Code   RO         3677    i.LIN_GetSendFlg    main.o
    0x080004dc   0x080004dc   0x00000014   Code   RO         3678    i.LIN_IDTypeConfig  main.o
    0x080004f0   0x080004f0   0x000000b0   Code   RO         3489    i.LIN_MasterRxMsg   lin_driver.o
    0x080005a0   0x080005a0   0x00000084   Code   RO         3490    i.LIN_Process       lin_driver.o
    0x08000624   0x08000624   0x00000018   Code   RO         3433    i.LIN_RingBUF_ClearRxMsg  lin_buffer.o
    0x0800063c   0x0800063c   0x00000012   Code   RO         3434    i.LIN_RingBUF_GetMsg  lin_buffer.o
    0x0800064e   0x0800064e   0x00000054   Code   RO         3436    i.LIN_RingBUF_Read  lin_buffer.o
    0x080006a2   0x080006a2   0x00000036   Code   RO         3438    i.LIN_RingBUF_Write  lin_buffer.o
    0x080006d8   0x080006d8   0x0000000c   Code   RO         3491    i.LIN_SendBreak     lin_driver.o
    0x080006e4   0x080006e4   0x00000040   Code   RO         3492    i.LIN_SendBytes     lin_driver.o
    0x08000724   0x08000724   0x000000e4   Code   RO         3493    i.LIN_SendMsg       lin_driver.o
    0x08000808   0x08000808   0x00000010   Code   RO         3494    i.LIN_TimOutCmd     lin_driver.o
    0x08000818   0x08000818   0x0000006c   Code   RO         3495    i.LIN_TimeProcess   lin_driver.o
    0x08000884   0x08000884   0x00000004   Code   RO         3616    i.MemManage_Handler  stm32f10x_it.o
    0x08000888   0x08000888   0x00000002   Code   RO         3617    i.NMI_Handler       stm32f10x_it.o
    0x0800088a   0x0800088a   0x00000002   PAD
    0x0800088c   0x0800088c   0x00000070   Code   RO            1    i.NVIC_Init         misc.o
    0x080008fc   0x080008fc   0x00000014   Code   RO            2    i.NVIC_PriorityGroupConfig  misc.o
    0x08000910   0x08000910   0x0000002a   Code   RO         3325    i.OLED_Clear        oled.o
    0x0800093a   0x0800093a   0x00000002   PAD
    0x0800093c   0x0800093c   0x00000050   Code   RO         3326    i.OLED_I2C_Init     oled.o
    0x0800098c   0x0800098c   0x00000054   Code   RO         3327    i.OLED_I2C_SendByte  oled.o
    0x080009e0   0x080009e0   0x00000034   Code   RO         3328    i.OLED_I2C_Start    oled.o
    0x08000a14   0x08000a14   0x00000028   Code   RO         3329    i.OLED_I2C_Stop     oled.o
    0x08000a3c   0x08000a3c   0x000000ae   Code   RO         3330    i.OLED_Init         oled.o
    0x08000aea   0x08000aea   0x00000022   Code   RO         3332    i.OLED_SetCursor    oled.o
    0x08000b0c   0x08000b0c   0x00000074   Code   RO         3334    i.OLED_ShowChar     oled.o
    0x08000b80   0x08000b80   0x00000018   Code   RO         3681    i.OLED_ShowInit     main.o
    0x08000b98   0x08000b98   0x00000028   Code   RO         3338    i.OLED_ShowString   oled.o
    0x08000bc0   0x08000bc0   0x00000020   Code   RO         3339    i.OLED_WriteCommand  oled.o
    0x08000be0   0x08000be0   0x00000020   Code   RO         3340    i.OLED_WriteData    oled.o
    0x08000c00   0x08000c00   0x00000002   Code   RO         3618    i.PendSV_Handler    stm32f10x_it.o
    0x08000c02   0x08000c02   0x00000002   PAD
    0x08000c04   0x08000c04   0x00000020   Code   RO         1656    i.RCC_APB1PeriphClockCmd  stm32f10x_rcc.o
    0x08000c24   0x08000c24   0x00000020   Code   RO         1658    i.RCC_APB2PeriphClockCmd  stm32f10x_rcc.o
    0x08000c44   0x08000c44   0x000000d4   Code   RO         1666    i.RCC_GetClocksFreq  stm32f10x_rcc.o
    0x08000d18   0x08000d18   0x00000002   Code   RO         3619    i.SVC_Handler       stm32f10x_it.o
    0x08000d1a   0x08000d1a   0x00000008   Code   RO         3074    i.SetSysClock       system_stm32f10x.o
    0x08000d22   0x08000d22   0x00000002   PAD
    0x08000d24   0x08000d24   0x000000e0   Code   RO         3075    i.SetSysClockTo72   system_stm32f10x.o
    0x08000e04   0x08000e04   0x00000002   Code   RO         3620    i.SysTick_Handler   stm32f10x_it.o
    0x08000e06   0x08000e06   0x00000002   PAD
    0x08000e08   0x08000e08   0x00000060   Code   RO         3077    i.SystemInit        system_stm32f10x.o
    0x08000e68   0x08000e68   0x00000024   Code   RO         3682    i.TIM2_IRQHandler   main.o
    0x08000e8c   0x08000e8c   0x00000072   Code   RO         3250    i.TIM2_Init         tim.o
    0x08000efe   0x08000efe   0x00000002   PAD
    0x08000f00   0x08000f00   0x00000020   Code   RO         3496    i.TIM3_IRQHandler   lin_driver.o
    0x08000f20   0x08000f20   0x00000068   Code   RO         3251    i.TIM3_Init         tim.o
    0x08000f88   0x08000f88   0x0000006c   Code   RO         3252    i.TIM4_Init         tim.o
    0x08000ff4   0x08000ff4   0x00000006   Code   RO         2284    i.TIM_ClearFlag     stm32f10x_tim.o
    0x08000ffa   0x08000ffa   0x00000006   Code   RO         2285    i.TIM_ClearITPendingBit  stm32f10x_tim.o
    0x08001000   0x08001000   0x00000018   Code   RO         2290    i.TIM_Cmd           stm32f10x_tim.o
    0x08001018   0x08001018   0x00000022   Code   RO         2311    i.TIM_GetITStatus   stm32f10x_tim.o
    0x0800103a   0x0800103a   0x00000012   Code   RO         2315    i.TIM_ITConfig      stm32f10x_tim.o
    0x0800104c   0x0800104c   0x0000000c   Code   RO         2317    i.TIM_InternalClockConfig  stm32f10x_tim.o
    0x08001058   0x08001058   0x000000a4   Code   RO         2361    i.TIM_TimeBaseInit  stm32f10x_tim.o
    0x080010fc   0x080010fc   0x000000a4   Code   RO         3497    i.USART1_IRQHandler  lin_driver.o
    0x080011a0   0x080011a0   0x000000c4   Code   RO         3580    i.USART1_Init       usart.o
    0x08001264   0x08001264   0x00000030   Code   RO         3581    i.USART2_IRQHandler  usart.o
    0x08001294   0x08001294   0x000000a8   Code   RO         3582    i.USART2_Init       usart.o
    0x0800133c   0x0800133c   0x0000001e   Code   RO         2823    i.USART_ClearITPendingBit  stm32f10x_usart.o
    0x0800135a   0x0800135a   0x00000018   Code   RO         2826    i.USART_Cmd         stm32f10x_usart.o
    0x08001372   0x08001372   0x0000001a   Code   RO         2829    i.USART_GetFlagStatus  stm32f10x_usart.o
    0x0800138c   0x0800138c   0x00000054   Code   RO         2830    i.USART_GetITStatus  stm32f10x_usart.o
    0x080013e0   0x080013e0   0x0000004a   Code   RO         2832    i.USART_ITConfig    stm32f10x_usart.o
    0x0800142a   0x0800142a   0x00000002   PAD
    0x0800142c   0x0800142c   0x000000d8   Code   RO         2833    i.USART_Init        stm32f10x_usart.o
    0x08001504   0x08001504   0x00000012   Code   RO         2836    i.USART_LINBreakDetectLengthConfig  stm32f10x_usart.o
    0x08001516   0x08001516   0x00000018   Code   RO         2837    i.USART_LINCmd      stm32f10x_usart.o
    0x0800152e   0x0800152e   0x0000000a   Code   RO         2840    i.USART_ReceiveData  stm32f10x_usart.o
    0x08001538   0x08001538   0x0000000a   Code   RO         2842    i.USART_SendBreak   stm32f10x_usart.o
    0x08001542   0x08001542   0x00000008   Code   RO         2843    i.USART_SendData    stm32f10x_usart.o
    0x0800154a   0x0800154a   0x00000004   Code   RO         3621    i.UsageFault_Handler  stm32f10x_it.o
    0x0800154e   0x0800154e   0x00000002   PAD
    0x08001550   0x08001550   0x00000210   Code   RO         3683    i.Wiper_Drive       main.o
    0x08001760   0x08001760   0x0000000e   Code   RO         3794    i.__scatterload_copy  mc_w.l(handlers.o)
    0x0800176e   0x0800176e   0x00000002   Code   RO         3795    i.__scatterload_null  mc_w.l(handlers.o)
    0x08001770   0x08001770   0x0000000e   Code   RO         3796    i.__scatterload_zeroinit  mc_w.l(handlers.o)
    0x0800177e   0x0800177e   0x00000002   PAD
    0x08001780   0x08001780   0x00000050   Code   RO         3740    i.free              mc_w.l(malloc.o)
    0x080017d0   0x080017d0   0x0000007c   Code   RO         3684    i.main              main.o
    0x0800184c   0x0800184c   0x0000006c   Code   RO         3741    i.malloc            mc_w.l(malloc.o)
    0x080018b8   0x080018b8   0x000005f0   Data   RO         3341    .constdata          oled.o
    0x08001ea8   0x08001ea8   0x00000020   Data   RO         3792    Region$$Table       anon$$obj.o


    Execution Region RW_IRAM1 (Exec base: 0x20000000, Load base: 0x08001ec8, Size: 0x00000d90, Max: 0x00005000, ABSOLUTE)

    Exec Addr    Load Addr    Size         Type   Attr      Idx    E Section Name        Object

    0x20000000   0x08001ec8   0x00000014   Data   RW         1686    .data               stm32f10x_rcc.o
    0x20000014   0x08001edc   0x00000006   Data   RW         3499    .data               lin_driver.o
    0x2000001a   0x08001ee2   0x00000001   Data   RW         3584    .data               usart.o
    0x2000001b   0x08001ee3   0x00000001   PAD
    0x2000001c   0x08001ee4   0x0000001d   Data   RW         3685    .data               main.o
    0x20000039   0x08001f01   0x00000003   PAD
    0x2000003c   0x08001f04   0x00000004   Data   RW         3788    .data               mc_w.l(mvars.o)
    0x20000040   0x08001f08   0x00000004   Data   RW         3789    .data               mc_w.l(mvars.o)
    0x20000044        -       0x00000748   Zero   RW         3498    .bss                lin_driver.o
    0x2000078c   0x08001f0c   0x00000004   PAD
    0x20000790        -       0x00000200   Zero   RW         3068    HEAP                startup_stm32f10x_md.o
    0x20000990        -       0x00000400   Zero   RW         3067    STACK               startup_stm32f10x_md.o


==============================================================================

Image component sizes


      Code (inc. data)   RO Data    RW Data    ZI Data      Debug   Object Name

         0          0          0          0          0         32   core_cm3.o
         0          0          0          0          0     240750   delay.o
       100          8          0          0          0        483   key.o
        88          8          0          0          0        475   led.o
       180          0          0          0          0      18172   lin_buffer.o
      1212        178          0          6       1864      10058   lin_driver.o
       872        102          0         29          0       4150   main.o
       132         22          0          0          0     254087   misc.o
       726         22       1520          0          0       6231   oled.o
        36          8        236          0       1536        776   startup_stm32f10x_md.o
       292          0          0          0          0       2887   stm32f10x_gpio.o
        26          0          0          0          0       3674   stm32f10x_it.o
       276         32          0         20          0       4210   stm32f10x_rcc.o
       264         42          0          0          0       4240   stm32f10x_tim.o
       524          6          0          0          0       7931   stm32f10x_usart.o
       328         28          0          0          0       1793   system_stm32f10x.o
       326          8          0          0          0       1568   tim.o
       412         26          0          1          0       2027   usart.o

    ----------------------------------------------------------------------
      5812        490       1788         60       3404     563544   Object Totals
         0          0         32          0          0          0   (incl. Generated)
        18          0          0          4          4          0   (incl. Padding)

    ----------------------------------------------------------------------

      Code (inc. data)   RO Data    RW Data    ZI Data      Debug   Library Member Name

         0          0          0          0          0          0   entry.o
         0          0          0          0          0          0   entry10a.o
         0          0          0          0          0          0   entry11a.o
         4          0          0          0          0          0   entry12b.o
         8          4          0          0          0          0   entry2.o
         4          0          0          0          0          0   entry5.o
         0          0          0          0          0          0   entry7b.o
         0          0          0          0          0          0   entry8b.o
         8          4          0          0          0          0   entry9a.o
        30          0          0          0          0          0   handlers.o
        36          8          0          0          0         68   init.o
       188         20          0          0          0        160   malloc.o
         0          0          0          8          0          0   mvars.o

    ----------------------------------------------------------------------
       280         36          0          8          0        228   Library Totals
         2          0          0          0          0          0   (incl. Padding)

    ----------------------------------------------------------------------

      Code (inc. data)   RO Data    RW Data    ZI Data      Debug   Library Name

       278         36          0          8          0        228   mc_w.l

    ----------------------------------------------------------------------
       280         36          0          8          0        228   Library Totals

    ----------------------------------------------------------------------

==============================================================================


      Code (inc. data)   RO Data    RW Data    ZI Data      Debug   

      6092        526       1788         68       3404     559920   Grand Totals
      6092        526       1788         68       3404     559920   ELF Image Totals
      6092        526       1788         68          0          0   ROM Totals

==============================================================================

    Total RO  Size (Code + RO Data)                 7880 (   7.70kB)
    Total RW  Size (RW Data + ZI Data)              3472 (   3.39kB)
    Total ROM Size (Code + RO Data + RW Data)       7948 (   7.76kB)

==============================================================================

