Component: ARM Compiler 5.06 update 7 (build 960) Tool: armlink [4d3601]

==============================================================================

Section Cross References

    stm32f10x_adc.o(i.ADC_DeInit) refers to stm32f10x_rcc.o(i.RCC_APB2PeriphResetCmd) for RCC_APB2PeriphResetCmd
    stm32f10x_bkp.o(i.BKP_DeInit) refers to stm32f10x_rcc.o(i.RCC_BackupResetCmd) for RCC_BackupResetCmd
    stm32f10x_can.o(i.CAN_DeInit) refers to stm32f10x_rcc.o(i.RCC_APB1PeriphResetCmd) for RCC_APB1PeriphResetCmd
    stm32f10x_can.o(i.CAN_GetITStatus) refers to stm32f10x_can.o(i.CheckITStatus) for CheckITStatus
    stm32f10x_cec.o(i.CEC_DeInit) refers to stm32f10x_rcc.o(i.RCC_APB1PeriphResetCmd) for RCC_APB1PeriphResetCmd
    stm32f10x_dac.o(i.DAC_DeInit) refers to stm32f10x_rcc.o(i.RCC_APB1PeriphResetCmd) for RCC_APB1PeriphResetCmd
    stm32f10x_flash.o(i.FLASH_EnableWriteProtection) refers to stm32f10x_flash.o(i.FLASH_WaitForLastOperation) for FLASH_WaitForLastOperation
    stm32f10x_flash.o(i.FLASH_EraseAllBank1Pages) refers to stm32f10x_flash.o(i.FLASH_WaitForLastBank1Operation) for FLASH_WaitForLastBank1Operation
    stm32f10x_flash.o(i.FLASH_EraseAllPages) refers to stm32f10x_flash.o(i.FLASH_WaitForLastOperation) for FLASH_WaitForLastOperation
    stm32f10x_flash.o(i.FLASH_EraseOptionBytes) refers to stm32f10x_flash.o(i.FLASH_GetReadOutProtectionStatus) for FLASH_GetReadOutProtectionStatus
    stm32f10x_flash.o(i.FLASH_EraseOptionBytes) refers to stm32f10x_flash.o(i.FLASH_WaitForLastOperation) for FLASH_WaitForLastOperation
    stm32f10x_flash.o(i.FLASH_ErasePage) refers to stm32f10x_flash.o(i.FLASH_WaitForLastOperation) for FLASH_WaitForLastOperation
    stm32f10x_flash.o(i.FLASH_ProgramHalfWord) refers to stm32f10x_flash.o(i.FLASH_WaitForLastOperation) for FLASH_WaitForLastOperation
    stm32f10x_flash.o(i.FLASH_ProgramOptionByteData) refers to stm32f10x_flash.o(i.FLASH_WaitForLastOperation) for FLASH_WaitForLastOperation
    stm32f10x_flash.o(i.FLASH_ProgramWord) refers to stm32f10x_flash.o(i.FLASH_WaitForLastOperation) for FLASH_WaitForLastOperation
    stm32f10x_flash.o(i.FLASH_ReadOutProtection) refers to stm32f10x_flash.o(i.FLASH_WaitForLastOperation) for FLASH_WaitForLastOperation
    stm32f10x_flash.o(i.FLASH_UserOptionByteConfig) refers to stm32f10x_flash.o(i.FLASH_WaitForLastOperation) for FLASH_WaitForLastOperation
    stm32f10x_flash.o(i.FLASH_WaitForLastBank1Operation) refers to stm32f10x_flash.o(i.FLASH_GetBank1Status) for FLASH_GetBank1Status
==============================================================================

Removing Unused input sections from the image.

    Removing misc.o(i.NVIC_SetVectorTable), (20 bytes).
    Removing misc.o(i.NVIC_SystemLPConfig), (32 bytes).
    Removing misc.o(i.SysTick_CLKSourceConfig), (40 bytes).
    Removing stm32f10x_adc.o(i.ADC_AnalogWatchdogCmd), (20 bytes).
    Removing stm32f10x_adc.o(i.ADC_AnalogWatchdogSingleChannelConfig), (16 bytes).
    Removing stm32f10x_adc.o(i.ADC_AnalogWatchdogThresholdsConfig), (6 bytes).
    Removing stm32f10x_adc.o(i.ADC_AutoInjectedConvCmd), (22 bytes).
    Removing stm32f10x_adc.o(i.ADC_ClearFlag), (6 bytes).
    Removing stm32f10x_adc.o(i.ADC_ClearITPendingBit), (10 bytes).
    Removing stm32f10x_adc.o(i.ADC_Cmd), (22 bytes).
    Removing stm32f10x_adc.o(i.ADC_DMACmd), (22 bytes).
    Removing stm32f10x_adc.o(i.ADC_DeInit), (92 bytes).
    Removing stm32f10x_adc.o(i.ADC_DiscModeChannelCountConfig), (24 bytes).
    Removing stm32f10x_adc.o(i.ADC_DiscModeCmd), (22 bytes).
    Removing stm32f10x_adc.o(i.ADC_ExternalTrigConvCmd), (22 bytes).
    Removing stm32f10x_adc.o(i.ADC_ExternalTrigInjectedConvCmd), (22 bytes).
    Removing stm32f10x_adc.o(i.ADC_ExternalTrigInjectedConvConfig), (16 bytes).
    Removing stm32f10x_adc.o(i.ADC_GetCalibrationStatus), (20 bytes).
==============================================================================

Image Symbol Table

    Local Symbols

    Symbol Name                              Value     Ov Type        Size  Object(Section)

    ../clib/microlib/init/entry.s            0x00000000   Number         0  entry12b.o ABSOLUTE
    ../clib/microlib/init/entry.s            0x00000000   Number         0  entry9a.o ABSOLUTE
    ../clib/microlib/init/entry.s            0x00000000   Number         0  entry8b.o ABSOLUTE
    ../clib/microlib/init/entry.s            0x00000000   Number         0  entry8a.o ABSOLUTE
    ../clib/microlib/init/entry.s            0x00000000   Number         0  entry7b.o ABSOLUTE
    ../clib/microlib/init/entry.s            0x00000000   Number         0  entry5.o ABSOLUTE
    ../clib/microlib/init/entry.s            0x00000000   Number         0  entry7a.o ABSOLUTE
    ../clib/microlib/init/entry.s            0x00000000   Number         0  entry12a.o ABSOLUTE
    ../clib/microlib/init/entry.s            0x00000000   Number         0  entry11b.o ABSOLUTE
    ../clib/microlib/init/entry.s            0x00000000   Number         0  entry11a.o ABSOLUTE
    ../clib/microlib/init/entry.s            0x00000000   Number         0  entry10b.o ABSOLUTE
    ../clib/microlib/init/entry.s            0x00000000   Number         0  entry10a.o ABSOLUTE
    ../clib/microlib/init/entry.s            0x00000000   Number         0  entry2.o ABSOLUTE
    ../clib/microlib/init/entry.s            0x00000000   Number         0  entry.o ABSOLUTE
    ../clib/microlib/init/entry.s            0x00000000   Number         0  entry9b.o ABSOLUTE
    ../clib/microlib/malloc/malloc.c         0x00000000   Number         0  malloca.o ABSOLUTE
    ../clib/microlib/malloc/malloc.c         0x00000000   Number         0  mallocra.o ABSOLUTE
    ../clib/microlib/malloc/malloc.c         0x00000000   Number         0  malloc.o ABSOLUTE
    ../clib/microlib/malloc/malloc.c         0x00000000   Number         0  mallocr.o ABSOLUTE
    ../clib/microlib/malloc/mvars.c          0x00000000   Number         0  mvars.o ABSOLUTE
    ../clib/microlib/string/memcpy.c         0x00000000   Number         0  memcpyb.o ABSOLUTE
    ../clib/microlib/string/memcpy.c         0x00000000   Number         0  memcpya.o ABSOLUTE
    ..\Hardware\Key.c                        0x00000000   Number         0  key.o ABSOLUTE
    ..\Hardware\LED.c                        0x00000000   Number         0  led.o ABSOLUTE
    ..\Hardware\OLED.c                       0x00000000   Number         0  oled.o ABSOLUTE
    ..\Hardware\USART.c                      0x00000000   Number         0  usart.o ABSOLUTE
    ..\Hardware\lin_buffer.c                 0x00000000   Number         0  lin_buffer.o ABSOLUTE
    ..\Hardware\lin_driver.c                 0x00000000   Number         0  lin_driver.o ABSOLUTE
    ..\Library\misc.c                        0x00000000   Number         0  misc.o ABSOLUTE
    ..\Library\stm32f10x_adc.c               0x00000000   Number         0  stm32f10x_adc.o ABSOLUTE
    ..\Library\stm32f10x_bkp.c               0x00000000   Number         0  stm32f10x_bkp.o ABSOLUTE
    ..\Library\stm32f10x_can.c               0x00000000   Number         0  stm32f10x_can.o ABSOLUTE
    ..\Library\stm32f10x_cec.c               0x00000000   Number         0  stm32f10x_cec.o ABSOLUTE
    ..\Library\stm32f10x_crc.c               0x00000000   Number         0  stm32f10x_crc.o ABSOLUTE
    ..\Library\stm32f10x_dac.c               0x00000000   Number         0  stm32f10x_dac.o ABSOLUTE
    ..\Library\stm32f10x_dbgmcu.c            0x00000000   Number         0  stm32f10x_dbgmcu.o ABSOLUTE
    ..\Library\stm32f10x_dma.c               0x00000000   Number         0  stm32f10x_dma.o ABSOLUTE
    ..\Library\stm32f10x_exti.c              0x00000000   Number         0  stm32f10x_exti.o ABSOLUTE
    ..\Library\stm32f10x_flash.c             0x00000000   Number         0  stm32f10x_flash.o ABSOLUTE
    ..\Library\stm32f10x_fsmc.c              0x00000000   Number         0  stm32f10x_fsmc.o ABSOLUTE
    ..\Library\stm32f10x_gpio.c              0x00000000   Number         0  stm32f10x_gpio.o ABSOLUTE
    ..\Library\stm32f10x_i2c.c               0x00000000   Number         0  stm32f10x_i2c.o ABSOLUTE
    ..\Library\stm32f10x_iwdg.c              0x00000000   Number         0  stm32f10x_iwdg.o ABSOLUTE
    ..\Library\stm32f10x_pwr.c               0x00000000   Number         0  stm32f10x_pwr.o ABSOLUTE
    ..\Library\stm32f10x_rcc.c               0x00000000   Number         0  stm32f10x_rcc.o ABSOLUTE
    ..\Library\stm32f10x_rtc.c               0x00000000   Number         0  stm32f10x_rtc.o ABSOLUTE
    ..\Library\stm32f10x_sdio.c              0x00000000   Number         0  stm32f10x_sdio.o ABSOLUTE
    ..\Library\stm32f10x_spi.c               0x00000000   Number         0  stm32f10x_spi.o ABSOLUTE
    ..\Library\stm32f10x_tim.c               0x00000000   Number         0  stm32f10x_tim.o ABSOLUTE
    ..\Library\stm32f10x_usart.c             0x00000000   Number         0  stm32f10x_usart.o ABSOLUTE
    ..\Library\stm32f10x_wwdg.c              0x00000000   Number         0  stm32f10x_wwdg.o ABSOLUTE
    ..\Start\core_cm3.c                      0x00000000   Number         0  core_cm3.o ABSOLUTE
    ..\Start\startup_stm32f10x_md.s          0x00000000   Number         0  startup_stm32f10x_md.o ABSOLUTE
    ..\Start\system_stm32f10x.c              0x00000000   Number         0  system_stm32f10x.o ABSOLUTE
    ..\System\Delay.c                        0x00000000   Number         0  delay.o ABSOLUTE
    ..\System\TIM.c                          0x00000000   Number         0  tim.o ABSOLUTE
    ..\User\main.c                           0x00000000   Number         0  main.o ABSOLUTE
    ..\User\stm32f10x_it.c                   0x00000000   Number         0  stm32f10x_it.o ABSOLUTE
    ..\\Start\\core_cm3.c                    0x00000000   Number         0  core_cm3.o ABSOLUTE
    dc.s                                     0x00000000   Number         0  dc.o ABSOLUTE
    handlers.s                               0x00000000   Number         0  handlers.o ABSOLUTE
    init.s                                   0x00000000   Number         0  init.o ABSOLUTE
    RESET                                    0x08000000   Section      236  startup_stm32f10x_md.o(RESET)
    .ARM.Collect$$$$00000000                 0x080000ec   Section        0  entry.o(.ARM.Collect$$$$00000000)
    .ARM.Collect$$$$00000001                 0x080000ec   Section        4  entry2.o(.ARM.Collect$$$$00000001)
    .ARM.Collect$$$$00000004                 0x080000f0   Section        4  entry5.o(.ARM.Collect$$$$00000004)
    .ARM.Collect$$$$00000008                 0x080000f4   Section        0  entry7b.o(.ARM.Collect$$$$00000008)
    .ARM.Collect$$$$0000000A                 0x080000f4   Section        0  entry8b.o(.ARM.Collect$$$$0000000A)
    .ARM.Collect$$$$0000000B                 0x080000f4   Section        8  entry9a.o(.ARM.Collect$$$$0000000B)
    .ARM.Collect$$$$0000000E                 0x080000fc   Section        4  entry12b.o(.ARM.Collect$$$$0000000E)
    .ARM.Collect$$$$0000000F                 0x08000100   Section        0  entry10a.o(.ARM.Collect$$$$0000000F)
    .ARM.Collect$$$$00000011                 0x08000100   Section        0  entry11a.o(.ARM.Collect$$$$00000011)
    .ARM.Collect$$$$00002712                 0x08000100   Section        4  entry2.o(.ARM.Collect$$$$00002712)
    __lit__00000000                          0x08000100   Data           4  entry2.o(.ARM.Collect$$$$00002712)
    .text                                    0x08000104   Section       36  startup_stm32f10x_md.o(.text)
    .text                                    0x08000128   Section       36  init.o(.text)
    i.BusFault_Handler                       0x0800014c   Section        0  stm32f10x_it.o(i.BusFault_Handler)
    i.DebugMon_Handler                       0x08000150   Section        0  stm32f10x_it.o(i.DebugMon_Handler)
    i.GPIO_Init                              0x08000152   Section        0  stm32f10x_gpio.o(i.GPIO_Init)
    i.GPIO_ResetBits                         0x08000268   Section        0  stm32f10x_gpio.o(i.GPIO_ResetBits)
    i.GPIO_SetBits                           0x0800026c   Section        0  stm32f10x_gpio.o(i.GPIO_SetBits)
    i.GPIO_WriteBit                          0x08000270   Section        0  stm32f10x_gpio.o(i.GPIO_WriteBit)
    i.HardFault_Handler                      0x0800027a   Section        0  stm32f10x_it.o(i.HardFault_Handler)
    i.HardWareInit                           0x08000280   Section        0  main.o(i.HardWareInit)
    HardWareInit                             0x08000281   Thumb Code    70  main.o(i.HardWareInit)
    i.Key_Init                               0x080002d4   Section        0  key.o(i.Key_Init)
    i.LED_Init                               0x08000338   Section        0  led.o(i.LED_Init)
    i.LIN_ErrorCode                          0x08000390   Section        0  lin_driver.o(i.LIN_ErrorCode)
    i.LIN_GetChecksum                        0x0800043c   Section        0  lin_driver.o(i.LIN_GetChecksum)
    i.LIN_GetPID                             0x08000470   Section        0  lin_driver.o(i.LIN_GetPID)
    i.LIN_GetSendFlg                         0x080004a8   Section        0  main.o(i.LIN_GetSendFlg)
    LIN_GetSendFlg                           0x080004a9   Thumb Code    38  main.o(i.LIN_GetSendFlg)
    i.LIN_IDTypeConfig                       0x080004d8   Section        0  main.o(i.LIN_IDTypeConfig)
    i.LIN_LED_Drive                          0x080004f4   Section        0  main.o(i.LIN_LED_Drive)
    i.LIN_MasterRxMsg                        0x08000528   Section        0  lin_driver.o(i.LIN_MasterRxMsg)
    i.LIN_Process                            0x080005d8   Section        0  lin_driver.o(i.LIN_Process)
    i.LIN_RingBUF_ClearRxMsg                 0x0800065c   Section        0  lin_buffer.o(i.LIN_RingBUF_ClearRxMsg)
    i.LIN_RingBUF_GetMsg                     0x08000674   Section        0  lin_buffer.o(i.LIN_RingBUF_GetMsg)
    i.LIN_RingBUF_Read                       0x08000686   Section        0  lin_buffer.o(i.LIN_RingBUF_Read)
    i.LIN_RingBUF_Write                      0x080006da   Section        0  lin_buffer.o(i.LIN_RingBUF_Write)
    i.LIN_SendBreak                          0x08000710   Section        0  lin_driver.o(i.LIN_SendBreak)
    i.LIN_SendBytes                          0x0800071c   Section        0  lin_driver.o(i.LIN_SendBytes)
    i.LIN_SendMsg                            0x08000758   Section        0  lin_driver.o(i.LIN_SendMsg)
    i.LIN_TimOutCmd                          0x0800083c   Section        0  lin_driver.o(i.LIN_TimOutCmd)
    i.LIN_TimeProcess                        0x0800084c   Section        0  lin_driver.o(i.LIN_TimeProcess)
    i.MemManage_Handler                      0x080008b8   Section        0  stm32f10x_it.o(i.MemManage_Handler)
    i.NMI_Handler                            0x080008bc   Section        0  stm32f10x_it.o(i.NMI_Handler)
    i.NVIC_Init                              0x080008c0   Section        0  misc.o(i.NVIC_Init)
    i.NVIC_PriorityGroupConfig               0x08000930   Section        0  misc.o(i.NVIC_PriorityGroupConfig)
    i.OLED_Clear                             0x08000944   Section        0  oled.o(i.OLED_Clear)
    i.OLED_I2C_Init                          0x08000970   Section        0  oled.o(i.OLED_I2C_Init)
    i.OLED_I2C_SendByte                      0x080009c0   Section        0  oled.o(i.OLED_I2C_SendByte)
    i.OLED_I2C_Start                         0x08000a14   Section        0  oled.o(i.OLED_I2C_Start)
    i.OLED_I2C_Stop                          0x08000a48   Section        0  oled.o(i.OLED_I2C_Stop)
    i.OLED_Init                              0x08000a70   Section        0  oled.o(i.OLED_Init)
    i.OLED_SetCursor                         0x08000b1e   Section        0  oled.o(i.OLED_SetCursor)
    i.OLED_ShowChar                          0x08000b40   Section        0  oled.o(i.OLED_ShowChar)
    i.OLED_ShowInit                          0x08000bb4   Section        0  main.o(i.OLED_ShowInit)
    OLED_ShowInit                            0x08000bb5   Thumb Code    14  main.o(i.OLED_ShowInit)
    i.OLED_ShowString                        0x08000bcc   Section        0  oled.o(i.OLED_ShowString)
    i.OLED_WriteCommand                      0x08000bf4   Section        0  oled.o(i.OLED_WriteCommand)
    i.OLED_WriteData                         0x08000c14   Section        0  oled.o(i.OLED_WriteData)
    i.PendSV_Handler                         0x08000c34   Section        0  stm32f10x_it.o(i.PendSV_Handler)
    i.RCC_APB1PeriphClockCmd                 0x08000c38   Section        0  stm32f10x_rcc.o(i.RCC_APB1PeriphClockCmd)
    i.RCC_APB2PeriphClockCmd                 0x08000c58   Section        0  stm32f10x_rcc.o(i.RCC_APB2PeriphClockCmd)
    i.RCC_GetClocksFreq                      0x08000c78   Section        0  stm32f10x_rcc.o(i.RCC_GetClocksFreq)
    i.SVC_Handler                            0x08000d4c   Section        0  stm32f10x_it.o(i.SVC_Handler)
    i.SetSysClock                            0x08000d4e   Section        0  system_stm32f10x.o(i.SetSysClock)
    SetSysClock                              0x08000d4f   Thumb Code     8  system_stm32f10x.o(i.SetSysClock)
    i.SetSysClockTo72                        0x08000d58   Section        0  system_stm32f10x.o(i.SetSysClockTo72)
    SetSysClockTo72                          0x08000d59   Thumb Code   214  system_stm32f10x.o(i.SetSysClockTo72)
    i.SysTick_Handler                        0x08000e38   Section        0  stm32f10x_it.o(i.SysTick_Handler)
    i.SystemInit                             0x08000e3c   Section        0  system_stm32f10x.o(i.SystemInit)
    i.TIM2_IRQHandler                        0x08000e9c   Section        0  main.o(i.TIM2_IRQHandler)
    i.TIM2_Init                              0x08000ec0   Section        0  tim.o(i.TIM2_Init)
    i.TIM3_IRQHandler                        0x08000f34   Section        0  lin_driver.o(i.TIM3_IRQHandler)
    i.TIM3_Init                              0x08000f54   Section        0  tim.o(i.TIM3_Init)
    i.TIM4_Init                              0x08000fbc   Section        0  tim.o(i.TIM4_Init)
    i.TIM_ClearFlag                          0x08001028   Section        0  stm32f10x_tim.o(i.TIM_ClearFlag)
    i.TIM_ClearITPendingBit                  0x0800102e   Section        0  stm32f10x_tim.o(i.TIM_ClearITPendingBit)
    i.TIM_Cmd                                0x08001034   Section        0  stm32f10x_tim.o(i.TIM_Cmd)
    i.TIM_GetITStatus                        0x0800104c   Section        0  stm32f10x_tim.o(i.TIM_GetITStatus)
    i.TIM_ITConfig                           0x0800106e   Section        0  stm32f10x_tim.o(i.TIM_ITConfig)
    i.TIM_InternalClockConfig                0x08001080   Section        0  stm32f10x_tim.o(i.TIM_InternalClockConfig)
    i.TIM_TimeBaseInit                       0x0800108c   Section        0  stm32f10x_tim.o(i.TIM_TimeBaseInit)
    i.USART1_IRQHandler                      0x08001130   Section        0  lin_driver.o(i.USART1_IRQHandler)
    i.USART1_Init                            0x080011d0   Section        0  usart.o(i.USART1_Init)
    i.USART_ClearITPendingBit                0x08001294   Section        0  stm32f10x_usart.o(i.USART_ClearITPendingBit)
    i.USART_Cmd                              0x080012b2   Section        0  stm32f10x_usart.o(i.USART_Cmd)
    i.USART_GetFlagStatus                    0x080012ca   Section        0  stm32f10x_usart.o(i.USART_GetFlagStatus)
    i.USART_GetITStatus                      0x080012e4   Section        0  stm32f10x_usart.o(i.USART_GetITStatus)
    i.USART_ITConfig                         0x08001338   Section        0  stm32f10x_usart.o(i.USART_ITConfig)
    i.USART_Init                             0x08001384   Section        0  stm32f10x_usart.o(i.USART_Init)
    i.USART_LINBreakDetectLengthConfig       0x0800145c   Section        0  stm32f10x_usart.o(i.USART_LINBreakDetectLengthConfig)
    i.USART_LINCmd                           0x0800146e   Section        0  stm32f10x_usart.o(i.USART_LINCmd)
    i.USART_ReceiveData                      0x08001486   Section        0  stm32f10x_usart.o(i.USART_ReceiveData)
    i.USART_SendBreak                        0x08001490   Section        0  stm32f10x_usart.o(i.USART_SendBreak)
    i.USART_SendData                         0x0800149a   Section        0  stm32f10x_usart.o(i.USART_SendData)
    i.UsageFault_Handler                     0x080014a2   Section        0  stm32f10x_it.o(i.UsageFault_Handler)
    i.Wiper_Drive                            0x080014a8   Section        0  main.o(i.Wiper_Drive)
    i.__scatterload_copy                     0x080016a8   Section       14  handlers.o(i.__scatterload_copy)
    i.__scatterload_null                     0x080016b6   Section        2  handlers.o(i.__scatterload_null)
    i.__scatterload_zeroinit                 0x080016b8   Section       14  handlers.o(i.__scatterload_zeroinit)
    i.free                                   0x080016c8   Section        0  malloc.o(i.free)
    i.main                                   0x08001718   Section        0  main.o(i.main)
    i.malloc                                 0x080017a8   Section        0  malloc.o(i.malloc)
    .constdata                               0x08001814   Section     1520  oled.o(.constdata)
    .data                                    0x20000000   Section       20  stm32f10x_rcc.o(.data)
    APBAHBPrescTable                         0x20000000   Data          16  stm32f10x_rcc.o(.data)
    ADCPrescTable                            0x20000010   Data           4  stm32f10x_rcc.o(.data)
    .data                                    0x20000014   Section        6  lin_driver.o(.data)
    bitCounter                               0x20000019   Data           1  lin_driver.o(.data)
    .data                                    0x2000001c   Section       29  main.o(.data)
    LIN_SendFlg                              0x20000030   Data           1  main.o(.data)
    Num                                      0x20000032   Data           2  main.o(.data)
    Auto_Resetflg                            0x20000034   Data           1  main.o(.data)
    Auto_Resetflg2                           0x20000035   Data           1  main.o(.data)
    TimOut                                   0x20000036   Data           1  main.o(.data)
    temp                                     0x20000037   Data           1  main.o(.data)
    Turnflg                                  0x20000038   Data           1  main.o(.data)
    .data                                    0x2000003c   Section        4  mvars.o(.data)
    .data                                    0x20000040   Section        4  mvars.o(.data)
    .bss                                     0x20000044   Section     1864  lin_driver.o(.bss)
    HEAP                                     0x20000790   Section      512  startup_stm32f10x_md.o(HEAP)
    STACK                                    0x20000990   Section     1024  startup_stm32f10x_md.o(STACK)

    Global Symbols

    Symbol Name                              Value     Ov Type        Size  Object(Section)

    BuildAttributes$$THM_ISAv4$P$D$K$B$S$PE$A:L22UL41UL21$X:L11$S22US41US21$IEEE1$IW$USESV6$~STKCKD$USESV7$~SHL$OSPACE$EBA8$MICROLIB$REQ8$PRES8$EABIv2 0x00000000   Number         0  anon$$obj.o ABSOLUTE
    __ARM_use_no_argv                        0x00000000   Number         0  main.o ABSOLUTE
    __arm_fini_                               - Undefined Weak Reference
    __cpp_initialize__aeabi_                  - Undefined Weak Reference
    __cxa_finalize                            - Undefined Weak Reference
    __decompress                              - Undefined Weak Reference
    _clock_init                               - Undefined Weak Reference
    _microlib_exit                            - Undefined Weak Reference
    __Vectors_Size                           0x000000ec   Number         0  startup_stm32f10x_md.o ABSOLUTE
    __Vectors                                0x08000000   Data           4  startup_stm32f10x_md.o(RESET)
    __Vectors_End                            0x080000ec   Data           0  startup_stm32f10x_md.o(RESET)
    __main                                   0x080000ed   Thumb Code     0  entry.o(.ARM.Collect$$$$00000000)
    _main_stk                                0x080000ed   Thumb Code     0  entry2.o(.ARM.Collect$$$$00000001)
    _main_scatterload                        0x080000f1   Thumb Code     0  entry5.o(.ARM.Collect$$$$00000004)
    __main_after_scatterload                 0x080000f5   Thumb Code     0  entry5.o(.ARM.Collect$$$$00000004)
    _main_clock                              0x080000f5   Thumb Code     0  entry7b.o(.ARM.Collect$$$$00000008)
    _main_cpp_init                           0x080000f5   Thumb Code     0  entry8b.o(.ARM.Collect$$$$0000000A)
    _main_init                               0x080000f5   Thumb Code     0  entry9a.o(.ARM.Collect$$$$0000000B)
    __rt_lib_shutdown_fini                   0x080000fd   Thumb Code     0  entry12b.o(.ARM.Collect$$$$0000000E)
    __rt_final_cpp                           0x08000101   Thumb Code     0  entry10a.o(.ARM.Collect$$$$0000000F)
    __rt_final_exit                          0x08000101   Thumb Code     0  entry11a.o(.ARM.Collect$$$$00000011)
    Reset_Handler                            0x08000105   Thumb Code     8  startup_stm32f10x_md.o(.text)
    ADC1_2_IRQHandler                        0x0800011f   Thumb Code     0  startup_stm32f10x_md.o(.text)
    CAN1_RX1_IRQHandler                      0x0800011f   Thumb Code     0  startup_stm32f10x_md.o(.text)
    CAN1_SCE_IRQHandler                      0x0800011f   Thumb Code     0  startup_stm32f10x_md.o(.text)
    DMA1_Channel1_IRQHandler                 0x0800011f   Thumb Code     0  startup_stm32f10x_md.o(.text)
    DMA1_Channel2_IRQHandler                 0x0800011f   Thumb Code     0  startup_stm32f10x_md.o(.text)
    DMA1_Channel3_IRQHandler                 0x0800011f   Thumb Code     0  startup_stm32f10x_md.o(.text)
    DMA1_Channel4_IRQHandler                 0x0800011f   Thumb Code     0  startup_stm32f10x_md.o(.text)
    DMA1_Channel5_IRQHandler                 0x0800011f   Thumb Code     0  startup_stm32f10x_md.o(.text)
    DMA1_Channel6_IRQHandler                 0x0800011f   Thumb Code     0  startup_stm32f10x_md.o(.text)
    DMA1_Channel7_IRQHandler                 0x0800011f   Thumb Code     0  startup_stm32f10x_md.o(.text)
    EXTI0_IRQHandler                         0x0800011f   Thumb Code     0  startup_stm32f10x_md.o(.text)
    EXTI15_10_IRQHandler                     0x0800011f   Thumb Code     0  startup_stm32f10x_md.o(.text)
    EXTI1_IRQHandler                         0x0800011f   Thumb Code     0  startup_stm32f10x_md.o(.text)
    EXTI2_IRQHandler                         0x0800011f   Thumb Code     0  startup_stm32f10x_md.o(.text)
    EXTI3_IRQHandler                         0x0800011f   Thumb Code     0  startup_stm32f10x_md.o(.text)
    EXTI4_IRQHandler                         0x0800011f   Thumb Code     0  startup_stm32f10x_md.o(.text)
    EXTI9_5_IRQHandler                       0x0800011f   Thumb Code     0  startup_stm32f10x_md.o(.text)
    FLASH_IRQHandler                         0x0800011f   Thumb Code     0  startup_stm32f10x_md.o(.text)
    I2C1_ER_IRQHandler                       0x0800011f   Thumb Code     0  startup_stm32f10x_md.o(.text)
    I2C1_EV_IRQHandler                       0x0800011f   Thumb Code     0  startup_stm32f10x_md.o(.text)
    I2C2_ER_IRQHandler                       0x0800011f   Thumb Code     0  startup_stm32f10x_md.o(.text)
    I2C2_EV_IRQHandler                       0x0800011f   Thumb Code     0  startup_stm32f10x_md.o(.text)
    PVD_IRQHandler                           0x0800011f   Thumb Code     0  startup_stm32f10x_md.o(.text)
    RCC_IRQHandler                           0x0800011f   Thumb Code     0  startup_stm32f10x_md.o(.text)
    RTCAlarm_IRQHandler                      0x0800011f   Thumb Code     0  startup_stm32f10x_md.o(.text)
    RTC_IRQHandler                           0x0800011f   Thumb Code     0  startup_stm32f10x_md.o(.text)
    SPI1_IRQHandler                          0x0800011f   Thumb Code     0  startup_stm32f10x_md.o(.text)
    SPI2_IRQHandler                          0x0800011f   Thumb Code     0  startup_stm32f10x_md.o(.text)
    TAMPER_IRQHandler                        0x0800011f   Thumb Code     0  startup_stm32f10x_md.o(.text)
    TIM1_BRK_IRQHandler                      0x0800011f   Thumb Code     0  startup_stm32f10x_md.o(.text)
    TIM1_CC_IRQHandler                       0x0800011f   Thumb Code     0  startup_stm32f10x_md.o(.text)
    TIM1_TRG_COM_IRQHandler                  0x0800011f   Thumb Code     0  startup_stm32f10x_md.o(.text)
    TIM1_UP_IRQHandler                       0x0800011f   Thumb Code     0  startup_stm32f10x_md.o(.text)
    TIM4_IRQHandler                          0x0800011f   Thumb Code     0  startup_stm32f10x_md.o(.text)
    USART2_IRQHandler                        0x0800011f   Thumb Code     0  startup_stm32f10x_md.o(.text)
    USART3_IRQHandler                        0x0800011f   Thumb Code     0  startup_stm32f10x_md.o(.text)
    USBWakeUp_IRQHandler                     0x0800011f   Thumb Code     0  startup_stm32f10x_md.o(.text)
    USB_HP_CAN1_TX_IRQHandler                0x0800011f   Thumb Code     0  startup_stm32f10x_md.o(.text)
    USB_LP_CAN1_RX0_IRQHandler               0x0800011f   Thumb Code     0  startup_stm32f10x_md.o(.text)
    WWDG_IRQHandler                          0x0800011f   Thumb Code     0  startup_stm32f10x_md.o(.text)
    __scatterload                            0x08000129   Thumb Code    28  init.o(.text)
    __scatterload_rt2                        0x08000129   Thumb Code     0  init.o(.text)
    BusFault_Handler                         0x0800014d   Thumb Code     4  stm32f10x_it.o(i.BusFault_Handler)
    DebugMon_Handler                         0x08000151   Thumb Code     2  stm32f10x_it.o(i.DebugMon_Handler)
    GPIO_Init                                0x08000153   Thumb Code   278  stm32f10x_gpio.o(i.GPIO_Init)
    GPIO_ResetBits                           0x08000269   Thumb Code     4  stm32f10x_gpio.o(i.GPIO_ResetBits)
    GPIO_SetBits                             0x0800026d   Thumb Code     4  stm32f10x_gpio.o(i.GPIO_SetBits)
    GPIO_WriteBit                            0x08000271   Thumb Code    10  stm32f10x_gpio.o(i.GPIO_WriteBit)
    HardFault_Handler                        0x0800027b   Thumb Code     4  stm32f10x_it.o(i.HardFault_Handler)
    Key_Init                                 0x080002d5   Thumb Code    92  key.o(i.Key_Init)
    LED_Init                                 0x08000339   Thumb Code    80  led.o(i.LED_Init)
    LIN_ErrorCode                            0x08000391   Thumb Code    98  lin_driver.o(i.LIN_ErrorCode)
    LIN_GetChecksum                          0x0800043d   Thumb Code    52  lin_driver.o(i.LIN_GetChecksum)
    LIN_GetPID                               0x08000471   Thumb Code    56  lin_driver.o(i.LIN_GetPID)
    LIN_IDTypeConfig                         0x080004d9   Thumb Code    24  main.o(i.LIN_IDTypeConfig)
    LIN_LED_Drive                            0x080004f5   Thumb Code    48  main.o(i.LIN_LED_Drive)
    LIN_MasterRxMsg                          0x08000529   Thumb Code   154  lin_driver.o(i.LIN_MasterRxMsg)
    LIN_Process                              0x080005d9   Thumb Code   128  lin_driver.o(i.LIN_Process)
    LIN_RingBUF_ClearRxMsg                   0x0800065d   Thumb Code    24  lin_buffer.o(i.LIN_RingBUF_ClearRxMsg)
    LIN_RingBUF_GetMsg                       0x08000675   Thumb Code    18  lin_buffer.o(i.LIN_RingBUF_GetMsg)
    LIN_RingBUF_Read                         0x08000687   Thumb Code    84  lin_buffer.o(i.LIN_RingBUF_Read)
    LIN_RingBUF_Write                        0x080006db   Thumb Code    54  lin_buffer.o(i.LIN_RingBUF_Write)
    LIN_SendBreak                            0x08000711   Thumb Code    12  lin_driver.o(i.LIN_SendBreak)
    LIN_SendBytes                            0x0800071d   Thumb Code    60  lin_driver.o(i.LIN_SendBytes)
    LIN_SendMsg                              0x08000759   Thumb Code   216  lin_driver.o(i.LIN_SendMsg)
    LIN_TimOutCmd                            0x0800083d   Thumb Code    16  lin_driver.o(i.LIN_TimOutCmd)
    LIN_TimeProcess                          0x0800084d   Thumb Code    82  lin_driver.o(i.LIN_TimeProcess)
    MemManage_Handler                        0x080008b9   Thumb Code     4  stm32f10x_it.o(i.MemManage_Handler)
    NMI_Handler                              0x080008bd   Thumb Code     2  stm32f10x_it.o(i.NMI_Handler)
    NVIC_Init                                0x080008c1   Thumb Code   100  misc.o(i.NVIC_Init)
    NVIC_PriorityGroupConfig                 0x08000931   Thumb Code    10  misc.o(i.NVIC_PriorityGroupConfig)
    OLED_Clear                               0x08000945   Thumb Code    42  oled.o(i.OLED_Clear)
    OLED_I2C_Init                            0x08000971   Thumb Code    76  oled.o(i.OLED_I2C_Init)
    OLED_I2C_SendByte                        0x080009c1   Thumb Code    80  oled.o(i.OLED_I2C_SendByte)
    OLED_I2C_Start                           0x08000a15   Thumb Code    48  oled.o(i.OLED_I2C_Start)
    OLED_I2C_Stop                            0x08000a49   Thumb Code    36  oled.o(i.OLED_I2C_Stop)
    OLED_Init                                0x08000a71   Thumb Code   174  oled.o(i.OLED_Init)
    OLED_SetCursor                           0x08000b1f   Thumb Code    34  oled.o(i.OLED_SetCursor)
    OLED_ShowChar                            0x08000b41   Thumb Code   110  oled.o(i.OLED_ShowChar)
    OLED_ShowString                          0x08000bcd   Thumb Code    40  oled.o(i.OLED_ShowString)
    OLED_WriteCommand                        0x08000bf5   Thumb Code    32  oled.o(i.OLED_WriteCommand)
    OLED_WriteData                           0x08000c15   Thumb Code    32  oled.o(i.OLED_WriteData)
    PendSV_Handler                           0x08000c35   Thumb Code     2  stm32f10x_it.o(i.PendSV_Handler)
    RCC_APB1PeriphClockCmd                   0x08000c39   Thumb Code    26  stm32f10x_rcc.o(i.RCC_APB1PeriphClockCmd)
    RCC_APB2PeriphClockCmd                   0x08000c59   Thumb Code    26  stm32f10x_rcc.o(i.RCC_APB2PeriphClockCmd)
    RCC_GetClocksFreq                        0x08000c79   Thumb Code   192  stm32f10x_rcc.o(i.RCC_GetClocksFreq)
    SVC_Handler                              0x08000d4d   Thumb Code     2  stm32f10x_it.o(i.SVC_Handler)
    SysTick_Handler                          0x08000e39   Thumb Code     2  stm32f10x_it.o(i.SysTick_Handler)
    SystemInit                               0x08000e3d   Thumb Code    78  system_stm32f10x.o(i.SystemInit)
    TIM2_IRQHandler                          0x08000e9d   Thumb Code    32  main.o(i.TIM2_IRQHandler)
    TIM2_Init                                0x08000ec1   Thumb Code   114  tim.o(i.TIM2_Init)
    TIM3_IRQHandler                          0x08000f35   Thumb Code    28  lin_driver.o(i.TIM3_IRQHandler)
    TIM3_Init                                0x08000f55   Thumb Code   100  tim.o(i.TIM3_Init)
    TIM4_Init                                0x08000fbd   Thumb Code   104  tim.o(i.TIM4_Init)
    TIM_ClearFlag                            0x08001029   Thumb Code     6  stm32f10x_tim.o(i.TIM_ClearFlag)
    TIM_ClearITPendingBit                    0x0800102f   Thumb Code     6  stm32f10x_tim.o(i.TIM_ClearITPendingBit)
    TIM_Cmd                                  0x08001035   Thumb Code    24  stm32f10x_tim.o(i.TIM_Cmd)
    TIM_GetITStatus                          0x0800104d   Thumb Code    34  stm32f10x_tim.o(i.TIM_GetITStatus)
    TIM_ITConfig                             0x0800106f   Thumb Code    18  stm32f10x_tim.o(i.TIM_ITConfig)
    TIM_InternalClockConfig                  0x08001081   Thumb Code    12  stm32f10x_tim.o(i.TIM_InternalClockConfig)
    TIM_TimeBaseInit                         0x0800108d   Thumb Code   122  stm32f10x_tim.o(i.TIM_TimeBaseInit)
    USART1_IRQHandler                        0x08001131   Thumb Code   138  lin_driver.o(i.USART1_IRQHandler)
    USART1_Init                              0x080011d1   Thumb Code   188  usart.o(i.USART1_Init)
    USART_ClearITPendingBit                  0x08001295   Thumb Code    30  stm32f10x_usart.o(i.USART_ClearITPendingBit)
    USART_Cmd                                0x080012b3   Thumb Code    24  stm32f10x_usart.o(i.USART_Cmd)
    USART_GetFlagStatus                      0x080012cb   Thumb Code    26  stm32f10x_usart.o(i.USART_GetFlagStatus)
    USART_GetITStatus                        0x080012e5   Thumb Code    84  stm32f10x_usart.o(i.USART_GetITStatus)
    USART_ITConfig                           0x08001339   Thumb Code    74  stm32f10x_usart.o(i.USART_ITConfig)
    USART_Init                               0x08001385   Thumb Code   210  stm32f10x_usart.o(i.USART_Init)
    USART_LINBreakDetectLengthConfig         0x0800145d   Thumb Code    18  stm32f10x_usart.o(i.USART_LINBreakDetectLengthConfig)
    USART_LINCmd                             0x0800146f   Thumb Code    24  stm32f10x_usart.o(i.USART_LINCmd)
    USART_ReceiveData                        0x08001487   Thumb Code    10  stm32f10x_usart.o(i.USART_ReceiveData)
    USART_SendBreak                          0x08001491   Thumb Code    10  stm32f10x_usart.o(i.USART_SendBreak)
    USART_SendData                           0x0800149b   Thumb Code     8  stm32f10x_usart.o(i.USART_SendData)
    UsageFault_Handler                       0x080014a3   Thumb Code     4  stm32f10x_it.o(i.UsageFault_Handler)
    Wiper_Drive                              0x080014a9   Thumb Code   490  main.o(i.Wiper_Drive)
    __scatterload_copy                       0x080016a9   Thumb Code    14  handlers.o(i.__scatterload_copy)
    __scatterload_null                       0x080016b7   Thumb Code     2  handlers.o(i.__scatterload_null)
    __scatterload_zeroinit                   0x080016b9   Thumb Code    14  handlers.o(i.__scatterload_zeroinit)
    free                                     0x080016c9   Thumb Code    76  malloc.o(i.free)
    main                                     0x08001719   Thumb Code   116  main.o(i.main)
    malloc                                   0x080017a9   Thumb Code    92  malloc.o(i.malloc)
    OLED_F8x16                               0x08001814   Data        1520  oled.o(.constdata)
    Region$$Table$$Base                      0x08001e04   Number         0  anon$$obj.o(Region$$Table)
    Region$$Table$$Limit                     0x08001e24   Number         0  anon$$obj.o(Region$$Table)
    LIN_RX_TimOut                            0x20000014   Data           4  lin_driver.o(.data)
    LIN_RxStateGet                           0x20000018   Data           1  lin_driver.o(.data)
    pSignalMsg                               0x2000001c   Data           4  main.o(.data)
    pWiperMsg                                0x20000020   Data           4  main.o(.data)
    LIN_Err                                  0x20000024   Data           1  main.o(.data)
    Temp                                     0x20000028   Data           4  main.o(.data)
    Temp2                                    0x2000002c   Data           4  main.o(.data)
    __microlib_freelist                      0x2000003c   Data           4  mvars.o(.data)
    __microlib_freelist_initialised          0x20000040   Data           4  mvars.o(.data)
    LINRxDataBuf                             0x20000044   Data         896  lin_driver.o(.bss)
    FrameIDType                              0x200003c4   Data          64  lin_driver.o(.bss)
    LIN_RxDataBuff                           0x20000404   Data         904  lin_driver.o(.bss)
    __heap_base                              0x20000790   Data           0  startup_stm32f10x_md.o(HEAP)
    __heap_limit                             0x20000990   Data           0  startup_stm32f10x_md.o(HEAP)
    __initial_sp                             0x20000d90   Data           0  startup_stm32f10x_md.o(STACK)



==============================================================================

Memory Map of the image

  Image Entry point : 0x080000ed

  Load Region LR_IROM1 (Base: 0x08000000, Size: 0x00001e68, Max: 0x00010000, ABSOLUTE)

    Execution Region ER_IROM1 (Exec base: 0x08000000, Load base: 0x08000000, Size: 0x00001e24, Max: 0x00010000, ABSOLUTE)

    Exec Addr    Load Addr    Size         Type   Attr      Idx    E Section Name        Object

    0x08000000   0x08000000   0x000000ec   Data   RO         3069    RESET               startup_stm32f10x_md.o
    0x080000ec   0x080000ec   0x00000000   Code   RO         3720  * .ARM.Collect$$$$00000000  mc_w.l(entry.o)
    0x080000ec   0x080000ec   0x00000004   Code   RO         3751    .ARM.Collect$$$$00000001  mc_w.l(entry2.o)
    0x080000f0   0x080000f0   0x00000004   Code   RO         3754    .ARM.Collect$$$$00000004  mc_w.l(entry5.o)
    0x080000f4   0x080000f4   0x00000000   Code   RO         3756    .ARM.Collect$$$$00000008  mc_w.l(entry7b.o)
    0x080000f4   0x080000f4   0x00000000   Code   RO         3758    .ARM.Collect$$$$0000000A  mc_w.l(entry8b.o)
    0x080000f4   0x080000f4   0x00000008   Code   RO         3759    .ARM.Collect$$$$0000000B  mc_w.l(entry9a.o)
    0x080000fc   0x080000fc   0x00000004   Code   RO         3766    .ARM.Collect$$$$0000000E  mc_w.l(entry12b.o)
    0x08000100   0x08000100   0x00000000   Code   RO         3761    .ARM.Collect$$$$0000000F  mc_w.l(entry10a.o)
    0x08000100   0x08000100   0x00000000   Code   RO         3763    .ARM.Collect$$$$00000011  mc_w.l(entry11a.o)
    0x08000100   0x08000100   0x00000004   Code   RO         3752    .ARM.Collect$$$$00002712  mc_w.l(entry2.o)
    0x08000104   0x08000104   0x00000024   Code   RO         3070    .text               startup_stm32f10x_md.o
    0x08000128   0x08000128   0x00000024   Code   RO         3773    .text               mc_w.l(init.o)
    0x0800014c   0x0800014c   0x00000004   Code   RO         3602    i.BusFault_Handler  stm32f10x_it.o
    0x08000150   0x08000150   0x00000002   Code   RO         3603    i.DebugMon_Handler  stm32f10x_it.o
    0x08000152   0x08000152   0x00000116   Code   RO         1240    i.GPIO_Init         stm32f10x_gpio.o
    0x08000268   0x08000268   0x00000004   Code   RO         1247    i.GPIO_ResetBits    stm32f10x_gpio.o
    0x0800026c   0x0800026c   0x00000004   Code   RO         1248    i.GPIO_SetBits      stm32f10x_gpio.o
    0x08000270   0x08000270   0x0000000a   Code   RO         1251    i.GPIO_WriteBit     stm32f10x_gpio.o
    0x0800027a   0x0800027a   0x00000004   Code   RO         3604    i.HardFault_Handler  stm32f10x_it.o
    0x0800027e   0x0800027e   0x00000002   PAD
    0x08000280   0x08000280   0x00000054   Code   RO         3665    i.HardWareInit      main.o
    0x080002d4   0x080002d4   0x00000064   Code   RO         3275    i.Key_Init          key.o
    0x08000338   0x08000338   0x00000058   Code   RO         3301    i.LED_Init          led.o
    0x08000390   0x08000390   0x000000ac   Code   RO         3508    i.LIN_ErrorCode     lin_driver.o
    0x0800043c   0x0800043c   0x00000034   Code   RO         3509    i.LIN_GetChecksum   lin_driver.o
    0x08000470   0x08000470   0x00000038   Code   RO         3510    i.LIN_GetPID        lin_driver.o
    0x080004a8   0x080004a8   0x00000030   Code   RO         3666    i.LIN_GetSendFlg    main.o
    0x080004d8   0x080004d8   0x0000001c   Code   RO         3667    i.LIN_IDTypeConfig  main.o
    0x080004f4   0x080004f4   0x00000034   Code   RO         3668    i.LIN_LED_Drive     main.o
    0x08000528   0x08000528   0x000000b0   Code   RO         3511    i.LIN_MasterRxMsg   lin_driver.o
    0x080005d8   0x080005d8   0x00000084   Code   RO         3512    i.LIN_Process       lin_driver.o
    0x0800065c   0x0800065c   0x00000018   Code   RO         3451    i.LIN_RingBUF_ClearRxMsg  lin_buffer.o
    0x08000674   0x08000674   0x00000012   Code   RO         3452    i.LIN_RingBUF_GetMsg  lin_buffer.o
    0x08000686   0x08000686   0x00000054   Code   RO         3454    i.LIN_RingBUF_Read  lin_buffer.o
    0x080006da   0x080006da   0x00000036   Code   RO         3456    i.LIN_RingBUF_Write  lin_buffer.o
    0x08000710   0x08000710   0x0000000c   Code   RO         3513    i.LIN_SendBreak     lin_driver.o
    0x0800071c   0x0800071c   0x0000003c   Code   RO         3514    i.LIN_SendBytes     lin_driver.o
    0x08000758   0x08000758   0x000000e4   Code   RO         3515    i.LIN_SendMsg       lin_driver.o
    0x0800083c   0x0800083c   0x00000010   Code   RO         3516    i.LIN_TimOutCmd     lin_driver.o
    0x0800084c   0x0800084c   0x0000006c   Code   RO         3517    i.LIN_TimeProcess   lin_driver.o
    0x080008b8   0x080008b8   0x00000004   Code   RO         3605    i.MemManage_Handler  stm32f10x_it.o
    0x080008bc   0x080008bc   0x00000002   Code   RO         3606    i.NMI_Handler       stm32f10x_it.o
    0x080008be   0x080008be   0x00000002   PAD
    0x080008c0   0x080008c0   0x00000070   Code   RO            1    i.NVIC_Init         misc.o
    0x08000930   0x08000930   0x00000014   Code   RO            2    i.NVIC_PriorityGroupConfig  misc.o
    0x08000944   0x08000944   0x0000002a   Code   RO         3343    i.OLED_Clear        oled.o
    0x0800096e   0x0800096e   0x00000002   PAD
    0x08000970   0x08000970   0x00000050   Code   RO         3344    i.OLED_I2C_Init     oled.o
    0x080009c0   0x080009c0   0x00000054   Code   RO         3345    i.OLED_I2C_SendByte  oled.o
    0x08000a14   0x08000a14   0x00000034   Code   RO         3346    i.OLED_I2C_Start    oled.o
    0x08000a48   0x08000a48   0x00000028   Code   RO         3347    i.OLED_I2C_Stop     oled.o
    0x08000a70   0x08000a70   0x000000ae   Code   RO         3348    i.OLED_Init         oled.o
    0x08000b1e   0x08000b1e   0x00000022   Code   RO         3350    i.OLED_SetCursor    oled.o
    0x08000b40   0x08000b40   0x00000074   Code   RO         3352    i.OLED_ShowChar     oled.o
    0x08000bb4   0x08000bb4   0x00000018   Code   RO         3669    i.OLED_ShowInit     main.o
    0x08000bcc   0x08000bcc   0x00000028   Code   RO         3356    i.OLED_ShowString   oled.o
    0x08000bf4   0x08000bf4   0x00000020   Code   RO         3357    i.OLED_WriteCommand  oled.o
    0x08000c14   0x08000c14   0x00000020   Code   RO         3358    i.OLED_WriteData    oled.o
    0x08000c34   0x08000c34   0x00000002   Code   RO         3607    i.PendSV_Handler    stm32f10x_it.o
    0x08000c36   0x08000c36   0x00000002   PAD
    0x08000c38   0x08000c38   0x00000020   Code   RO         1656    i.RCC_APB1PeriphClockCmd  stm32f10x_rcc.o
    0x08000c58   0x08000c58   0x00000020   Code   RO         1658    i.RCC_APB2PeriphClockCmd  stm32f10x_rcc.o
    0x08000c78   0x08000c78   0x000000d4   Code   RO         1666    i.RCC_GetClocksFreq  stm32f10x_rcc.o
    0x08000d4c   0x08000d4c   0x00000002   Code   RO         3608    i.SVC_Handler       stm32f10x_it.o
    0x08000d4e   0x08000d4e   0x00000008   Code   RO         3074    i.SetSysClock       system_stm32f10x.o
    0x08000d56   0x08000d56   0x00000002   PAD
    0x08000d58   0x08000d58   0x000000e0   Code   RO         3075    i.SetSysClockTo72   system_stm32f10x.o
    0x08000e38   0x08000e38   0x00000002   Code   RO         3609    i.SysTick_Handler   stm32f10x_it.o
    0x08000e3a   0x08000e3a   0x00000002   PAD
    0x08000e3c   0x08000e3c   0x00000060   Code   RO         3077    i.SystemInit        system_stm32f10x.o
    0x08000e9c   0x08000e9c   0x00000024   Code   RO         3670    i.TIM2_IRQHandler   main.o
    0x08000ec0   0x08000ec0   0x00000072   Code   RO         3250    i.TIM2_Init         tim.o
    0x08000f32   0x08000f32   0x00000002   PAD
    0x08000f34   0x08000f34   0x00000020   Code   RO         3518    i.TIM3_IRQHandler   lin_driver.o
    0x08000f54   0x08000f54   0x00000068   Code   RO         3251    i.TIM3_Init         tim.o
    0x08000fbc   0x08000fbc   0x0000006c   Code   RO         3252    i.TIM4_Init         tim.o
    0x08001028   0x08001028   0x00000006   Code   RO         2284    i.TIM_ClearFlag     stm32f10x_tim.o
    0x0800102e   0x0800102e   0x00000006   Code   RO         2285    i.TIM_ClearITPendingBit  stm32f10x_tim.o
    0x08001034   0x08001034   0x00000018   Code   RO         2290    i.TIM_Cmd           stm32f10x_tim.o
    0x0800104c   0x0800104c   0x00000022   Code   RO         2311    i.TIM_GetITStatus   stm32f10x_tim.o
    0x0800106e   0x0800106e   0x00000012   Code   RO         2315    i.TIM_ITConfig      stm32f10x_tim.o
    0x08001080   0x08001080   0x0000000c   Code   RO         2317    i.TIM_InternalClockConfig  stm32f10x_tim.o
    0x0800108c   0x0800108c   0x000000a4   Code   RO         2361    i.TIM_TimeBaseInit  stm32f10x_tim.o
    0x08001130   0x08001130   0x000000a0   Code   RO         3519    i.USART1_IRQHandler  lin_driver.o
    0x080011d0   0x080011d0   0x000000c4   Code   RO         3325    i.USART1_Init       usart.o
    0x08001294   0x08001294   0x0000001e   Code   RO         2823    i.USART_ClearITPendingBit  stm32f10x_usart.o
    0x080012b2   0x080012b2   0x00000018   Code   RO         2826    i.USART_Cmd         stm32f10x_usart.o
    0x080012ca   0x080012ca   0x0000001a   Code   RO         2829    i.USART_GetFlagStatus  stm32f10x_usart.o
    0x080012e4   0x080012e4   0x00000054   Code   RO         2830    i.USART_GetITStatus  stm32f10x_usart.o
    0x08001338   0x08001338   0x0000004a   Code   RO         2832    i.USART_ITConfig    stm32f10x_usart.o
    0x08001382   0x08001382   0x00000002   PAD
    0x08001384   0x08001384   0x000000d8   Code   RO         2833    i.USART_Init        stm32f10x_usart.o
    0x0800145c   0x0800145c   0x00000012   Code   RO         2836    i.USART_LINBreakDetectLengthConfig  stm32f10x_usart.o
    0x0800146e   0x0800146e   0x00000018   Code   RO         2837    i.USART_LINCmd      stm32f10x_usart.o
    0x08001486   0x08001486   0x0000000a   Code   RO         2840    i.USART_ReceiveData  stm32f10x_usart.o
    0x08001490   0x08001490   0x0000000a   Code   RO         2842    i.USART_SendBreak   stm32f10x_usart.o
    0x0800149a   0x0800149a   0x00000008   Code   RO         2843    i.USART_SendData    stm32f10x_usart.o
    0x080014a2   0x080014a2   0x00000004   Code   RO         3610    i.UsageFault_Handler  stm32f10x_it.o
    0x080014a6   0x080014a6   0x00000002   PAD
    0x080014a8   0x080014a8   0x00000200   Code   RO         3671    i.Wiper_Drive       main.o
    0x080016a8   0x080016a8   0x0000000e   Code   RO         3777    i.__scatterload_copy  mc_w.l(handlers.o)
    0x080016b6   0x080016b6   0x00000002   Code   RO         3778    i.__scatterload_null  mc_w.l(handlers.o)
    0x080016b8   0x080016b8   0x0000000e   Code   RO         3779    i.__scatterload_zeroinit  mc_w.l(handlers.o)
    0x080016c6   0x080016c6   0x00000002   PAD
    0x080016c8   0x080016c8   0x00000050   Code   RO         3723    i.free              mc_w.l(malloc.o)
    0x08001718   0x08001718   0x00000090   Code   RO         3672    i.main              main.o
    0x080017a8   0x080017a8   0x0000006c   Code   RO         3724    i.malloc            mc_w.l(malloc.o)
    0x08001814   0x08001814   0x000005f0   Data   RO         3359    .constdata          oled.o
    0x08001e04   0x08001e04   0x00000020   Data   RO         3775    Region$$Table       anon$$obj.o


    Execution Region RW_IRAM1 (Exec base: 0x20000000, Load base: 0x08001e24, Size: 0x00000d90, Max: 0x00005000, ABSOLUTE)

    Exec Addr    Load Addr    Size         Type   Attr      Idx    E Section Name        Object

    0x20000000   0x08001e24   0x00000014   Data   RW         1686    .data               stm32f10x_rcc.o
    0x20000014   0x08001e38   0x00000006   Data   RW         3521    .data               lin_driver.o
    0x2000001a   0x08001e3e   0x00000002   PAD
    0x2000001c   0x08001e40   0x0000001d   Data   RW         3673    .data               main.o
    0x20000039   0x08001e5d   0x00000003   PAD
    0x2000003c   0x08001e60   0x00000004   Data   RW         3771    .data               mc_w.l(mvars.o)
    0x20000040   0x08001e64   0x00000004   Data   RW         3772    .data               mc_w.l(mvars.o)
    0x20000044        -       0x00000748   Zero   RW         3520    .bss                lin_driver.o
    0x2000078c   0x08001e68   0x00000004   PAD
    0x20000790        -       0x00000200   Zero   RW         3068    HEAP                startup_stm32f10x_md.o
    0x20000990        -       0x00000400   Zero   RW         3067    STACK               startup_stm32f10x_md.o


==============================================================================

Image component sizes


      Code (inc. data)   RO Data    RW Data    ZI Data      Debug   Object Name

         0          0          0          0          0         32   core_cm3.o
         0          0          0          0          0     240750   delay.o
       100          8          0          0          0        483   key.o
        88          8          0          0          0        475   led.o
       180          0          0          0          0      18994   lin_buffer.o
      1204        178          0          6       1864       9998   lin_driver.o
       928        106          0         29          0       4625   main.o
       132         22          0          0          0     254087   misc.o
       726         22       1520          0          0       6231   oled.o
        36          8        236          0       1536        776   startup_stm32f10x_md.o
       296          0          0          0          0       3380   stm32f10x_gpio.o
        26          0          0          0          0       3674   stm32f10x_it.o
       276         32          0         20          0       4210   stm32f10x_rcc.o
       264         42          0          0          0       4240   stm32f10x_tim.o
       524          6          0          0          0       7931   stm32f10x_usart.o
       328         28          0          0          0       1793   system_stm32f10x.o
       326          8          0          0          0       1568   tim.o
       196          8          0          0          0        702   usart.o

    ----------------------------------------------------------------------
      5648        476       1788         60       3404     563949   Object Totals
         0          0         32          0          0          0   (incl. Generated)
        18          0          0          5          4          0   (incl. Padding)

    ----------------------------------------------------------------------

      Code (inc. data)   RO Data    RW Data    ZI Data      Debug   Library Member Name

         0          0          0          0          0          0   entry.o
         0          0          0          0          0          0   entry10a.o
         0          0          0          0          0          0   entry11a.o
         4          0          0          0          0          0   entry12b.o
         8          4          0          0          0          0   entry2.o
         4          0          0          0          0          0   entry5.o
         0          0          0          0          0          0   entry7b.o
         0          0          0          0          0          0   entry8b.o
         8          4          0          0          0          0   entry9a.o
        30          0          0          0          0          0   handlers.o
        36          8          0          0          0         68   init.o
       188         20          0          0          0        160   malloc.o
         0          0          0          8          0          0   mvars.o

    ----------------------------------------------------------------------
       280         36          0          8          0        228   Library Totals
         2          0          0          0          0          0   (incl. Padding)

    ----------------------------------------------------------------------

      Code (inc. data)   RO Data    RW Data    ZI Data      Debug   Library Name

       278         36          0          8          0        228   mc_w.l

    ----------------------------------------------------------------------
       280         36          0          8          0        228   Library Totals

    ----------------------------------------------------------------------

==============================================================================


      Code (inc. data)   RO Data    RW Data    ZI Data      Debug   

      5928        512       1788         68       3404     560325   Grand Totals
      5928        512       1788         68       3404     560325   ELF Image Totals
      5928        512       1788         68          0          0   ROM Totals

==============================================================================

    Total RO  Size (Code + RO Data)                 7716 (   7.54kB)
    Total RW  Size (RW Data + ZI Data)              3472 (   3.39kB)
    Total ROM Size (Code + RO Data + RW Data)       7784 (   7.60kB)

==============================================================================

