Component: ARM Compiler 5.06 update 7 (build 960) Tool: armlink [4d3601]

==============================================================================

Section Cross References

    stm32f10x_adc.o(i.ADC_DeInit) refers to stm32f10x_rcc.o(i.RCC_APB2PeriphResetCmd) for RCC_APB2PeriphResetCmd
    stm32f10x_bkp.o(i.BKP_DeInit) refers to stm32f10x_rcc.o(i.RCC_BackupResetCmd) for RCC_BackupResetCmd
    stm32f10x_can.o(i.CAN_DeInit) refers to stm32f10x_rcc.o(i.RCC_APB1PeriphResetCmd) for RCC_APB1PeriphResetCmd
    stm32f10x_can.o(i.CAN_GetITStatus) refers to stm32f10x_can.o(i.CheckITStatus) for CheckITStatus
    stm32f10x_cec.o(i.CEC_DeInit) refers to stm32f10x_rcc.o(i.RCC_APB1PeriphResetCmd) for RCC_APB1PeriphResetCmd
    stm32f10x_dac.o(i.DAC_DeInit) refers to stm32f10x_rcc.o(i.RCC_APB1PeriphResetCmd) for RCC_APB1PeriphResetCmd
    stm32f10x_flash.o(i.FLASH_EnableWriteProtection) refers to stm32f10x_flash.o(i.FLASH_WaitForLastOperation) for FLASH_WaitForLastOperation
    stm32f10x_flash.o(i.FLASH_EraseAllBank1Pages) refers to stm32f10x_flash.o(i.FLASH_WaitForLastBank1Operation) for FLASH_WaitForLastBank1Operation
    stm32f10x_flash.o(i.FLASH_EraseAllPages) refers to stm32f10x_flash.o(i.FLASH_WaitForLastOperation) for FLASH_WaitForLastOperation
    stm32f10x_flash.o(i.FLASH_EraseOptionBytes) refers to stm32f10x_flash.o(i.FLASH_GetReadOutProtectionStatus) for FLASH_GetReadOutProtectionStatus
    stm32f10x_flash.o(i.FLASH_EraseOptionBytes) refers to stm32f10x_flash.o(i.FLASH_WaitForLastOperation) for FLASH_WaitForLastOperation
    stm32f10x_flash.o(i.FLASH_ErasePage) refers to stm32f10x_flash.o(i.FLASH_WaitForLastOperation) for FLASH_WaitForLastOperation
    stm32f10x_flash.o(i.FLASH_ProgramHalfWord) refers to stm32f10x_flash.o(i.FLASH_WaitForLastOperation) for FLASH_WaitForLastOperation
    stm32f10x_flash.o(i.FLASH_ProgramOptionByteData) refers to stm32f10x_flash.o(i.FLASH_WaitForLastOperation) for FLASH_WaitForLastOperation
    stm32f10x_flash.o(i.FLASH_ProgramWord) refers to stm32f10x_flash.o(i.FLASH_WaitForLastOperation) for FLASH_WaitForLastOperation
    stm32f10x_flash.o(i.FLASH_ReadOutProtection) refers to stm32f10x_flash.o(i.FLASH_WaitForLastOperation) for FLASH_WaitForLastOperation
    stm32f10x_flash.o(i.FLASH_UserOptionByteConfig) refers to stm32f10x_flash.o(i.FLASH_WaitForLastOperation) for FLASH_WaitForLastOperation
    stm32f10x_flash.o(i.FLASH_WaitForLastBank1Operation) refers to stm32f10x_flash.o(i.FLASH_GetBank1Status) for FLASH_GetBank1Status
==============================================================================

Removing Unused input sections from the image.

    Removing misc.o(i.NVIC_SetVectorTable), (20 bytes).
    Removing misc.o(i.NVIC_SystemLPConfig), (32 bytes).
    Removing misc.o(i.SysTick_CLKSourceConfig), (40 bytes).
    Removing stm32f10x_adc.o(i.ADC_AnalogWatchdogCmd), (20 bytes).
    Removing stm32f10x_adc.o(i.ADC_AnalogWatchdogSingleChannelConfig), (16 bytes).
    Removing stm32f10x_adc.o(i.ADC_AnalogWatchdogThresholdsConfig), (6 bytes).
    Removing stm32f10x_adc.o(i.ADC_AutoInjectedConvCmd), (22 bytes).
    Removing stm32f10x_adc.o(i.ADC_ClearFlag), (6 bytes).
    Removing stm32f10x_adc.o(i.ADC_ClearITPendingBit), (10 bytes).
    Removing stm32f10x_adc.o(i.ADC_Cmd), (22 bytes).
    Removing stm32f10x_adc.o(i.ADC_DMACmd), (22 bytes).
    Removing stm32f10x_adc.o(i.ADC_DeInit), (92 bytes).
    Removing stm32f10x_adc.o(i.ADC_DiscModeChannelCountConfig), (24 bytes).
    Removing stm32f10x_adc.o(i.ADC_DiscModeCmd), (22 bytes).
    Removing stm32f10x_adc.o(i.ADC_ExternalTrigConvCmd), (22 bytes).
    Removing stm32f10x_adc.o(i.ADC_ExternalTrigInjectedConvCmd), (22 bytes).
    Removing stm32f10x_adc.o(i.ADC_ExternalTrigInjectedConvConfig), (16 bytes).
    Removing stm32f10x_adc.o(i.ADC_GetCalibrationStatus), (20 bytes).
==============================================================================

Image Symbol Table

    Local Symbols

    Symbol Name                              Value     Ov Type        Size  Object(Section)

    ../clib/microlib/init/entry.s            0x00000000   Number         0  entry11b.o ABSOLUTE
    ../clib/microlib/init/entry.s            0x00000000   Number         0  entry8b.o ABSOLUTE
    ../clib/microlib/init/entry.s            0x00000000   Number         0  entry7a.o ABSOLUTE
    ../clib/microlib/init/entry.s            0x00000000   Number         0  entry12a.o ABSOLUTE
    ../clib/microlib/init/entry.s            0x00000000   Number         0  entry12b.o ABSOLUTE
    ../clib/microlib/init/entry.s            0x00000000   Number         0  entry8a.o ABSOLUTE
    ../clib/microlib/init/entry.s            0x00000000   Number         0  entry9a.o ABSOLUTE
    ../clib/microlib/init/entry.s            0x00000000   Number         0  entry7b.o ABSOLUTE
    ../clib/microlib/init/entry.s            0x00000000   Number         0  entry.o ABSOLUTE
    ../clib/microlib/init/entry.s            0x00000000   Number         0  entry9b.o ABSOLUTE
    ../clib/microlib/init/entry.s            0x00000000   Number         0  entry5.o ABSOLUTE
    ../clib/microlib/init/entry.s            0x00000000   Number         0  entry10a.o ABSOLUTE
    ../clib/microlib/init/entry.s            0x00000000   Number         0  entry2.o ABSOLUTE
    ../clib/microlib/init/entry.s            0x00000000   Number         0  entry10b.o ABSOLUTE
    ../clib/microlib/init/entry.s            0x00000000   Number         0  entry11a.o ABSOLUTE
    ../clib/microlib/malloc/malloc.c         0x00000000   Number         0  mallocra.o ABSOLUTE
    ../clib/microlib/malloc/malloc.c         0x00000000   Number         0  malloca.o ABSOLUTE
    ../clib/microlib/malloc/malloc.c         0x00000000   Number         0  mallocr.o ABSOLUTE
    ../clib/microlib/malloc/malloc.c         0x00000000   Number         0  malloc.o ABSOLUTE
    ../clib/microlib/malloc/mvars.c          0x00000000   Number         0  mvars.o ABSOLUTE
    ../clib/microlib/string/memcpy.c         0x00000000   Number         0  memcpya.o ABSOLUTE
    ../clib/microlib/string/memcpy.c         0x00000000   Number         0  memcpyb.o ABSOLUTE
    ../clib/microlib/string/memset.c         0x00000000   Number         0  memseta.o ABSOLUTE
    ..\Hardware\Key.c                        0x00000000   Number         0  key.o ABSOLUTE
    ..\Hardware\LED.c                        0x00000000   Number         0  led.o ABSOLUTE
    ..\Hardware\LinMaster.c                  0x00000000   Number         0  linmaster.o ABSOLUTE
    ..\Hardware\OLED.c                       0x00000000   Number         0  oled.o ABSOLUTE
    ..\Hardware\USART.c                      0x00000000   Number         0  usart.o ABSOLUTE
    ..\Hardware\lin_buffer.c                 0x00000000   Number         0  lin_buffer.o ABSOLUTE
    ..\Hardware\lin_uds.c                    0x00000000   Number         0  lin_uds.o ABSOLUTE
    ..\Library\misc.c                        0x00000000   Number         0  misc.o ABSOLUTE
    ..\Library\stm32f10x_adc.c               0x00000000   Number         0  stm32f10x_adc.o ABSOLUTE
    ..\Library\stm32f10x_bkp.c               0x00000000   Number         0  stm32f10x_bkp.o ABSOLUTE
    ..\Library\stm32f10x_can.c               0x00000000   Number         0  stm32f10x_can.o ABSOLUTE
    ..\Library\stm32f10x_cec.c               0x00000000   Number         0  stm32f10x_cec.o ABSOLUTE
    ..\Library\stm32f10x_crc.c               0x00000000   Number         0  stm32f10x_crc.o ABSOLUTE
    ..\Library\stm32f10x_dac.c               0x00000000   Number         0  stm32f10x_dac.o ABSOLUTE
    ..\Library\stm32f10x_dbgmcu.c            0x00000000   Number         0  stm32f10x_dbgmcu.o ABSOLUTE
    ..\Library\stm32f10x_dma.c               0x00000000   Number         0  stm32f10x_dma.o ABSOLUTE
    ..\Library\stm32f10x_exti.c              0x00000000   Number         0  stm32f10x_exti.o ABSOLUTE
    ..\Library\stm32f10x_flash.c             0x00000000   Number         0  stm32f10x_flash.o ABSOLUTE
    ..\Library\stm32f10x_fsmc.c              0x00000000   Number         0  stm32f10x_fsmc.o ABSOLUTE
    ..\Library\stm32f10x_gpio.c              0x00000000   Number         0  stm32f10x_gpio.o ABSOLUTE
    ..\Library\stm32f10x_i2c.c               0x00000000   Number         0  stm32f10x_i2c.o ABSOLUTE
    ..\Library\stm32f10x_iwdg.c              0x00000000   Number         0  stm32f10x_iwdg.o ABSOLUTE
    ..\Library\stm32f10x_pwr.c               0x00000000   Number         0  stm32f10x_pwr.o ABSOLUTE
    ..\Library\stm32f10x_rcc.c               0x00000000   Number         0  stm32f10x_rcc.o ABSOLUTE
    ..\Library\stm32f10x_rtc.c               0x00000000   Number         0  stm32f10x_rtc.o ABSOLUTE
    ..\Library\stm32f10x_sdio.c              0x00000000   Number         0  stm32f10x_sdio.o ABSOLUTE
    ..\Library\stm32f10x_spi.c               0x00000000   Number         0  stm32f10x_spi.o ABSOLUTE
    ..\Library\stm32f10x_tim.c               0x00000000   Number         0  stm32f10x_tim.o ABSOLUTE
    ..\Library\stm32f10x_usart.c             0x00000000   Number         0  stm32f10x_usart.o ABSOLUTE
    ..\Library\stm32f10x_wwdg.c              0x00000000   Number         0  stm32f10x_wwdg.o ABSOLUTE
    ..\Start\core_cm3.c                      0x00000000   Number         0  core_cm3.o ABSOLUTE
    ..\Start\startup_stm32f10x_md.s          0x00000000   Number         0  startup_stm32f10x_md.o ABSOLUTE
    ..\Start\system_stm32f10x.c              0x00000000   Number         0  system_stm32f10x.o ABSOLUTE
    ..\System\Delay.c                        0x00000000   Number         0  delay.o ABSOLUTE
    ..\System\TIM.c                          0x00000000   Number         0  tim.o ABSOLUTE
    ..\User\main.c                           0x00000000   Number         0  main.o ABSOLUTE
    ..\User\stm32f10x_it.c                   0x00000000   Number         0  stm32f10x_it.o ABSOLUTE
    ..\\Start\\core_cm3.c                    0x00000000   Number         0  core_cm3.o ABSOLUTE
    dc.s                                     0x00000000   Number         0  dc.o ABSOLUTE
    handlers.s                               0x00000000   Number         0  handlers.o ABSOLUTE
    init.s                                   0x00000000   Number         0  init.o ABSOLUTE
    RESET                                    0x08000000   Section      236  startup_stm32f10x_md.o(RESET)
    .ARM.Collect$$$$00000000                 0x080000ec   Section        0  entry.o(.ARM.Collect$$$$00000000)
    .ARM.Collect$$$$00000001                 0x080000ec   Section        4  entry2.o(.ARM.Collect$$$$00000001)
    .ARM.Collect$$$$00000004                 0x080000f0   Section        4  entry5.o(.ARM.Collect$$$$00000004)
    .ARM.Collect$$$$00000008                 0x080000f4   Section        0  entry7b.o(.ARM.Collect$$$$00000008)
    .ARM.Collect$$$$0000000A                 0x080000f4   Section        0  entry8b.o(.ARM.Collect$$$$0000000A)
    .ARM.Collect$$$$0000000B                 0x080000f4   Section        8  entry9a.o(.ARM.Collect$$$$0000000B)
    .ARM.Collect$$$$0000000E                 0x080000fc   Section        4  entry12b.o(.ARM.Collect$$$$0000000E)
    .ARM.Collect$$$$0000000F                 0x08000100   Section        0  entry10a.o(.ARM.Collect$$$$0000000F)
    .ARM.Collect$$$$00000011                 0x08000100   Section        0  entry11a.o(.ARM.Collect$$$$00000011)
    .ARM.Collect$$$$00002712                 0x08000100   Section        4  entry2.o(.ARM.Collect$$$$00002712)
    __lit__00000000                          0x08000100   Data           4  entry2.o(.ARM.Collect$$$$00002712)
    .text                                    0x08000104   Section       36  startup_stm32f10x_md.o(.text)
    .text                                    0x08000128   Section        0  memseta.o(.text)
    .text                                    0x0800014c   Section       36  init.o(.text)
    i.BusFault_Handler                       0x08000170   Section        0  stm32f10x_it.o(i.BusFault_Handler)
    i.DebugMon_Handler                       0x08000174   Section        0  stm32f10x_it.o(i.DebugMon_Handler)
    i.Delay_ms                               0x08000176   Section        0  delay.o(i.Delay_ms)
    i.Delay_us                               0x0800018e   Section        0  delay.o(i.Delay_us)
    i.GPIO_Init                              0x080001bc   Section        0  stm32f10x_gpio.o(i.GPIO_Init)
    i.GPIO_SetBits                           0x080002d2   Section        0  stm32f10x_gpio.o(i.GPIO_SetBits)
    i.GPIO_WriteBit                          0x080002d6   Section        0  stm32f10x_gpio.o(i.GPIO_WriteBit)
    i.HardFault_Handler                      0x080002e0   Section        0  stm32f10x_it.o(i.HardFault_Handler)
    i.HardWareInit                           0x080002e4   Section        0  main.o(i.HardWareInit)
    HardWareInit                             0x080002e5   Thumb Code    78  main.o(i.HardWareInit)
    i.Key_Init                               0x08000340   Section        0  key.o(i.Key_Init)
    i.LED_Init                               0x080003a4   Section        0  led.o(i.LED_Init)
    i.LED_Turn                               0x080003fc   Section        0  led.o(i.LED_Turn)
    i.LIN_Diagnose_Request                   0x0800040c   Section        0  lin_uds.o(i.LIN_Diagnose_Request)
    i.LIN_ErrorCode                          0x08000440   Section        0  linmaster.o(i.LIN_ErrorCode)
    i.LIN_GetChecksum                        0x080004ec   Section        0  linmaster.o(i.LIN_GetChecksum)
    i.LIN_GetPID                             0x08000520   Section        0  linmaster.o(i.LIN_GetPID)
    i.LIN_IDTypeConfig                       0x08000558   Section        0  main.o(i.LIN_IDTypeConfig)
    i.LIN_LED_Drive                          0x08000574   Section        0  main.o(i.LIN_LED_Drive)
    i.LIN_MasterRxMsg                        0x0800058c   Section        0  linmaster.o(i.LIN_MasterRxMsg)
    i.LIN_Process                            0x08000670   Section        0  linmaster.o(i.LIN_Process)
    i.LIN_RingBUF_ClearRxMsg                 0x08000758   Section        0  lin_buffer.o(i.LIN_RingBUF_ClearRxMsg)
    i.LIN_RingBUF_GetMsg                     0x08000770   Section        0  lin_buffer.o(i.LIN_RingBUF_GetMsg)
    i.LIN_RingBUF_Read                       0x08000782   Section        0  lin_buffer.o(i.LIN_RingBUF_Read)
    i.LIN_RingBUF_ReadLen                    0x080007d6   Section        0  lin_buffer.o(i.LIN_RingBUF_ReadLen)
    i.LIN_RingBUF_Write                      0x080007e6   Section        0  lin_buffer.o(i.LIN_RingBUF_Write)
    i.LIN_SendBreak                          0x0800081c   Section        0  linmaster.o(i.LIN_SendBreak)
    i.LIN_SendBytes                          0x08000828   Section        0  linmaster.o(i.LIN_SendBytes)
    i.LIN_SendFlg                            0x08000864   Section        0  main.o(i.LIN_SendFlg)
    i.LIN_SendMsg                            0x08000894   Section        0  linmaster.o(i.LIN_SendMsg)
    i.LIN_TimOutCmd                          0x08000978   Section        0  linmaster.o(i.LIN_TimOutCmd)
    i.LIN_TimeProcess                        0x08000988   Section        0  linmaster.o(i.LIN_TimeProcess)
    i.LIN_UDS_GetResponse                    0x08000a30   Section        0  lin_uds.o(i.LIN_UDS_GetResponse)
    i.LIN_UDS_GotRequest                     0x08000a88   Section        0  lin_uds.o(i.LIN_UDS_GotRequest)
    i.LIN_UDS_Process                        0x08000ac8   Section        0  lin_uds.o(i.LIN_UDS_Process)
    i.LIN_UDS_Request                        0x08000c24   Section        0  lin_uds.o(i.LIN_UDS_Request)
    i.LIN_UDS_SendMsg                        0x08000d38   Section        0  lin_uds.o(i.LIN_UDS_SendMsg)
    i.MemManage_Handler                      0x08000d9c   Section        0  stm32f10x_it.o(i.MemManage_Handler)
    i.NMI_Handler                            0x08000da0   Section        0  stm32f10x_it.o(i.NMI_Handler)
    i.NVIC_Init                              0x08000da4   Section        0  misc.o(i.NVIC_Init)
    i.NVIC_PriorityGroupConfig               0x08000e14   Section        0  misc.o(i.NVIC_PriorityGroupConfig)
    i.OLED_Clear                             0x08000e28   Section        0  oled.o(i.OLED_Clear)
    i.OLED_I2C_Init                          0x08000e54   Section        0  oled.o(i.OLED_I2C_Init)
    i.OLED_I2C_SendByte                      0x08000ea4   Section        0  oled.o(i.OLED_I2C_SendByte)
    i.OLED_I2C_Start                         0x08000ef8   Section        0  oled.o(i.OLED_I2C_Start)
    i.OLED_I2C_Stop                          0x08000f2c   Section        0  oled.o(i.OLED_I2C_Stop)
    i.OLED_Init                              0x08000f54   Section        0  oled.o(i.OLED_Init)
    i.OLED_SetCursor                         0x08001002   Section        0  oled.o(i.OLED_SetCursor)
    i.OLED_ShowChar                          0x08001024   Section        0  oled.o(i.OLED_ShowChar)
    i.OLED_ShowInit                          0x08001098   Section        0  main.o(i.OLED_ShowInit)
    OLED_ShowInit                            0x08001099   Thumb Code    24  main.o(i.OLED_ShowInit)
    i.OLED_ShowString                        0x080010c0   Section        0  oled.o(i.OLED_ShowString)
    i.OLED_WriteCommand                      0x080010e8   Section        0  oled.o(i.OLED_WriteCommand)
    i.OLED_WriteData                         0x08001108   Section        0  oled.o(i.OLED_WriteData)
    i.PendSV_Handler                         0x08001128   Section        0  stm32f10x_it.o(i.PendSV_Handler)
    i.RCC_APB1PeriphClockCmd                 0x0800112c   Section        0  stm32f10x_rcc.o(i.RCC_APB1PeriphClockCmd)
    i.RCC_APB2PeriphClockCmd                 0x0800114c   Section        0  stm32f10x_rcc.o(i.RCC_APB2PeriphClockCmd)
    i.RCC_GetClocksFreq                      0x0800116c   Section        0  stm32f10x_rcc.o(i.RCC_GetClocksFreq)
    i.SVC_Handler                            0x08001240   Section        0  stm32f10x_it.o(i.SVC_Handler)
    i.SetSysClock                            0x08001242   Section        0  system_stm32f10x.o(i.SetSysClock)
    SetSysClock                              0x08001243   Thumb Code     8  system_stm32f10x.o(i.SetSysClock)
    i.SetSysClockTo72                        0x0800124c   Section        0  system_stm32f10x.o(i.SetSysClockTo72)
    SetSysClockTo72                          0x0800124d   Thumb Code   214  system_stm32f10x.o(i.SetSysClockTo72)
    i.SysTick_Handler                        0x0800132c   Section        0  stm32f10x_it.o(i.SysTick_Handler)
    i.SystemInit                             0x08001330   Section        0  system_stm32f10x.o(i.SystemInit)
    i.TIM2_IRQHandler                        0x08001390   Section        0  main.o(i.TIM2_IRQHandler)
    i.TIM2_Init                              0x080013b4   Section        0  tim.o(i.TIM2_Init)
    i.TIM3_IRQHandler                        0x08001428   Section        0  linmaster.o(i.TIM3_IRQHandler)
    i.TIM3_Init                              0x08001448   Section        0  tim.o(i.TIM3_Init)
    i.TIM4_Init                              0x080014b0   Section        0  tim.o(i.TIM4_Init)
    i.TIM_ClearFlag                          0x0800151c   Section        0  stm32f10x_tim.o(i.TIM_ClearFlag)
    i.TIM_ClearITPendingBit                  0x08001522   Section        0  stm32f10x_tim.o(i.TIM_ClearITPendingBit)
    i.TIM_Cmd                                0x08001528   Section        0  stm32f10x_tim.o(i.TIM_Cmd)
    i.TIM_GetITStatus                        0x08001540   Section        0  stm32f10x_tim.o(i.TIM_GetITStatus)
    i.TIM_ITConfig                           0x08001562   Section        0  stm32f10x_tim.o(i.TIM_ITConfig)
    i.TIM_InternalClockConfig                0x08001574   Section        0  stm32f10x_tim.o(i.TIM_InternalClockConfig)
    i.TIM_TimeBaseInit                       0x08001580   Section        0  stm32f10x_tim.o(i.TIM_TimeBaseInit)
    i.USART1_IRQHandler                      0x08001624   Section        0  linmaster.o(i.USART1_IRQHandler)
    i.USART1_Init                            0x080016c4   Section        0  usart.o(i.USART1_Init)
    i.USART2_IRQHandler                      0x08001788   Section        0  main.o(i.USART2_IRQHandler)
    i.USART2_Init                            0x080017b8   Section        0  usart.o(i.USART2_Init)
    i.USART_ClearITPendingBit                0x08001860   Section        0  stm32f10x_usart.o(i.USART_ClearITPendingBit)
    i.USART_Cmd                              0x0800187e   Section        0  stm32f10x_usart.o(i.USART_Cmd)
    i.USART_GetFlagStatus                    0x08001896   Section        0  stm32f10x_usart.o(i.USART_GetFlagStatus)
    i.USART_GetITStatus                      0x080018b0   Section        0  stm32f10x_usart.o(i.USART_GetITStatus)
    i.USART_ITConfig                         0x08001904   Section        0  stm32f10x_usart.o(i.USART_ITConfig)
    i.USART_Init                             0x08001950   Section        0  stm32f10x_usart.o(i.USART_Init)
    i.USART_LINBreakDetectLengthConfig       0x08001a28   Section        0  stm32f10x_usart.o(i.USART_LINBreakDetectLengthConfig)
    i.USART_LINCmd                           0x08001a3a   Section        0  stm32f10x_usart.o(i.USART_LINCmd)
    i.USART_ReceiveData                      0x08001a52   Section        0  stm32f10x_usart.o(i.USART_ReceiveData)
    i.USART_SendBreak                        0x08001a5c   Section        0  stm32f10x_usart.o(i.USART_SendBreak)
    i.USART_SendData                         0x08001a66   Section        0  stm32f10x_usart.o(i.USART_SendData)
    i.USART_Sendstr                          0x08001a6e   Section        0  usart.o(i.USART_Sendstr)
    i.UsageFault_Handler                     0x08001aa4   Section        0  stm32f10x_it.o(i.UsageFault_Handler)
    i.__scatterload_copy                     0x08001aa8   Section       14  handlers.o(i.__scatterload_copy)
    i.__scatterload_null                     0x08001ab6   Section        2  handlers.o(i.__scatterload_null)
    i.__scatterload_zeroinit                 0x08001ab8   Section       14  handlers.o(i.__scatterload_zeroinit)
    i.free                                   0x08001ac8   Section        0  malloc.o(i.free)
    i.main                                   0x08001b18   Section        0  main.o(i.main)
    i.malloc                                 0x08001b4c   Section        0  malloc.o(i.malloc)
    i.uds_test                               0x08001bb8   Section        0  main.o(i.uds_test)
    .constdata                               0x08001c2c   Section     1520  oled.o(.constdata)
    .data                                    0x20000000   Section       20  stm32f10x_rcc.o(.data)
    APBAHBPrescTable                         0x20000000   Data          16  stm32f10x_rcc.o(.data)
    ADCPrescTable                            0x20000010   Data           4  stm32f10x_rcc.o(.data)
    .data                                    0x20000014   Section       10  linmaster.o(.data)
    bitCounter                               0x2000001d   Data           1  linmaster.o(.data)
    .data                                    0x20000020   Section       13  lin_uds.o(.data)
    AllDataLen                               0x20000024   Data           4  lin_uds.o(.data)
    GotDataNum                               0x20000028   Data           4  lin_uds.o(.data)
    CF_SN                                    0x2000002c   Data           1  lin_uds.o(.data)
    .data                                    0x20000030   Section       36  main.o(.data)
    LIN_SendStart                            0x20000040   Data           1  main.o(.data)
    cnt                                      0x20000052   Data           2  main.o(.data)
    .data                                    0x20000054   Section        4  mvars.o(.data)
    .data                                    0x20000058   Section        4  mvars.o(.data)
    .bss                                     0x2000005c   Section     1864  linmaster.o(.bss)
    .bss                                     0x200007a4   Section     1032  lin_uds.o(.bss)
    buffer                                   0x200007a4   Data        1032  lin_uds.o(.bss)
    HEAP                                     0x20000bb0   Section      512  startup_stm32f10x_md.o(HEAP)
    STACK                                    0x20000db0   Section     1024  startup_stm32f10x_md.o(STACK)

    Global Symbols

    Symbol Name                              Value     Ov Type        Size  Object(Section)

    BuildAttributes$$THM_ISAv4$P$D$K$B$S$PE$A:L22UL41UL21$X:L11$S22US41US21$IEEE1$IW$USESV6$~STKCKD$USESV7$~SHL$OSPACE$EBA8$MICROLIB$REQ8$PRES8$EABIv2 0x00000000   Number         0  anon$$obj.o ABSOLUTE
    __ARM_use_no_argv                        0x00000000   Number         0  main.o ABSOLUTE
    __arm_fini_                               - Undefined Weak Reference
    __cpp_initialize__aeabi_                  - Undefined Weak Reference
    __cxa_finalize                            - Undefined Weak Reference
    __decompress                              - Undefined Weak Reference
    _clock_init                               - Undefined Weak Reference
    _microlib_exit                            - Undefined Weak Reference
    __Vectors_Size                           0x000000ec   Number         0  startup_stm32f10x_md.o ABSOLUTE
    __Vectors                                0x08000000   Data           4  startup_stm32f10x_md.o(RESET)
    __Vectors_End                            0x080000ec   Data           0  startup_stm32f10x_md.o(RESET)
    __main                                   0x080000ed   Thumb Code     0  entry.o(.ARM.Collect$$$$00000000)
    _main_stk                                0x080000ed   Thumb Code     0  entry2.o(.ARM.Collect$$$$00000001)
    _main_scatterload                        0x080000f1   Thumb Code     0  entry5.o(.ARM.Collect$$$$00000004)
    __main_after_scatterload                 0x080000f5   Thumb Code     0  entry5.o(.ARM.Collect$$$$00000004)
    _main_clock                              0x080000f5   Thumb Code     0  entry7b.o(.ARM.Collect$$$$00000008)
    _main_cpp_init                           0x080000f5   Thumb Code     0  entry8b.o(.ARM.Collect$$$$0000000A)
    _main_init                               0x080000f5   Thumb Code     0  entry9a.o(.ARM.Collect$$$$0000000B)
    __rt_lib_shutdown_fini                   0x080000fd   Thumb Code     0  entry12b.o(.ARM.Collect$$$$0000000E)
    __rt_final_cpp                           0x08000101   Thumb Code     0  entry10a.o(.ARM.Collect$$$$0000000F)
    __rt_final_exit                          0x08000101   Thumb Code     0  entry11a.o(.ARM.Collect$$$$00000011)
    Reset_Handler                            0x08000105   Thumb Code     8  startup_stm32f10x_md.o(.text)
    ADC1_2_IRQHandler                        0x0800011f   Thumb Code     0  startup_stm32f10x_md.o(.text)
    CAN1_RX1_IRQHandler                      0x0800011f   Thumb Code     0  startup_stm32f10x_md.o(.text)
    CAN1_SCE_IRQHandler                      0x0800011f   Thumb Code     0  startup_stm32f10x_md.o(.text)
    DMA1_Channel1_IRQHandler                 0x0800011f   Thumb Code     0  startup_stm32f10x_md.o(.text)
    DMA1_Channel2_IRQHandler                 0x0800011f   Thumb Code     0  startup_stm32f10x_md.o(.text)
    DMA1_Channel3_IRQHandler                 0x0800011f   Thumb Code     0  startup_stm32f10x_md.o(.text)
    DMA1_Channel4_IRQHandler                 0x0800011f   Thumb Code     0  startup_stm32f10x_md.o(.text)
    DMA1_Channel5_IRQHandler                 0x0800011f   Thumb Code     0  startup_stm32f10x_md.o(.text)
    DMA1_Channel6_IRQHandler                 0x0800011f   Thumb Code     0  startup_stm32f10x_md.o(.text)
    DMA1_Channel7_IRQHandler                 0x0800011f   Thumb Code     0  startup_stm32f10x_md.o(.text)
    EXTI0_IRQHandler                         0x0800011f   Thumb Code     0  startup_stm32f10x_md.o(.text)
    EXTI15_10_IRQHandler                     0x0800011f   Thumb Code     0  startup_stm32f10x_md.o(.text)
    EXTI1_IRQHandler                         0x0800011f   Thumb Code     0  startup_stm32f10x_md.o(.text)
    EXTI2_IRQHandler                         0x0800011f   Thumb Code     0  startup_stm32f10x_md.o(.text)
    EXTI3_IRQHandler                         0x0800011f   Thumb Code     0  startup_stm32f10x_md.o(.text)
    EXTI4_IRQHandler                         0x0800011f   Thumb Code     0  startup_stm32f10x_md.o(.text)
    EXTI9_5_IRQHandler                       0x0800011f   Thumb Code     0  startup_stm32f10x_md.o(.text)
    FLASH_IRQHandler                         0x0800011f   Thumb Code     0  startup_stm32f10x_md.o(.text)
    I2C1_ER_IRQHandler                       0x0800011f   Thumb Code     0  startup_stm32f10x_md.o(.text)
    I2C1_EV_IRQHandler                       0x0800011f   Thumb Code     0  startup_stm32f10x_md.o(.text)
    I2C2_ER_IRQHandler                       0x0800011f   Thumb Code     0  startup_stm32f10x_md.o(.text)
    I2C2_EV_IRQHandler                       0x0800011f   Thumb Code     0  startup_stm32f10x_md.o(.text)
    PVD_IRQHandler                           0x0800011f   Thumb Code     0  startup_stm32f10x_md.o(.text)
    RCC_IRQHandler                           0x0800011f   Thumb Code     0  startup_stm32f10x_md.o(.text)
    RTCAlarm_IRQHandler                      0x0800011f   Thumb Code     0  startup_stm32f10x_md.o(.text)
    RTC_IRQHandler                           0x0800011f   Thumb Code     0  startup_stm32f10x_md.o(.text)
    SPI1_IRQHandler                          0x0800011f   Thumb Code     0  startup_stm32f10x_md.o(.text)
    SPI2_IRQHandler                          0x0800011f   Thumb Code     0  startup_stm32f10x_md.o(.text)
    TAMPER_IRQHandler                        0x0800011f   Thumb Code     0  startup_stm32f10x_md.o(.text)
    TIM1_BRK_IRQHandler                      0x0800011f   Thumb Code     0  startup_stm32f10x_md.o(.text)
    TIM1_CC_IRQHandler                       0x0800011f   Thumb Code     0  startup_stm32f10x_md.o(.text)
    TIM1_TRG_COM_IRQHandler                  0x0800011f   Thumb Code     0  startup_stm32f10x_md.o(.text)
    TIM1_UP_IRQHandler                       0x0800011f   Thumb Code     0  startup_stm32f10x_md.o(.text)
    TIM4_IRQHandler                          0x0800011f   Thumb Code     0  startup_stm32f10x_md.o(.text)
    USART3_IRQHandler                        0x0800011f   Thumb Code     0  startup_stm32f10x_md.o(.text)
    USBWakeUp_IRQHandler                     0x0800011f   Thumb Code     0  startup_stm32f10x_md.o(.text)
    USB_HP_CAN1_TX_IRQHandler                0x0800011f   Thumb Code     0  startup_stm32f10x_md.o(.text)
    USB_LP_CAN1_RX0_IRQHandler               0x0800011f   Thumb Code     0  startup_stm32f10x_md.o(.text)
    WWDG_IRQHandler                          0x0800011f   Thumb Code     0  startup_stm32f10x_md.o(.text)
    __aeabi_memset                           0x08000129   Thumb Code    14  memseta.o(.text)
    __aeabi_memset4                          0x08000129   Thumb Code     0  memseta.o(.text)
    __aeabi_memset8                          0x08000129   Thumb Code     0  memseta.o(.text)
    __aeabi_memclr                           0x08000137   Thumb Code     4  memseta.o(.text)
    __aeabi_memclr4                          0x08000137   Thumb Code     0  memseta.o(.text)
    __aeabi_memclr8                          0x08000137   Thumb Code     0  memseta.o(.text)
    _memset$wrapper                          0x0800013b   Thumb Code    18  memseta.o(.text)
    __scatterload                            0x0800014d   Thumb Code    28  init.o(.text)
    __scatterload_rt2                        0x0800014d   Thumb Code     0  init.o(.text)
    BusFault_Handler                         0x08000171   Thumb Code     4  stm32f10x_it.o(i.BusFault_Handler)
    DebugMon_Handler                         0x08000175   Thumb Code     2  stm32f10x_it.o(i.DebugMon_Handler)
    Delay_ms                                 0x08000177   Thumb Code    24  delay.o(i.Delay_ms)
    Delay_us                                 0x0800018f   Thumb Code    46  delay.o(i.Delay_us)
    GPIO_Init                                0x080001bd   Thumb Code   278  stm32f10x_gpio.o(i.GPIO_Init)
    GPIO_SetBits                             0x080002d3   Thumb Code     4  stm32f10x_gpio.o(i.GPIO_SetBits)
    GPIO_WriteBit                            0x080002d7   Thumb Code    10  stm32f10x_gpio.o(i.GPIO_WriteBit)
    HardFault_Handler                        0x080002e1   Thumb Code     4  stm32f10x_it.o(i.HardFault_Handler)
    Key_Init                                 0x08000341   Thumb Code    92  key.o(i.Key_Init)
    LED_Init                                 0x080003a5   Thumb Code    80  led.o(i.LED_Init)
    LED_Turn                                 0x080003fd   Thumb Code    14  led.o(i.LED_Turn)
    LIN_Diagnose_Request                     0x0800040d   Thumb Code    44  lin_uds.o(i.LIN_Diagnose_Request)
    LIN_ErrorCode                            0x08000441   Thumb Code    98  linmaster.o(i.LIN_ErrorCode)
    LIN_GetChecksum                          0x080004ed   Thumb Code    52  linmaster.o(i.LIN_GetChecksum)
    LIN_GetPID                               0x08000521   Thumb Code    56  linmaster.o(i.LIN_GetPID)
    LIN_IDTypeConfig                         0x08000559   Thumb Code    24  main.o(i.LIN_IDTypeConfig)
    LIN_LED_Drive                            0x08000575   Thumb Code    20  main.o(i.LIN_LED_Drive)
    LIN_MasterRxMsg                          0x0800058d   Thumb Code   204  linmaster.o(i.LIN_MasterRxMsg)
    LIN_Process                              0x08000671   Thumb Code   210  linmaster.o(i.LIN_Process)
    LIN_RingBUF_ClearRxMsg                   0x08000759   Thumb Code    24  lin_buffer.o(i.LIN_RingBUF_ClearRxMsg)
    LIN_RingBUF_GetMsg                       0x08000771   Thumb Code    18  lin_buffer.o(i.LIN_RingBUF_GetMsg)
    LIN_RingBUF_Read                         0x08000783   Thumb Code    84  lin_buffer.o(i.LIN_RingBUF_Read)
    LIN_RingBUF_ReadLen                      0x080007d7   Thumb Code    16  lin_buffer.o(i.LIN_RingBUF_ReadLen)
    LIN_RingBUF_Write                        0x080007e7   Thumb Code    54  lin_buffer.o(i.LIN_RingBUF_Write)
    LIN_SendBreak                            0x0800081d   Thumb Code    12  linmaster.o(i.LIN_SendBreak)
    LIN_SendBytes                            0x08000829   Thumb Code    60  linmaster.o(i.LIN_SendBytes)
    LIN_SendFlg                              0x08000865   Thumb Code    38  main.o(i.LIN_SendFlg)
    LIN_SendMsg                              0x08000895   Thumb Code   216  linmaster.o(i.LIN_SendMsg)
    LIN_TimOutCmd                            0x08000979   Thumb Code    16  linmaster.o(i.LIN_TimOutCmd)
    LIN_TimeProcess                          0x08000989   Thumb Code   140  linmaster.o(i.LIN_TimeProcess)
    LIN_UDS_GetResponse                      0x08000a31   Thumb Code    66  lin_uds.o(i.LIN_UDS_GetResponse)
    LIN_UDS_GotRequest                       0x08000a89   Thumb Code    60  lin_uds.o(i.LIN_UDS_GotRequest)
    LIN_UDS_Process                          0x08000ac9   Thumb Code   330  lin_uds.o(i.LIN_UDS_Process)
    LIN_UDS_Request                          0x08000c25   Thumb Code   274  lin_uds.o(i.LIN_UDS_Request)
    LIN_UDS_SendMsg                          0x08000d39   Thumb Code    92  lin_uds.o(i.LIN_UDS_SendMsg)
    MemManage_Handler                        0x08000d9d   Thumb Code     4  stm32f10x_it.o(i.MemManage_Handler)
    NMI_Handler                              0x08000da1   Thumb Code     2  stm32f10x_it.o(i.NMI_Handler)
    NVIC_Init                                0x08000da5   Thumb Code   100  misc.o(i.NVIC_Init)
    NVIC_PriorityGroupConfig                 0x08000e15   Thumb Code    10  misc.o(i.NVIC_PriorityGroupConfig)
    OLED_Clear                               0x08000e29   Thumb Code    42  oled.o(i.OLED_Clear)
    OLED_I2C_Init                            0x08000e55   Thumb Code    76  oled.o(i.OLED_I2C_Init)
    OLED_I2C_SendByte                        0x08000ea5   Thumb Code    80  oled.o(i.OLED_I2C_SendByte)
    OLED_I2C_Start                           0x08000ef9   Thumb Code    48  oled.o(i.OLED_I2C_Start)
    OLED_I2C_Stop                            0x08000f2d   Thumb Code    36  oled.o(i.OLED_I2C_Stop)
    OLED_Init                                0x08000f55   Thumb Code   174  oled.o(i.OLED_Init)
    OLED_SetCursor                           0x08001003   Thumb Code    34  oled.o(i.OLED_SetCursor)
    OLED_ShowChar                            0x08001025   Thumb Code   110  oled.o(i.OLED_ShowChar)
    OLED_ShowString                          0x080010c1   Thumb Code    40  oled.o(i.OLED_ShowString)
    OLED_WriteCommand                        0x080010e9   Thumb Code    32  oled.o(i.OLED_WriteCommand)
    OLED_WriteData                           0x08001109   Thumb Code    32  oled.o(i.OLED_WriteData)
    PendSV_Handler                           0x08001129   Thumb Code     2  stm32f10x_it.o(i.PendSV_Handler)
    RCC_APB1PeriphClockCmd                   0x0800112d   Thumb Code    26  stm32f10x_rcc.o(i.RCC_APB1PeriphClockCmd)
    RCC_APB2PeriphClockCmd                   0x0800114d   Thumb Code    26  stm32f10x_rcc.o(i.RCC_APB2PeriphClockCmd)
    RCC_GetClocksFreq                        0x0800116d   Thumb Code   192  stm32f10x_rcc.o(i.RCC_GetClocksFreq)
    SVC_Handler                              0x08001241   Thumb Code     2  stm32f10x_it.o(i.SVC_Handler)
    SysTick_Handler                          0x0800132d   Thumb Code     2  stm32f10x_it.o(i.SysTick_Handler)
    SystemInit                               0x08001331   Thumb Code    78  system_stm32f10x.o(i.SystemInit)
    TIM2_IRQHandler                          0x08001391   Thumb Code    32  main.o(i.TIM2_IRQHandler)
    TIM2_Init                                0x080013b5   Thumb Code   114  tim.o(i.TIM2_Init)
    TIM3_IRQHandler                          0x08001429   Thumb Code    28  linmaster.o(i.TIM3_IRQHandler)
    TIM3_Init                                0x08001449   Thumb Code   100  tim.o(i.TIM3_Init)
    TIM4_Init                                0x080014b1   Thumb Code   104  tim.o(i.TIM4_Init)
    TIM_ClearFlag                            0x0800151d   Thumb Code     6  stm32f10x_tim.o(i.TIM_ClearFlag)
    TIM_ClearITPendingBit                    0x08001523   Thumb Code     6  stm32f10x_tim.o(i.TIM_ClearITPendingBit)
    TIM_Cmd                                  0x08001529   Thumb Code    24  stm32f10x_tim.o(i.TIM_Cmd)
    TIM_GetITStatus                          0x08001541   Thumb Code    34  stm32f10x_tim.o(i.TIM_GetITStatus)
    TIM_ITConfig                             0x08001563   Thumb Code    18  stm32f10x_tim.o(i.TIM_ITConfig)
    TIM_InternalClockConfig                  0x08001575   Thumb Code    12  stm32f10x_tim.o(i.TIM_InternalClockConfig)
    TIM_TimeBaseInit                         0x08001581   Thumb Code   122  stm32f10x_tim.o(i.TIM_TimeBaseInit)
    USART1_IRQHandler                        0x08001625   Thumb Code   138  linmaster.o(i.USART1_IRQHandler)
    USART1_Init                              0x080016c5   Thumb Code   188  usart.o(i.USART1_Init)
    USART2_IRQHandler                        0x08001789   Thumb Code    38  main.o(i.USART2_IRQHandler)
    USART2_Init                              0x080017b9   Thumb Code   160  usart.o(i.USART2_Init)
    USART_ClearITPendingBit                  0x08001861   Thumb Code    30  stm32f10x_usart.o(i.USART_ClearITPendingBit)
    USART_Cmd                                0x0800187f   Thumb Code    24  stm32f10x_usart.o(i.USART_Cmd)
    USART_GetFlagStatus                      0x08001897   Thumb Code    26  stm32f10x_usart.o(i.USART_GetFlagStatus)
    USART_GetITStatus                        0x080018b1   Thumb Code    84  stm32f10x_usart.o(i.USART_GetITStatus)
    USART_ITConfig                           0x08001905   Thumb Code    74  stm32f10x_usart.o(i.USART_ITConfig)
    USART_Init                               0x08001951   Thumb Code   210  stm32f10x_usart.o(i.USART_Init)
    USART_LINBreakDetectLengthConfig         0x08001a29   Thumb Code    18  stm32f10x_usart.o(i.USART_LINBreakDetectLengthConfig)
    USART_LINCmd                             0x08001a3b   Thumb Code    24  stm32f10x_usart.o(i.USART_LINCmd)
    USART_ReceiveData                        0x08001a53   Thumb Code    10  stm32f10x_usart.o(i.USART_ReceiveData)
    USART_SendBreak                          0x08001a5d   Thumb Code    10  stm32f10x_usart.o(i.USART_SendBreak)
    USART_SendData                           0x08001a67   Thumb Code     8  stm32f10x_usart.o(i.USART_SendData)
    USART_Sendstr                            0x08001a6f   Thumb Code    54  usart.o(i.USART_Sendstr)
    UsageFault_Handler                       0x08001aa5   Thumb Code     4  stm32f10x_it.o(i.UsageFault_Handler)
    __scatterload_copy                       0x08001aa9   Thumb Code    14  handlers.o(i.__scatterload_copy)
    __scatterload_null                       0x08001ab7   Thumb Code     2  handlers.o(i.__scatterload_null)
    __scatterload_zeroinit                   0x08001ab9   Thumb Code    14  handlers.o(i.__scatterload_zeroinit)
    free                                     0x08001ac9   Thumb Code    76  malloc.o(i.free)
    main                                     0x08001b19   Thumb Code    44  main.o(i.main)
    malloc                                   0x08001b4d   Thumb Code    92  malloc.o(i.malloc)
    uds_test                                 0x08001bb9   Thumb Code    88  main.o(i.uds_test)
    OLED_F8x16                               0x08001c2c   Data        1520  oled.o(.constdata)
    Region$$Table$$Base                      0x0800221c   Number         0  anon$$obj.o(Region$$Table)
    Region$$Table$$Limit                     0x0800223c   Number         0  anon$$obj.o(Region$$Table)
    ResponseTimOutTxNum                      0x20000014   Data           1  linmaster.o(.data)
    LIN_RX_TimOut                            0x20000018   Data           4  linmaster.o(.data)
    LIN_RxStateGet                           0x2000001c   Data           1  linmaster.o(.data)
    CF_RequestNum                            0x20000020   Data           4  lin_uds.o(.data)
    pSignalMsg                               0x20000030   Data           4  main.o(.data)
    pDiagnoseMsg                             0x20000034   Data           4  main.o(.data)
    Temp                                     0x20000038   Data           4  main.o(.data)
    Temp2                                    0x2000003c   Data           4  main.o(.data)
    Data                                     0x20000041   Data           1  main.o(.data)
    data                                     0x20000042   Data           8  main.o(.data)
    _10_SuF                                  0x2000004a   Data           1  main.o(.data)
    _22_DID                                  0x2000004b   Data           2  main.o(.data)
    _2F_DID                                  0x2000004d   Data           4  main.o(.data)
    __microlib_freelist                      0x20000054   Data           4  mvars.o(.data)
    __microlib_freelist_initialised          0x20000058   Data           4  mvars.o(.data)
    LINRxDataBuf                             0x2000005c   Data         896  linmaster.o(.bss)
    FrameIDType                              0x200003dc   Data          64  linmaster.o(.bss)
    LIN_RxDataBuff                           0x2000041c   Data         904  linmaster.o(.bss)
    __heap_base                              0x20000bb0   Data           0  startup_stm32f10x_md.o(HEAP)
    __heap_limit                             0x20000db0   Data           0  startup_stm32f10x_md.o(HEAP)
    __initial_sp                             0x200011b0   Data           0  startup_stm32f10x_md.o(STACK)



==============================================================================

Memory Map of the image

  Image Entry point : 0x080000ed

  Load Region LR_IROM1 (Base: 0x08000000, Size: 0x00002298, Max: 0x00010000, ABSOLUTE)

    Execution Region ER_IROM1 (Exec base: 0x08000000, Load base: 0x08000000, Size: 0x0000223c, Max: 0x00010000, ABSOLUTE)

    Exec Addr    Load Addr    Size         Type   Attr      Idx    E Section Name        Object

    0x08000000   0x08000000   0x000000ec   Data   RO         3069    RESET               startup_stm32f10x_md.o
    0x080000ec   0x080000ec   0x00000000   Code   RO         3708  * .ARM.Collect$$$$00000000  mc_w.l(entry.o)
    0x080000ec   0x080000ec   0x00000004   Code   RO         3741    .ARM.Collect$$$$00000001  mc_w.l(entry2.o)
    0x080000f0   0x080000f0   0x00000004   Code   RO         3744    .ARM.Collect$$$$00000004  mc_w.l(entry5.o)
    0x080000f4   0x080000f4   0x00000000   Code   RO         3746    .ARM.Collect$$$$00000008  mc_w.l(entry7b.o)
    0x080000f4   0x080000f4   0x00000000   Code   RO         3748    .ARM.Collect$$$$0000000A  mc_w.l(entry8b.o)
    0x080000f4   0x080000f4   0x00000008   Code   RO         3749    .ARM.Collect$$$$0000000B  mc_w.l(entry9a.o)
    0x080000fc   0x080000fc   0x00000004   Code   RO         3756    .ARM.Collect$$$$0000000E  mc_w.l(entry12b.o)
    0x08000100   0x08000100   0x00000000   Code   RO         3751    .ARM.Collect$$$$0000000F  mc_w.l(entry10a.o)
    0x08000100   0x08000100   0x00000000   Code   RO         3753    .ARM.Collect$$$$00000011  mc_w.l(entry11a.o)
    0x08000100   0x08000100   0x00000004   Code   RO         3742    .ARM.Collect$$$$00002712  mc_w.l(entry2.o)
    0x08000104   0x08000104   0x00000024   Code   RO         3070    .text               startup_stm32f10x_md.o
    0x08000128   0x08000128   0x00000024   Code   RO         3711    .text               mc_w.l(memseta.o)
    0x0800014c   0x0800014c   0x00000024   Code   RO         3763    .text               mc_w.l(init.o)
    0x08000170   0x08000170   0x00000004   Code   RO         3583    i.BusFault_Handler  stm32f10x_it.o
    0x08000174   0x08000174   0x00000002   Code   RO         3584    i.DebugMon_Handler  stm32f10x_it.o
    0x08000176   0x08000176   0x00000018   Code   RO         3108    i.Delay_ms          delay.o
    0x0800018e   0x0800018e   0x0000002e   Code   RO         3110    i.Delay_us          delay.o
    0x080001bc   0x080001bc   0x00000116   Code   RO         1240    i.GPIO_Init         stm32f10x_gpio.o
    0x080002d2   0x080002d2   0x00000004   Code   RO         1248    i.GPIO_SetBits      stm32f10x_gpio.o
    0x080002d6   0x080002d6   0x0000000a   Code   RO         1251    i.GPIO_WriteBit     stm32f10x_gpio.o
    0x080002e0   0x080002e0   0x00000004   Code   RO         3585    i.HardFault_Handler  stm32f10x_it.o
    0x080002e4   0x080002e4   0x0000005c   Code   RO         3646    i.HardWareInit      main.o
    0x08000340   0x08000340   0x00000064   Code   RO         3195    i.Key_Init          key.o
    0x080003a4   0x080003a4   0x00000058   Code   RO         3221    i.LED_Init          led.o
    0x080003fc   0x080003fc   0x0000000e   Code   RO         3222    i.LED_Turn          led.o
    0x0800040a   0x0800040a   0x00000002   PAD
    0x0800040c   0x0800040c   0x00000034   Code   RO         3530    i.LIN_Diagnose_Request  lin_uds.o
    0x08000440   0x08000440   0x000000ac   Code   RO         3246    i.LIN_ErrorCode     linmaster.o
    0x080004ec   0x080004ec   0x00000034   Code   RO         3247    i.LIN_GetChecksum   linmaster.o
    0x08000520   0x08000520   0x00000038   Code   RO         3248    i.LIN_GetPID        linmaster.o
    0x08000558   0x08000558   0x0000001c   Code   RO         3647    i.LIN_IDTypeConfig  main.o
    0x08000574   0x08000574   0x00000018   Code   RO         3648    i.LIN_LED_Drive     main.o
    0x0800058c   0x0800058c   0x000000e4   Code   RO         3249    i.LIN_MasterRxMsg   linmaster.o
    0x08000670   0x08000670   0x000000e8   Code   RO         3250    i.LIN_Process       linmaster.o
    0x08000758   0x08000758   0x00000018   Code   RO         3478    i.LIN_RingBUF_ClearRxMsg  lin_buffer.o
    0x08000770   0x08000770   0x00000012   Code   RO         3479    i.LIN_RingBUF_GetMsg  lin_buffer.o
    0x08000782   0x08000782   0x00000054   Code   RO         3481    i.LIN_RingBUF_Read  lin_buffer.o
    0x080007d6   0x080007d6   0x00000010   Code   RO         3482    i.LIN_RingBUF_ReadLen  lin_buffer.o
    0x080007e6   0x080007e6   0x00000036   Code   RO         3483    i.LIN_RingBUF_Write  lin_buffer.o
    0x0800081c   0x0800081c   0x0000000c   Code   RO         3251    i.LIN_SendBreak     linmaster.o
    0x08000828   0x08000828   0x0000003c   Code   RO         3252    i.LIN_SendBytes     linmaster.o
    0x08000864   0x08000864   0x00000030   Code   RO         3649    i.LIN_SendFlg       main.o
    0x08000894   0x08000894   0x000000e4   Code   RO         3253    i.LIN_SendMsg       linmaster.o
    0x08000978   0x08000978   0x00000010   Code   RO         3254    i.LIN_TimOutCmd     linmaster.o
    0x08000988   0x08000988   0x000000a8   Code   RO         3255    i.LIN_TimeProcess   linmaster.o
    0x08000a30   0x08000a30   0x00000058   Code   RO         3531    i.LIN_UDS_GetResponse  lin_uds.o
    0x08000a88   0x08000a88   0x00000040   Code   RO         3532    i.LIN_UDS_GotRequest  lin_uds.o
    0x08000ac8   0x08000ac8   0x0000015c   Code   RO         3533    i.LIN_UDS_Process   lin_uds.o
    0x08000c24   0x08000c24   0x00000112   Code   RO         3534    i.LIN_UDS_Request   lin_uds.o
    0x08000d36   0x08000d36   0x00000002   PAD
    0x08000d38   0x08000d38   0x00000064   Code   RO         3535    i.LIN_UDS_SendMsg   lin_uds.o
    0x08000d9c   0x08000d9c   0x00000004   Code   RO         3586    i.MemManage_Handler  stm32f10x_it.o
    0x08000da0   0x08000da0   0x00000002   Code   RO         3587    i.NMI_Handler       stm32f10x_it.o
    0x08000da2   0x08000da2   0x00000002   PAD
    0x08000da4   0x08000da4   0x00000070   Code   RO            1    i.NVIC_Init         misc.o
    0x08000e14   0x08000e14   0x00000014   Code   RO            2    i.NVIC_PriorityGroupConfig  misc.o
    0x08000e28   0x08000e28   0x0000002a   Code   RO         3370    i.OLED_Clear        oled.o
    0x08000e52   0x08000e52   0x00000002   PAD
    0x08000e54   0x08000e54   0x00000050   Code   RO         3371    i.OLED_I2C_Init     oled.o
    0x08000ea4   0x08000ea4   0x00000054   Code   RO         3372    i.OLED_I2C_SendByte  oled.o
    0x08000ef8   0x08000ef8   0x00000034   Code   RO         3373    i.OLED_I2C_Start    oled.o
    0x08000f2c   0x08000f2c   0x00000028   Code   RO         3374    i.OLED_I2C_Stop     oled.o
    0x08000f54   0x08000f54   0x000000ae   Code   RO         3375    i.OLED_Init         oled.o
    0x08001002   0x08001002   0x00000022   Code   RO         3377    i.OLED_SetCursor    oled.o
    0x08001024   0x08001024   0x00000074   Code   RO         3379    i.OLED_ShowChar     oled.o
    0x08001098   0x08001098   0x00000028   Code   RO         3650    i.OLED_ShowInit     main.o
    0x080010c0   0x080010c0   0x00000028   Code   RO         3383    i.OLED_ShowString   oled.o
    0x080010e8   0x080010e8   0x00000020   Code   RO         3384    i.OLED_WriteCommand  oled.o
    0x08001108   0x08001108   0x00000020   Code   RO         3385    i.OLED_WriteData    oled.o
    0x08001128   0x08001128   0x00000002   Code   RO         3588    i.PendSV_Handler    stm32f10x_it.o
    0x0800112a   0x0800112a   0x00000002   PAD
    0x0800112c   0x0800112c   0x00000020   Code   RO         1656    i.RCC_APB1PeriphClockCmd  stm32f10x_rcc.o
    0x0800114c   0x0800114c   0x00000020   Code   RO         1658    i.RCC_APB2PeriphClockCmd  stm32f10x_rcc.o
    0x0800116c   0x0800116c   0x000000d4   Code   RO         1666    i.RCC_GetClocksFreq  stm32f10x_rcc.o
    0x08001240   0x08001240   0x00000002   Code   RO         3589    i.SVC_Handler       stm32f10x_it.o
    0x08001242   0x08001242   0x00000008   Code   RO         3074    i.SetSysClock       system_stm32f10x.o
    0x0800124a   0x0800124a   0x00000002   PAD
    0x0800124c   0x0800124c   0x000000e0   Code   RO         3075    i.SetSysClockTo72   system_stm32f10x.o
    0x0800132c   0x0800132c   0x00000002   Code   RO         3590    i.SysTick_Handler   stm32f10x_it.o
    0x0800132e   0x0800132e   0x00000002   PAD
    0x08001330   0x08001330   0x00000060   Code   RO         3077    i.SystemInit        system_stm32f10x.o
    0x08001390   0x08001390   0x00000024   Code   RO         3651    i.TIM2_IRQHandler   main.o
    0x080013b4   0x080013b4   0x00000072   Code   RO         3170    i.TIM2_Init         tim.o
    0x08001426   0x08001426   0x00000002   PAD
    0x08001428   0x08001428   0x00000020   Code   RO         3256    i.TIM3_IRQHandler   linmaster.o
    0x08001448   0x08001448   0x00000068   Code   RO         3171    i.TIM3_Init         tim.o
    0x080014b0   0x080014b0   0x0000006c   Code   RO         3172    i.TIM4_Init         tim.o
    0x0800151c   0x0800151c   0x00000006   Code   RO         2284    i.TIM_ClearFlag     stm32f10x_tim.o
    0x08001522   0x08001522   0x00000006   Code   RO         2285    i.TIM_ClearITPendingBit  stm32f10x_tim.o
    0x08001528   0x08001528   0x00000018   Code   RO         2290    i.TIM_Cmd           stm32f10x_tim.o
    0x08001540   0x08001540   0x00000022   Code   RO         2311    i.TIM_GetITStatus   stm32f10x_tim.o
    0x08001562   0x08001562   0x00000012   Code   RO         2315    i.TIM_ITConfig      stm32f10x_tim.o
    0x08001574   0x08001574   0x0000000c   Code   RO         2317    i.TIM_InternalClockConfig  stm32f10x_tim.o
    0x08001580   0x08001580   0x000000a4   Code   RO         2361    i.TIM_TimeBaseInit  stm32f10x_tim.o
    0x08001624   0x08001624   0x000000a0   Code   RO         3257    i.USART1_IRQHandler  linmaster.o
    0x080016c4   0x080016c4   0x000000c4   Code   RO         3340    i.USART1_Init       usart.o
    0x08001788   0x08001788   0x00000030   Code   RO         3652    i.USART2_IRQHandler  main.o
    0x080017b8   0x080017b8   0x000000a8   Code   RO         3341    i.USART2_Init       usart.o
    0x08001860   0x08001860   0x0000001e   Code   RO         2823    i.USART_ClearITPendingBit  stm32f10x_usart.o
    0x0800187e   0x0800187e   0x00000018   Code   RO         2826    i.USART_Cmd         stm32f10x_usart.o
    0x08001896   0x08001896   0x0000001a   Code   RO         2829    i.USART_GetFlagStatus  stm32f10x_usart.o
    0x080018b0   0x080018b0   0x00000054   Code   RO         2830    i.USART_GetITStatus  stm32f10x_usart.o
    0x08001904   0x08001904   0x0000004a   Code   RO         2832    i.USART_ITConfig    stm32f10x_usart.o
    0x0800194e   0x0800194e   0x00000002   PAD
    0x08001950   0x08001950   0x000000d8   Code   RO         2833    i.USART_Init        stm32f10x_usart.o
    0x08001a28   0x08001a28   0x00000012   Code   RO         2836    i.USART_LINBreakDetectLengthConfig  stm32f10x_usart.o
    0x08001a3a   0x08001a3a   0x00000018   Code   RO         2837    i.USART_LINCmd      stm32f10x_usart.o
    0x08001a52   0x08001a52   0x0000000a   Code   RO         2840    i.USART_ReceiveData  stm32f10x_usart.o
    0x08001a5c   0x08001a5c   0x0000000a   Code   RO         2842    i.USART_SendBreak   stm32f10x_usart.o
    0x08001a66   0x08001a66   0x00000008   Code   RO         2843    i.USART_SendData    stm32f10x_usart.o
    0x08001a6e   0x08001a6e   0x00000036   Code   RO         3342    i.USART_Sendstr     usart.o
    0x08001aa4   0x08001aa4   0x00000004   Code   RO         3591    i.UsageFault_Handler  stm32f10x_it.o
    0x08001aa8   0x08001aa8   0x0000000e   Code   RO         3767    i.__scatterload_copy  mc_w.l(handlers.o)
    0x08001ab6   0x08001ab6   0x00000002   Code   RO         3768    i.__scatterload_null  mc_w.l(handlers.o)
    0x08001ab8   0x08001ab8   0x0000000e   Code   RO         3769    i.__scatterload_zeroinit  mc_w.l(handlers.o)
    0x08001ac6   0x08001ac6   0x00000002   PAD
    0x08001ac8   0x08001ac8   0x00000050   Code   RO         3713    i.free              mc_w.l(malloc.o)
    0x08001b18   0x08001b18   0x00000034   Code   RO         3653    i.main              main.o
    0x08001b4c   0x08001b4c   0x0000006c   Code   RO         3714    i.malloc            mc_w.l(malloc.o)
    0x08001bb8   0x08001bb8   0x00000074   Code   RO         3654    i.uds_test          main.o
    0x08001c2c   0x08001c2c   0x000005f0   Data   RO         3386    .constdata          oled.o
    0x0800221c   0x0800221c   0x00000020   Data   RO         3765    Region$$Table       anon$$obj.o


    Execution Region RW_IRAM1 (Exec base: 0x20000000, Load base: 0x0800223c, Size: 0x000011b0, Max: 0x00005000, ABSOLUTE)

    Exec Addr    Load Addr    Size         Type   Attr      Idx    E Section Name        Object

    0x20000000   0x0800223c   0x00000014   Data   RW         1686    .data               stm32f10x_rcc.o
    0x20000014   0x08002250   0x0000000a   Data   RW         3259    .data               linmaster.o
    0x2000001e   0x0800225a   0x00000002   PAD
    0x20000020   0x0800225c   0x0000000d   Data   RW         3538    .data               lin_uds.o
    0x2000002d   0x08002269   0x00000003   PAD
    0x20000030   0x0800226c   0x00000024   Data   RW         3655    .data               main.o
    0x20000054   0x08002290   0x00000004   Data   RW         3761    .data               mc_w.l(mvars.o)
    0x20000058   0x08002294   0x00000004   Data   RW         3762    .data               mc_w.l(mvars.o)
    0x2000005c        -       0x00000748   Zero   RW         3258    .bss                linmaster.o
    0x200007a4        -       0x00000408   Zero   RW         3537    .bss                lin_uds.o
    0x20000bac   0x08002298   0x00000004   PAD
    0x20000bb0        -       0x00000200   Zero   RW         3068    HEAP                startup_stm32f10x_md.o
    0x20000db0        -       0x00000400   Zero   RW         3067    STACK               startup_stm32f10x_md.o


==============================================================================

Image component sizes


      Code (inc. data)   RO Data    RW Data    ZI Data      Debug   Object Name

         0          0          0          0          0         32   core_cm3.o
        70          0          0          0          0       2564   delay.o
       100          8          0          0          0        483   key.o
       102          8          0          0          0       1194   led.o
       196          0          0          0          0      18706   lin_buffer.o
       926         60          0         13       1032       5879   lin_uds.o
      1416        200          0         10       1864      10167   linmaster.o
       484         98          0         36          0       4789   main.o
       132         22          0          0          0     254087   misc.o
       726         22       1520          0          0       6231   oled.o
        36          8        236          0       1536        776   startup_stm32f10x_md.o
       292          0          0          0          0       2887   stm32f10x_gpio.o
        26          0          0          0          0       3674   stm32f10x_it.o
       276         32          0         20          0       4210   stm32f10x_rcc.o
       264         42          0          0          0       4240   stm32f10x_tim.o
       524          6          0          0          0       7931   stm32f10x_usart.o
       328         28          0          0          0       1793   system_stm32f10x.o
       326          8          0          0          0       1568   tim.o
       418         16          0          0          0       2208   usart.o

    ----------------------------------------------------------------------
      6660        558       1788         84       4436     333419   Object Totals
         0          0         32          0          0          0   (incl. Generated)
        18          0          0          5          4          0   (incl. Padding)

    ----------------------------------------------------------------------

      Code (inc. data)   RO Data    RW Data    ZI Data      Debug   Library Member Name

         0          0          0          0          0          0   entry.o
         0          0          0          0          0          0   entry10a.o
         0          0          0          0          0          0   entry11a.o
         4          0          0          0          0          0   entry12b.o
         8          4          0          0          0          0   entry2.o
         4          0          0          0          0          0   entry5.o
         0          0          0          0          0          0   entry7b.o
         0          0          0          0          0          0   entry8b.o
         8          4          0          0          0          0   entry9a.o
        30          0          0          0          0          0   handlers.o
        36          8          0          0          0         68   init.o
       188         20          0          0          0        160   malloc.o
        36          0          0          0          0        108   memseta.o
         0          0          0          8          0          0   mvars.o

    ----------------------------------------------------------------------
       316         36          0          8          0        336   Library Totals
         2          0          0          0          0          0   (incl. Padding)

    ----------------------------------------------------------------------

      Code (inc. data)   RO Data    RW Data    ZI Data      Debug   Library Name

       314         36          0          8          0        336   mc_w.l

    ----------------------------------------------------------------------
       316         36          0          8          0        336   Library Totals

    ----------------------------------------------------------------------

==============================================================================


      Code (inc. data)   RO Data    RW Data    ZI Data      Debug   

      6976        594       1788         92       4436     329227   Grand Totals
      6976        594       1788         92       4436     329227   ELF Image Totals
      6976        594       1788         92          0          0   ROM Totals

==============================================================================

    Total RO  Size (Code + RO Data)                 8764 (   8.56kB)
    Total RW  Size (RW Data + ZI Data)              4528 (   4.42kB)
    Total ROM Size (Code + RO Data + RW Data)       8856 (   8.65kB)

==============================================================================

